{
  "_format": "hh-sol-artifact-1",
  "contractName": "SNResolverStub",
  "sourceName": "contracts/SNResolverStub.sol",
  "abi": [
    {
      "inputs": [],
      "stateMutability": "nonpayable",
      "type": "constructor"
    },
    {
      "inputs": [
        {
          "internalType": "address",
          "name": "sender",
          "type": "address"
        },
        {
          "internalType": "string[]",
          "name": "urls",
          "type": "string[]"
        },
        {
          "internalType": "bytes",
          "name": "callData",
          "type": "bytes"
        },
        {
          "internalType": "bytes4",
          "name": "callbackFunction",
          "type": "bytes4"
        },
        {
          "internalType": "bytes",
          "name": "extraData",
          "type": "bytes"
        }
      ],
      "name": "OffchainLookup",
      "type": "error"
    },
    {
      "anonymous": false,
      "inputs": [
        {
          "indexed": false,
          "internalType": "address",
          "name": "previousAdmin",
          "type": "address"
        },
        {
          "indexed": false,
          "internalType": "address",
          "name": "newAdmin",
          "type": "address"
        }
      ],
      "name": "AdminChanged",
      "type": "event"
    },
    {
      "anonymous": false,
      "inputs": [
        {
          "indexed": true,
          "internalType": "address",
          "name": "beacon",
          "type": "address"
        }
      ],
      "name": "BeaconUpgraded",
      "type": "event"
    },
    {
      "anonymous": false,
      "inputs": [
        {
          "indexed": false,
          "internalType": "uint8",
          "name": "version",
          "type": "uint8"
        }
      ],
      "name": "Initialized",
      "type": "event"
    },
    {
      "anonymous": false,
      "inputs": [
        {
          "indexed": true,
          "internalType": "address",
          "name": "previousOwner",
          "type": "address"
        },
        {
          "indexed": true,
          "internalType": "address",
          "name": "newOwner",
          "type": "address"
        }
      ],
      "name": "OwnershipTransferred",
      "type": "event"
    },
    {
      "anonymous": false,
      "inputs": [
        {
          "indexed": true,
          "internalType": "address",
          "name": "implementation",
          "type": "address"
        }
      ],
      "name": "Upgraded",
      "type": "event"
    },
    {
      "inputs": [
        {
          "internalType": "bytes32",
          "name": "node",
          "type": "bytes32"
        }
      ],
      "name": "addr",
      "outputs": [
        {
          "internalType": "address",
          "name": "",
          "type": "address"
        }
      ],
      "stateMutability": "view",
      "type": "function"
    },
    {
      "inputs": [
        {
          "internalType": "bytes32",
          "name": "node",
          "type": "bytes32"
        },
        {
          "internalType": "uint256",
          "name": "coinType",
          "type": "uint256"
        }
      ],
      "name": "addr",
      "outputs": [
        {
          "internalType": "bytes",
          "name": "",
          "type": "bytes"
        }
      ],
      "stateMutability": "view",
      "type": "function"
    },
    {
      "inputs": [
        {
          "internalType": "bytes",
          "name": "response",
          "type": "bytes"
        },
        {
          "internalType": "bytes",
          "name": "extraData",
          "type": "bytes"
        }
      ],
      "name": "bytesAddrWithProof",
      "outputs": [
        {
          "internalType": "bytes",
          "name": "",
          "type": "bytes"
        }
      ],
      "stateMutability": "view",
      "type": "function"
    },
    {
      "inputs": [
        {
          "internalType": "uint256",
          "name": "",
          "type": "uint256"
        }
      ],
      "name": "gateways",
      "outputs": [
        {
          "internalType": "string",
          "name": "",
          "type": "string"
        }
      ],
      "stateMutability": "view",
      "type": "function"
    },
    {
      "inputs": [],
      "name": "getl2Resolver",
      "outputs": [
        {
          "internalType": "uint256",
          "name": "",
          "type": "uint256"
        }
      ],
      "stateMutability": "view",
      "type": "function"
    },
    {
      "inputs": [
        {
          "internalType": "uint256",
          "name": "a",
          "type": "uint256"
        },
        {
          "internalType": "uint256",
          "name": "b",
          "type": "uint256"
        }
      ],
      "name": "hash",
      "outputs": [
        {
          "internalType": "uint256",
          "name": "",
          "type": "uint256"
        }
      ],
      "stateMutability": "view",
      "type": "function"
    },
    {
      "inputs": [
        {
          "internalType": "address",
          "name": "pedersenAddress",
          "type": "address"
        },
        {
          "internalType": "address",
          "name": "_starknetCoreContractAddress",
          "type": "address"
        }
      ],
      "name": "initialize",
      "outputs": [],
      "stateMutability": "nonpayable",
      "type": "function"
    },
    {
      "inputs": [
        {
          "internalType": "address",
          "name": "pedersenAddress",
          "type": "address"
        },
        {
          "internalType": "address",
          "name": "_starknetCoreContractAddress",
          "type": "address"
        },
        {
          "internalType": "string[]",
          "name": "_gateways",
          "type": "string[]"
        },
        {
          "internalType": "uint256",
          "name": "_l2resolver",
          "type": "uint256"
        }
      ],
      "name": "initialize",
      "outputs": [],
      "stateMutability": "nonpayable",
      "type": "function"
    },
    {
      "inputs": [],
      "name": "l2resolver",
      "outputs": [
        {
          "internalType": "uint256",
          "name": "",
          "type": "uint256"
        }
      ],
      "stateMutability": "view",
      "type": "function"
    },
    {
      "inputs": [],
      "name": "owner",
      "outputs": [
        {
          "internalType": "address",
          "name": "",
          "type": "address"
        }
      ],
      "stateMutability": "view",
      "type": "function"
    },
    {
      "inputs": [],
      "name": "pedersen",
      "outputs": [
        {
          "internalType": "contract PedersenHash",
          "name": "",
          "type": "address"
        }
      ],
      "stateMutability": "view",
      "type": "function"
    },
    {
      "inputs": [],
      "name": "proxiableUUID",
      "outputs": [
        {
          "internalType": "bytes32",
          "name": "",
          "type": "bytes32"
        }
      ],
      "stateMutability": "view",
      "type": "function"
    },
    {
      "inputs": [],
      "name": "renounceOwnership",
      "outputs": [],
      "stateMutability": "nonpayable",
      "type": "function"
    },
    {
      "inputs": [],
      "name": "starknetCoreContract",
      "outputs": [
        {
          "internalType": "contract StarknetCoreContract",
          "name": "",
          "type": "address"
        }
      ],
      "stateMutability": "view",
      "type": "function"
    },
    {
      "inputs": [
        {
          "internalType": "bytes4",
          "name": "interfaceID",
          "type": "bytes4"
        }
      ],
      "name": "supportsInterface",
      "outputs": [
        {
          "internalType": "bool",
          "name": "",
          "type": "bool"
        }
      ],
      "stateMutability": "pure",
      "type": "function"
    },
    {
      "inputs": [
        {
          "internalType": "address",
          "name": "newOwner",
          "type": "address"
        }
      ],
      "name": "transferOwnership",
      "outputs": [],
      "stateMutability": "nonpayable",
      "type": "function"
    },
    {
      "inputs": [
        {
          "internalType": "address",
          "name": "newImplementation",
          "type": "address"
        }
      ],
      "name": "upgradeTo",
      "outputs": [],
      "stateMutability": "nonpayable",
      "type": "function"
    },
    {
      "inputs": [
        {
          "internalType": "address",
          "name": "newImplementation",
          "type": "address"
        },
        {
          "internalType": "bytes",
          "name": "data",
          "type": "bytes"
        }
      ],
      "name": "upgradeToAndCall",
      "outputs": [],
      "stateMutability": "payable",
      "type": "function"
    },
    {
      "inputs": [
        {
          "internalType": "int256",
          "name": "blockNumber",
          "type": "int256"
        },
        {
          "components": [
            {
              "internalType": "uint256",
              "name": "contractStateRoot",
              "type": "uint256"
            },
            {
              "internalType": "uint256",
              "name": "contractAddress",
              "type": "uint256"
            },
            {
              "internalType": "uint256",
              "name": "storageVarAddress",
              "type": "uint256"
            },
            {
              "internalType": "uint256",
              "name": "classHash",
              "type": "uint256"
            },
            {
              "internalType": "uint256",
              "name": "hashVersion",
              "type": "uint256"
            },
            {
              "internalType": "uint256",
              "name": "nonce",
              "type": "uint256"
            }
          ],
          "internalType": "struct ContractData",
          "name": "contractData",
          "type": "tuple"
        },
        {
          "components": [
            {
              "internalType": "enum NodeType",
              "name": "nodeType",
              "type": "uint8"
            },
            {
              "components": [
                {
                  "internalType": "uint256",
                  "name": "leftHash",
                  "type": "uint256"
                },
                {
                  "internalType": "uint256",
                  "name": "rightHash",
                  "type": "uint256"
                }
              ],
              "internalType": "struct BinaryProof",
              "name": "binaryProof",
              "type": "tuple"
            },
            {
              "components": [
                {
                  "internalType": "uint256",
                  "name": "childHash",
                  "type": "uint256"
                },
                {
                  "internalType": "uint256",
                  "name": "path",
                  "type": "uint256"
                },
                {
                  "internalType": "uint256",
                  "name": "length",
                  "type": "uint256"
                }
              ],
              "internalType": "struct EdgeProof",
              "name": "edgeProof",
              "type": "tuple"
            }
          ],
          "internalType": "struct StarknetProof[]",
          "name": "contractProofArray",
          "type": "tuple[]"
        },
        {
          "components": [
            {
              "internalType": "enum NodeType",
              "name": "nodeType",
              "type": "uint8"
            },
            {
              "components": [
                {
                  "internalType": "uint256",
                  "name": "leftHash",
                  "type": "uint256"
                },
                {
                  "internalType": "uint256",
                  "name": "rightHash",
                  "type": "uint256"
                }
              ],
              "internalType": "struct BinaryProof",
              "name": "binaryProof",
              "type": "tuple"
            },
            {
              "components": [
                {
                  "internalType": "uint256",
                  "name": "childHash",
                  "type": "uint256"
                },
                {
                  "internalType": "uint256",
                  "name": "path",
                  "type": "uint256"
                },
                {
                  "internalType": "uint256",
                  "name": "length",
                  "type": "uint256"
                }
              ],
              "internalType": "struct EdgeProof",
              "name": "edgeProof",
              "type": "tuple"
            }
          ],
          "internalType": "struct StarknetProof[]",
          "name": "storageProofArray",
          "type": "tuple[]"
        }
      ],
      "name": "verifiedStorageValue",
      "outputs": [
        {
          "internalType": "uint256",
          "name": "value",
          "type": "uint256"
        }
      ],
      "stateMutability": "view",
      "type": "function"
    },
    {
      "inputs": [
        {
          "internalType": "uint256",
          "name": "rootHash",
          "type": "uint256"
        },
        {
          "internalType": "uint256",
          "name": "path",
          "type": "uint256"
        },
        {
          "components": [
            {
              "internalType": "enum NodeType",
              "name": "nodeType",
              "type": "uint8"
            },
            {
              "components": [
                {
                  "internalType": "uint256",
                  "name": "leftHash",
                  "type": "uint256"
                },
                {
                  "internalType": "uint256",
                  "name": "rightHash",
                  "type": "uint256"
                }
              ],
              "internalType": "struct BinaryProof",
              "name": "binaryProof",
              "type": "tuple"
            },
            {
              "components": [
                {
                  "internalType": "uint256",
                  "name": "childHash",
                  "type": "uint256"
                },
                {
                  "internalType": "uint256",
                  "name": "path",
                  "type": "uint256"
                },
                {
                  "internalType": "uint256",
                  "name": "length",
                  "type": "uint256"
                }
              ],
              "internalType": "struct EdgeProof",
              "name": "edgeProof",
              "type": "tuple"
            }
          ],
          "internalType": "struct StarknetProof[]",
          "name": "proofArray",
          "type": "tuple[]"
        }
      ],
      "name": "verifyProof",
      "outputs": [
        {
          "internalType": "uint256",
          "name": "value",
          "type": "uint256"
        }
      ],
      "stateMutability": "view",
      "type": "function"
    }
  ],
  "bytecode": "0x60a06040523073ffffffffffffffffffffffffffffffffffffffff1660809073ffffffffffffffffffffffffffffffffffffffff1660601b8152503480156200004757600080fd5b50620000586200006e60201b60201c565b620000686200006e60201b60201c565b62000219565b600060019054906101000a900460ff1615620000c1576040517f08c379a0000000000000000000000000000000000000000000000000000000008152600401620000b8906200016d565b60405180910390fd5b60ff801660008054906101000a900460ff1660ff161015620001335760ff6000806101000a81548160ff021916908360ff1602179055507f7f26b83ff96e1f2b6a682f133852f6798a09c465da95921460cefb384740249860ff6040516200012a91906200018f565b60405180910390a15b565b600062000144602783620001ac565b91506200015182620001ca565b604082019050919050565b6200016781620001bd565b82525050565b60006020820190508181036000830152620001888162000135565b9050919050565b6000602082019050620001a660008301846200015c565b92915050565b600082825260208201905092915050565b600060ff82169050919050565b7f496e697469616c697a61626c653a20636f6e747261637420697320696e69746960008201527f616c697a696e6700000000000000000000000000000000000000000000000000602082015250565b60805160601c614b1262000254600039600081816105cd0152818161065c01528181610960015281816109ef0152610a9f0152614b126000f3fe60806040526004361061011f5760003560e01c80637a1dc070116100a0578063a8d7679f11610064578063a8d7679f146103ee578063c57601db1461042b578063d071771f14610456578063f1cb7e061461047f578063f2fde38b146104bc5761011f565b80637a1dc070146102f357806388083d501461031e5780638da5cb5b146103495780639072a1b314610374578063a78dac0d146103b15761011f565b8063485cc955116100e7578063485cc9551461022f5780634f1ef2861461025857806352d1902d1461027457806364c170561461029f578063715018a6146102dc5761011f565b806301ffc9a7146101245780630cfe46e6146101615780633276d9ff1461019e5780633659cfe6146101c95780633b3b57de146101f2575b600080fd5b34801561013057600080fd5b5061014b60048036038101906101469190612e50565b6104e5565b60405161015891906138a8565b60405180910390f35b34801561016d57600080fd5b5061018860048036038101906101839190612e79565b610585565b60405161019591906138de565b60405180910390f35b3480156101aa57600080fd5b506101b36105a5565b6040516101c09190613900565b60405180910390f35b3480156101d557600080fd5b506101f060048036038101906101eb9190612c4d565b6105cb565b005b3480156101fe57600080fd5b5061021960048036038101906102149190612dc2565b61077a565b6040516102269190613825565b60405180910390f35b34801561023b57600080fd5b5061025660048036038101906102519190612c76565b610794565b005b610272600480360381019061026d9190612d2d565b61095e565b005b34801561028057600080fd5b50610289610a9b565b60405161029691906138c3565b60405180910390f35b3480156102ab57600080fd5b506102c660048036038101906102c1919061301e565b610b54565b6040516102d391906139a6565b60405180910390f35b3480156102e857600080fd5b506102f1610c00565b005b3480156102ff57600080fd5b50610308610c14565b6040516103159190613cb8565b60405180910390f35b34801561032a57600080fd5b50610333610c1a565b6040516103409190613cb8565b60405180910390f35b34801561035557600080fd5b5061035e610c24565b60405161036b9190613825565b60405180910390f35b34801561038057600080fd5b5061039b600480360381019061039691906130ac565b610c4e565b6040516103a89190613cb8565b60405180910390f35b3480156103bd57600080fd5b506103d860048036038101906103d39190613070565b610f79565b6040516103e59190613cb8565b60405180910390f35b3480156103fa57600080fd5b5061041560048036038101906104109190612f17565b6110c6565b6040516104229190613cb8565b60405180910390f35b34801561043757600080fd5b506104406114e3565b60405161044d919061391b565b60405180910390f35b34801561046257600080fd5b5061047d60048036038101906104789190612cb2565b611509565b005b34801561048b57600080fd5b506104a660048036038101906104a19190612e14565b61167b565b6040516104b391906138de565b60405180910390f35b3480156104c857600080fd5b506104e360048036038101906104de9190612c4d565b6116e3565b005b6000633b3b57de60e01b7bffffffffffffffffffffffffffffffffffffffffffffffffffffffff1916827bffffffffffffffffffffffffffffffffffffffffffffffffffffffff1916148061057e575063f1cb7e0660e01b7bffffffffffffffffffffffffffffffffffffffffffffffffffffffff1916827bffffffffffffffffffffffffffffffffffffffffffffffffffffffff1916145b9050919050565b606061059b61059686868686611767565b61186e565b9050949350505050565b60c960009054906101000a900473ffffffffffffffffffffffffffffffffffffffff1681565b7f000000000000000000000000000000000000000000000000000000000000000073ffffffffffffffffffffffffffffffffffffffff163073ffffffffffffffffffffffffffffffffffffffff16141561065a576040517f08c379a000000000000000000000000000000000000000000000000000000000815260040161065190613a98565b60405180910390fd5b7f000000000000000000000000000000000000000000000000000000000000000073ffffffffffffffffffffffffffffffffffffffff166106996118f1565b73ffffffffffffffffffffffffffffffffffffffff16146106ef576040517f08c379a00000000000000000000000000000000000000000000000000000000081526004016106e690613ab8565b60405180910390fd5b6106f881611948565b61077781600067ffffffffffffffff81111561073d577f4e487b7100000000000000000000000000000000000000000000000000000000600052604160045260246000fd5b6040519080825280601f01601f19166020018201604052801561076f5781602001600182028036833780820191505090505b506000611953565b50565b600061078d82630cfe46e660e01b611ad0565b9050919050565b60008060019054906101000a900460ff161590508080156107c55750600160008054906101000a900460ff1660ff16105b806107f257506107d430611bda565b1580156107f15750600160008054906101000a900460ff1660ff16145b5b610831576040517f08c379a000000000000000000000000000000000000000000000000000000000815260040161082890613b38565b60405180910390fd5b60016000806101000a81548160ff021916908360ff160217905550801561086e576001600060016101000a81548160ff0219169083151502179055505b8260c960006101000a81548173ffffffffffffffffffffffffffffffffffffffff021916908373ffffffffffffffffffffffffffffffffffffffff1602179055508160ca60006101000a81548173ffffffffffffffffffffffffffffffffffffffff021916908373ffffffffffffffffffffffffffffffffffffffff1602179055506108f8611bfd565b610900611c56565b80156109595760008060016101000a81548160ff0219169083151502179055507f7f26b83ff96e1f2b6a682f133852f6798a09c465da95921460cefb38474024986001604051610950919061398b565b60405180910390a15b505050565b7f000000000000000000000000000000000000000000000000000000000000000073ffffffffffffffffffffffffffffffffffffffff163073ffffffffffffffffffffffffffffffffffffffff1614156109ed576040517f08c379a00000000000000000000000000000000000000000000000000000000081526004016109e490613a98565b60405180910390fd5b7f000000000000000000000000000000000000000000000000000000000000000073ffffffffffffffffffffffffffffffffffffffff16610a2c6118f1565b73ffffffffffffffffffffffffffffffffffffffff1614610a82576040517f08c379a0000000000000000000000000000000000000000000000000000000008152600401610a7990613ab8565b60405180910390fd5b610a8b82611948565b610a9782826001611953565b5050565b60007f000000000000000000000000000000000000000000000000000000000000000073ffffffffffffffffffffffffffffffffffffffff163073ffffffffffffffffffffffffffffffffffffffff1614610b2b576040517f08c379a0000000000000000000000000000000000000000000000000000000008152600401610b2290613ad8565b60405180910390fd5b7f360894a13ba1a3210667c828492db98dca3e2076cc3735a920a3ca505d382bbc60001b905090565b60cb8181548110610b6457600080fd5b906000526020600020016000915090508054610b7f9061417b565b80601f0160208091040260200160405190810160405280929190818152602001828054610bab9061417b565b8015610bf85780601f10610bcd57610100808354040283529160200191610bf8565b820191906000526020600020905b815481529060010190602001808311610bdb57829003601f168201915b505050505081565b610c08611ca7565b610c126000611d25565b565b60cc5481565b600060cc54905090565b6000603360009054906101000a900473ffffffffffffffffffffffffffffffffffffffff16905090565b600080859050600060fa905060008585905011610ca0576040517f08c379a0000000000000000000000000000000000000000000000000000000008152600401610c9790613c58565b60405180910390fd5b60006001905060005b86869050811015610f025760008312610eef576000878783818110610cf7577f4e487b7100000000000000000000000000000000000000000000000000000000600052603260045260246000fd5b905060c00201803603810190610d0d9190612ff5565b9050610d1881611deb565b8514610d59576040517f08c379a0000000000000000000000000000000000000000000000000000000008152600401610d5090613c78565b60405180910390fd5b60006001811115610d93577f4e487b7100000000000000000000000000000000000000000000000000000000600052602160045260246000fd5b81600001516001811115610dd0577f4e487b7100000000000000000000000000000000000000000000000000000000600052602160045260246000fd5b1415610e1d57600180858b901c16149250600115158315151415610dfe578060200151602001519450610e0a565b80602001516000015194505b8380610e1590614132565b945050610eed565b6000610e3b8a83604001516020015187856040015160400151611ef4565b9050600015158115151415610e85576040517f08c379a0000000000000000000000000000000000000000000000000000000008152600401610e7c90613b18565b60405180910390fd5b8160400151600001519550600082604001516040015190508086610ea99190613f14565b9550610eea6040518060400160405280600c81526020017f70617468426974496e646578000000000000000000000000000000000000000081525087611f3a565b50505b505b8080610efa906141de565b915050610ca9565b507fffffffffffffffffffffffffffffffffffffffffffffffffffffffffffffffff821415610f3657829350505050610f71565b6040517f08c379a0000000000000000000000000000000000000000000000000000000008152600401610f6890613b98565b60405180910390fd5b949350505050565b60008060c960009054906101000a900473ffffffffffffffffffffffffffffffffffffffff1673ffffffffffffffffffffffffffffffffffffffff1663aa1e84de610fc48686611fd6565b6040518263ffffffff1660e01b8152600401610fe091906138de565b60006040518083038186803b158015610ff857600080fd5b505afa15801561100c573d6000803e3d6000fd5b505050506040513d6000823e3d601f19601f820116820180604052508101906110359190612d81565b9050600081511161107b576040517f08c379a000000000000000000000000000000000000000000000000000000000815260040161107290613a78565b60405180910390fd5b806000815181106110b5577f4e487b7100000000000000000000000000000000000000000000000000000000600052603260045260246000fd5b602002602001015191505092915050565b60006111a66040518060400160405280600981526020017f7374617465526f6f74000000000000000000000000000000000000000000000081525060ca60009054906101000a900473ffffffffffffffffffffffffffffffffffffffff1673ffffffffffffffffffffffffffffffffffffffff16639588eca26040518163ffffffff1660e01b815260040160206040518083038186803b15801561116957600080fd5b505afa15801561117d573d6000803e3d6000fd5b505050506040513d601f19601f820116820180604052508101906111a19190613047565b611f3a565b600060ca60009054906101000a900473ffffffffffffffffffffffffffffffffffffffff1673ffffffffffffffffffffffffffffffffffffffff166335befa5d6040518163ffffffff1660e01b815260040160206040518083038186803b15801561121057600080fd5b505afa158015611224573d6000803e3d6000fd5b505050506040513d601f19601f820116820180604052508101906112489190612eee565b905060008686905011611290576040517f08c379a000000000000000000000000000000000000000000000000000000000815260040161128790613bf8565b60405180910390fd5b600084849050116112d6576040517f08c379a00000000000000000000000000000000000000000000000000000000081526004016112cd906139f8565b60405180910390fd5b60008113611319576040517f08c379a000000000000000000000000000000000000000000000000000000000815260040161131090613c98565b60405180910390fd5b80881461135b576040517f08c379a000000000000000000000000000000000000000000000000000000000815260040161135290613a38565b60405180910390fd5b6000611379886060013589600001358a60a001358b60800135612066565b9050600061139189600001358a604001358888610c4e565b9050600060ca60009054906101000a900473ffffffffffffffffffffffffffffffffffffffff1673ffffffffffffffffffffffffffffffffffffffff16639588eca26040518163ffffffff1660e01b815260040160206040518083038186803b1580156113fd57600080fd5b505afa158015611411573d6000803e3d6000fd5b505050506040513d601f19601f820116820180604052508101906114359190613047565b9050600083141561147b576040517f08c379a000000000000000000000000000000000000000000000000000000000815260040161147290613a18565b60405180910390fd5b600061148d828c602001358c8c610c4e565b90508084146114d1576040517f08c379a00000000000000000000000000000000000000000000000000000000081526004016114c890613b58565b60405180910390fd5b82955050505050509695505050505050565b60ca60009054906101000a900473ffffffffffffffffffffffffffffffffffffffff1681565b60008060019054906101000a900460ff1615905080801561153a5750600160008054906101000a900460ff1660ff16105b80611567575061154930611bda565b1580156115665750600160008054906101000a900460ff1660ff16145b5b6115a6576040517f08c379a000000000000000000000000000000000000000000000000000000000815260040161159d90613b38565b60405180910390fd5b60016000806101000a81548160ff021916908360ff16021790555080156115e3576001600060016101000a81548160ff0219169083151502179055505b6115ed8585610794565b8260cb9080519060200190611603929190612480565b508160cc81905550611613611bfd565b61161b611c56565b80156116745760008060016101000a81548160ff0219169083151502179055507f7f26b83ff96e1f2b6a682f133852f6798a09c465da95921460cefb3847402498600160405161166b919061398b565b60405180910390a15b5050505050565b6060603c8214156116a65761169f61169a84630cfe46e660e01b611ad0565b61186e565b90506116dd565b61232c8214156116d0576116c96116c484630cfe46e660e01b611ad0565b61186e565b90506116dd565b6116da6000612093565b90505b92915050565b6116eb611ca7565b600073ffffffffffffffffffffffffffffffffffffffff168173ffffffffffffffffffffffffffffffffffffffff16141561175b576040517f08c379a000000000000000000000000000000000000000000000000000000000815260040161175290613a58565b60405180910390fd5b61176481611d25565b50565b60008085858101906117799190612fb4565b90506000848481019061178c9190612dc2565b9050600061179c8260001c61211d565b905060cc5483602001516020018181525050808360200151604001818152505060003073ffffffffffffffffffffffffffffffffffffffff1663a8d7679f85600001518660200151876040015188606001516040518563ffffffff1660e01b815260040161180d9493929190613936565b60206040518083038186803b15801561182557600080fd5b505afa158015611839573d6000803e3d6000fd5b505050506040513d601f19601f8201168201806040525081019061185d9190613047565b905080945050505050949350505050565b6060602067ffffffffffffffff8111156118b1577f4e487b7100000000000000000000000000000000000000000000000000000000600052604160045260246000fd5b6040519080825280601f01601f1916602001820160405280156118e35781602001600182028036833780820191505090505b509050816020820152919050565b600061191f7f360894a13ba1a3210667c828492db98dca3e2076cc3735a920a3ca505d382bbc60001b612150565b60000160009054906101000a900473ffffffffffffffffffffffffffffffffffffffff16905090565b611950611ca7565b50565b61197f7f4910fdfa16fed3260ed0e7147f7cc6da11a60208b5b9406d12a635614ffd914360001b61215a565b60000160009054906101000a900460ff16156119a35761199e83612164565b611acb565b8273ffffffffffffffffffffffffffffffffffffffff166352d1902d6040518163ffffffff1660e01b815260040160206040518083038186803b1580156119e957600080fd5b505afa925050508015611a1a57506040513d601f19601f82011682018060405250810190611a179190612deb565b60015b611a59576040517f08c379a0000000000000000000000000000000000000000000000000000000008152600401611a5090613b78565b60405180910390fd5b7f360894a13ba1a3210667c828492db98dca3e2076cc3735a920a3ca505d382bbc60001b8114611abe576040517f08c379a0000000000000000000000000000000000000000000000000000000008152600401611ab590613af8565b60405180910390fd5b50611aca83838361221d565b5b505050565b6000807f03ffffffffffffffffffffffffffffffffffffffffffffffffffffffffffffff8460001c1690506000633b3b57de60e01b82604051602401611b169190613cb8565b604051602081830303815290604052907bffffffffffffffffffffffffffffffffffffffffffffffffffffffff19166020820180517bffffffffffffffffffffffffffffffffffffffffffffffffffffffff838183161783525050505090503060cb828685604051602001611b8b9190613cb8565b6040516020818303038152906040526040517f556f1830000000000000000000000000000000000000000000000000000000008152600401611bd1959493929190613840565b60405180910390fd5b6000808273ffffffffffffffffffffffffffffffffffffffff163b119050919050565b600060019054906101000a900460ff16611c4c576040517f08c379a0000000000000000000000000000000000000000000000000000000008152600401611c4390613c38565b60405180910390fd5b611c54612249565b565b600060019054906101000a900460ff16611ca5576040517f08c379a0000000000000000000000000000000000000000000000000000000008152600401611c9c90613c38565b60405180910390fd5b565b611caf6122aa565b73ffffffffffffffffffffffffffffffffffffffff16611ccd610c24565b73ffffffffffffffffffffffffffffffffffffffff1614611d23576040517f08c379a0000000000000000000000000000000000000000000000000000000008152600401611d1a90613bd8565b60405180910390fd5b565b6000603360009054906101000a900473ffffffffffffffffffffffffffffffffffffffff16905081603360006101000a81548173ffffffffffffffffffffffffffffffffffffffff021916908373ffffffffffffffffffffffffffffffffffffffff1602179055508173ffffffffffffffffffffffffffffffffffffffff168173ffffffffffffffffffffffffffffffffffffffff167f8be0079c531659141344cd1fd0a4f28419497f9722a3daafe3b4186f6b6457e060405160405180910390a35050565b6000806000905060006001811115611e2c577f4e487b7100000000000000000000000000000000000000000000000000000000600052602160045260246000fd5b83600001516001811115611e69577f4e487b7100000000000000000000000000000000000000000000000000000000600052602160045260246000fd5b1415611e9057611e89836020015160000151846020015160200151610f79565b9050611eeb565b7f0800000000000011000000000000000000000000000000000000000000000001836040015160400151611ed4856040015160000151866040015160200151610f79565b611ede9190613ebe565b611ee89190614227565b90505b80915050919050565b6000808360ff611f049190613fa8565b90506000600184611f159190613fa8565b85611f209190613fa8565b828389901b901c901c905085811492505050949350505050565b611fd28282604051602401611f509291906139c8565b6040516020818303038152906040527fb60e72cc000000000000000000000000000000000000000000000000000000007bffffffffffffffffffffffffffffffffffffffffffffffffffffffff19166020820180517bffffffffffffffffffffffffffffffffffffffffffffffffffffffff83818316178352505050506122b2565b5050565b60606000604067ffffffffffffffff81111561201b577f4e487b7100000000000000000000000000000000000000000000000000000000600052604160045260246000fd5b6040519080825280601f01601f19166020018201604052801561204d5781602001600182028036833780820191505090505b5090508360208201528260408201528091505092915050565b60008061208561207f6120798888610f79565b86610f79565b84610f79565b905080915050949350505050565b6060601467ffffffffffffffff8111156120d6577f4e487b7100000000000000000000000000000000000000000000000000000000600052604160045260246000fd5b6040519080825280601f01601f1916602001820160405280156121085781602001600182028036833780820191505090505b509050600c6101000a82026020820152919050565b60006121497f029539a1d23af1810c48a07fe7fc66a3b34fbc8b37e9b3cdb97bb88ceab7e4bf83610f79565b9050919050565b6000819050919050565b6000819050919050565b61216d81611bda565b6121ac576040517f08c379a00000000000000000000000000000000000000000000000000000000081526004016121a390613bb8565b60405180910390fd5b806121d97f360894a13ba1a3210667c828492db98dca3e2076cc3735a920a3ca505d382bbc60001b612150565b60000160006101000a81548173ffffffffffffffffffffffffffffffffffffffff021916908373ffffffffffffffffffffffffffffffffffffffff16021790555050565b612226836122db565b6000825111806122335750805b1561224457612242838361232a565b505b505050565b600060019054906101000a900460ff16612298576040517f08c379a000000000000000000000000000000000000000000000000000000000815260040161228f90613c38565b60405180910390fd5b6122a86122a36122aa565b611d25565b565b600033905090565b60008151905060006a636f6e736f6c652e6c6f679050602083016000808483855afa5050505050565b6122e481612164565b8073ffffffffffffffffffffffffffffffffffffffff167fbc7cd75a20ee27fd9adebab32041f755214dbc6bffa90cc0225b39da2e5c2d3b60405160405180910390a250565b606061233583611bda565b612374576040517f08c379a000000000000000000000000000000000000000000000000000000000815260040161236b90613c18565b60405180910390fd5b6000808473ffffffffffffffffffffffffffffffffffffffff168460405161239c919061380e565b600060405180830381855af49150503d80600081146123d7576040519150601f19603f3d011682016040523d82523d6000602084013e6123dc565b606091505b50915091506124048282604051806060016040528060278152602001614ab66027913961240e565b9250505092915050565b6060831561241e57829050612429565b6124288383612430565b5b9392505050565b6000825111156124435781518083602001fd5b806040517f08c379a000000000000000000000000000000000000000000000000000000000815260040161247791906139a6565b60405180910390fd5b8280548282559060005260206000209081019282156124cf579160200282015b828111156124ce5782518290805190602001906124be9291906124e0565b50916020019190600101906124a0565b5b5090506124dc9190612566565b5090565b8280546124ec9061417b565b90600052602060002090601f01602090048101928261250e5760008555612555565b82601f1061252757805160ff1916838001178555612555565b82800160010185558215612555579182015b82811115612554578251825591602001919060010190612539565b5b509050612562919061258a565b5090565b5b80821115612586576000818161257d91906125a7565b50600101612567565b5090565b5b808211156125a357600081600090555060010161258b565b5090565b5080546125b39061417b565b6000825580601f106125c557506125e4565b601f0160209004906000526020600020908101906125e3919061258a565b5b50565b60006125fa6125f584613cf8565b613cd3565b9050808382526020820190508285602086028201111561261957600080fd5b60005b8581101561266357813567ffffffffffffffff81111561263b57600080fd5b8086016126488982612990565b8552602085019450602084019350505060018101905061261c565b5050509392505050565b600061268061267b84613d24565b613cd3565b905080838252602082019050828560c086028201111561269f57600080fd5b60005b858110156126cf57816126b58882612bc3565b845260208401935060c083019250506001810190506126a2565b5050509392505050565b60006126ec6126e784613d50565b613cd3565b9050808382526020820190508285602086028201111561270b57600080fd5b60005b8581101561273b57816127218882612c38565b84526020840193506020830192505060018101905061270e565b5050509392505050565b600061275861275384613d7c565b613cd3565b90508281526020810184848401111561277057600080fd5b61277b8482856140f0565b509392505050565b600061279661279184613dad565b613cd3565b9050828152602081018484840111156127ae57600080fd5b6127b98482856140f0565b509392505050565b6000813590506127d081614a32565b92915050565b600082601f8301126127e757600080fd5b81356127f78482602086016125e7565b91505092915050565b60008083601f84011261281257600080fd5b8235905067ffffffffffffffff81111561282b57600080fd5b6020830191508360c082028301111561284357600080fd5b9250929050565b600082601f83011261285b57600080fd5b813561286b84826020860161266d565b91505092915050565b600082601f83011261288557600080fd5b81516128958482602086016126d9565b91505092915050565b6000813590506128ad81614a49565b92915050565b6000815190506128c281614a49565b92915050565b6000813590506128d781614a60565b92915050565b60008083601f8401126128ef57600080fd5b8235905067ffffffffffffffff81111561290857600080fd5b60208301915083600182028301111561292057600080fd5b9250929050565b600082601f83011261293857600080fd5b8135612948848260208601612745565b91505092915050565b60008135905061296081614a77565b92915050565b60008135905061297581614a87565b92915050565b60008151905061298a81614a87565b92915050565b600082601f8301126129a157600080fd5b81356129b1848260208601612783565b91505092915050565b6000604082840312156129cc57600080fd5b6129d66040613cd3565b905060006129e684828501612c23565b60008301525060206129fa84828501612c23565b60208301525092915050565b600060c08284031215612a1857600080fd5b81905092915050565b600060c08284031215612a3357600080fd5b612a3d60c0613cd3565b90506000612a4d84828501612c23565b6000830152506020612a6184828501612c23565b6020830152506040612a7584828501612c23565b6040830152506060612a8984828501612c23565b6060830152506080612a9d84828501612c23565b60808301525060a0612ab184828501612c23565b60a08301525092915050565b600060608284031215612acf57600080fd5b612ad96060613cd3565b90506000612ae984828501612c23565b6000830152506020612afd84828501612c23565b6020830152506040612b1184828501612c23565b60408301525092915050565b60006101208284031215612b3057600080fd5b612b3a6080613cd3565b90506000612b4a84828501612966565b6000830152506020612b5e84828501612a21565b60208301525060e082013567ffffffffffffffff811115612b7e57600080fd5b612b8a8482850161284a565b60408301525061010082013567ffffffffffffffff811115612bab57600080fd5b612bb78482850161284a565b60608301525092915050565b600060c08284031215612bd557600080fd5b612bdf6060613cd3565b90506000612bef84828501612951565b6000830152506020612c03848285016129ba565b6020830152506060612c1784828501612abd565b60408301525092915050565b600081359050612c3281614a9e565b92915050565b600081519050612c4781614a9e565b92915050565b600060208284031215612c5f57600080fd5b6000612c6d848285016127c1565b91505092915050565b60008060408385031215612c8957600080fd5b6000612c97858286016127c1565b9250506020612ca8858286016127c1565b9150509250929050565b60008060008060808587031215612cc857600080fd5b6000612cd6878288016127c1565b9450506020612ce7878288016127c1565b935050604085013567ffffffffffffffff811115612d0457600080fd5b612d10878288016127d6565b9250506060612d2187828801612c23565b91505092959194509250565b60008060408385031215612d4057600080fd5b6000612d4e858286016127c1565b925050602083013567ffffffffffffffff811115612d6b57600080fd5b612d7785828601612927565b9150509250929050565b600060208284031215612d9357600080fd5b600082015167ffffffffffffffff811115612dad57600080fd5b612db984828501612874565b91505092915050565b600060208284031215612dd457600080fd5b6000612de28482850161289e565b91505092915050565b600060208284031215612dfd57600080fd5b6000612e0b848285016128b3565b91505092915050565b60008060408385031215612e2757600080fd5b6000612e358582860161289e565b9250506020612e4685828601612c23565b9150509250929050565b600060208284031215612e6257600080fd5b6000612e70848285016128c8565b91505092915050565b60008060008060408587031215612e8f57600080fd5b600085013567ffffffffffffffff811115612ea957600080fd5b612eb5878288016128dd565b9450945050602085013567ffffffffffffffff811115612ed457600080fd5b612ee0878288016128dd565b925092505092959194509250565b600060208284031215612f0057600080fd5b6000612f0e8482850161297b565b91505092915050565b6000806000806000806101208789031215612f3157600080fd5b6000612f3f89828a01612966565b9650506020612f5089828a01612a06565b95505060e087013567ffffffffffffffff811115612f6d57600080fd5b612f7989828a01612800565b945094505061010087013567ffffffffffffffff811115612f9957600080fd5b612fa589828a01612800565b92509250509295509295509295565b600060208284031215612fc657600080fd5b600082013567ffffffffffffffff811115612fe057600080fd5b612fec84828501612b1d565b91505092915050565b600060c0828403121561300757600080fd5b600061301584828501612bc3565b91505092915050565b60006020828403121561303057600080fd5b600061303e84828501612c23565b91505092915050565b60006020828403121561305957600080fd5b600061306784828501612c38565b91505092915050565b6000806040838503121561308357600080fd5b600061309185828601612c23565b92505060206130a285828601612c23565b9150509250929050565b600080600080606085870312156130c257600080fd5b60006130d087828801612c23565b94505060206130e187828801612c23565b935050604085013567ffffffffffffffff8111156130fe57600080fd5b61310a87828801612800565b925092505092959194509250565b60006131248383613340565b905092915050565b600061313883836137ae565b60c08301905092915050565b61314d81613fdc565b82525050565b600061315e82613e18565b6131688185613e5e565b93508360208202850161317a85613dde565b8060005b858110156131b5578484038952816131968582613118565b94506131a183613e44565b925060208a0199505060018101905061317e565b50829750879550505050505092915050565b60006131d282613e23565b6131dc8185613e6f565b93506131e783613df3565b8060005b838110156132185781516131ff888261312c565b975061320a83613e51565b9250506001810190506131eb565b5085935050505092915050565b61322e81613fee565b82525050565b61323d81613ffa565b82525050565b61324c81614004565b82525050565b600061325d82613e2e565b6132678185613e80565b93506132778185602086016140ff565b61328081614343565b840191505092915050565b600061329682613e2e565b6132a08185613e91565b93506132b08185602086016140ff565b80840191505092915050565b6132c581614084565b82525050565b6132d4816140a8565b82525050565b6132e3816140cc565b82525050565b6132f281614043565b82525050565b613301816140de565b82525050565b600061331282613e39565b61331c8185613ead565b935061332c8185602086016140ff565b61333581614343565b840191505092915050565b6000815461334d8161417b565b6133578186613e9c565b945060018216600081146133725760018114613384576133b7565b60ff19831686526020860193506133b7565b61338d85613e03565b60005b838110156133af57815481890152600182019150602081019050613390565b808801955050505b50505092915050565b60006133cd602d83613ead565b91506133d882614354565b604082019050919050565b60006133f0602e83613ead565b91506133fb826143a3565b604082019050919050565b6000613413603783613ead565b915061341e826143f2565b604082019050919050565b6000613436602683613ead565b915061344182614441565b604082019050919050565b6000613459602983613ead565b915061346482614490565b604082019050919050565b600061347c602c83613ead565b9150613487826144df565b604082019050919050565b600061349f602c83613ead565b91506134aa8261452e565b604082019050919050565b60006134c2603883613ead565b91506134cd8261457d565b604082019050919050565b60006134e5602983613ead565b91506134f0826145cc565b604082019050919050565b6000613508604d83613ead565b91506135138261461b565b606082019050919050565b600061352b602e83613ead565b915061353682614690565b604082019050919050565b600061354e602383613ead565b9150613559826146df565b604082019050919050565b6000613571602e83613ead565b915061357c8261472e565b604082019050919050565b6000613594603083613ead565b915061359f8261477d565b604082019050919050565b60006135b7602d83613ead565b91506135c2826147cc565b604082019050919050565b60006135da602083613ead565b91506135e58261481b565b602082019050919050565b60006135fd602e83613ead565b915061360882614844565b604082019050919050565b6000613620602683613ead565b915061362b82614893565b604082019050919050565b6000613643602b83613ead565b915061364e826148e2565b604082019050919050565b6000613666602a83613ead565b915061367182614931565b604082019050919050565b6000613689603383613ead565b915061369482614980565b604082019050919050565b60006136ac603383613ead565b91506136b7826149cf565b604082019050919050565b6040820160008201516136d860008501826137f0565b5060208201516136eb60208501826137f0565b50505050565b60c08201600082015161370760008501826137f0565b50602082015161371a60208501826137f0565b50604082015161372d60408501826137f0565b50606082015161374060608501826137f0565b50608082015161375360808501826137f0565b5060a082015161376660a08501826137f0565b50505050565b60608201600082015161378260008501826137f0565b50602082015161379560208501826137f0565b5060408201516137a860408501826137f0565b50505050565b60c0820160008201516137c460008501826132da565b5060208201516137d760208501826136c2565b5060408201516137ea606085018261376c565b50505050565b6137f98161406d565b82525050565b6138088161406d565b82525050565b600061381a828461328b565b915081905092915050565b600060208201905061383a6000830184613144565b92915050565b600060a0820190506138556000830188613144565b81810360208301526138678187613153565b9050818103604083015261387b8186613252565b905061388a6060830185613243565b818103608083015261389c8184613252565b90509695505050505050565b60006020820190506138bd6000830184613225565b92915050565b60006020820190506138d86000830184613234565b92915050565b600060208201905081810360008301526138f88184613252565b905092915050565b600060208201905061391560008301846132bc565b92915050565b600060208201905061393060008301846132cb565b92915050565b60006101208201905061394c60008301876132e9565b61395960208301866136f1565b81810360e083015261396b81856131c7565b905081810361010083015261398081846131c7565b905095945050505050565b60006020820190506139a060008301846132f8565b92915050565b600060208201905081810360008301526139c08184613307565b905092915050565b600060408201905081810360008301526139e28185613307565b90506139f160208301846137ff565b9392505050565b60006020820190508181036000830152613a11816133c0565b9050919050565b60006020820190508181036000830152613a31816133e3565b9050919050565b60006020820190508181036000830152613a5181613406565b9050919050565b60006020820190508181036000830152613a7181613429565b9050919050565b60006020820190508181036000830152613a918161344c565b9050919050565b60006020820190508181036000830152613ab18161346f565b9050919050565b60006020820190508181036000830152613ad181613492565b9050919050565b60006020820190508181036000830152613af1816134b5565b9050919050565b60006020820190508181036000830152613b11816134d8565b9050919050565b60006020820190508181036000830152613b31816134fb565b9050919050565b60006020820190508181036000830152613b518161351e565b9050919050565b60006020820190508181036000830152613b7181613541565b9050919050565b60006020820190508181036000830152613b9181613564565b9050919050565b60006020820190508181036000830152613bb181613587565b9050919050565b60006020820190508181036000830152613bd1816135aa565b9050919050565b60006020820190508181036000830152613bf1816135cd565b9050919050565b60006020820190508181036000830152613c11816135f0565b9050919050565b60006020820190508181036000830152613c3181613613565b9050919050565b60006020820190508181036000830152613c5181613636565b9050919050565b60006020820190508181036000830152613c7181613659565b9050919050565b60006020820190508181036000830152613c918161367c565b9050919050565b60006020820190508181036000830152613cb18161369f565b9050919050565b6000602082019050613ccd60008301846137ff565b92915050565b6000613cdd613cee565b9050613ce982826141ad565b919050565b6000604051905090565b600067ffffffffffffffff821115613d1357613d12614314565b5b602082029050602081019050919050565b600067ffffffffffffffff821115613d3f57613d3e614314565b5b602082029050602081019050919050565b600067ffffffffffffffff821115613d6b57613d6a614314565b5b602082029050602081019050919050565b600067ffffffffffffffff821115613d9757613d96614314565b5b613da082614343565b9050602081019050919050565b600067ffffffffffffffff821115613dc857613dc7614314565b5b613dd182614343565b9050602081019050919050565b60008190508160005260206000209050919050565b6000819050602082019050919050565b60008190508160005260206000209050919050565b600081549050919050565b600081519050919050565b600081519050919050565b600081519050919050565b6000600182019050919050565b6000602082019050919050565b600082825260208201905092915050565b600082825260208201905092915050565b600082825260208201905092915050565b600081905092915050565b600082825260208201905092915050565b600082825260208201905092915050565b6000613ec98261406d565b9150613ed48361406d565b9250827fffffffffffffffffffffffffffffffffffffffffffffffffffffffffffffffff03821115613f0957613f08614258565b5b828201905092915050565b6000613f1f82614043565b9150613f2a83614043565b9250827f800000000000000000000000000000000000000000000000000000000000000001821260008412151615613f6557613f64614258565b5b827f7fffffffffffffffffffffffffffffffffffffffffffffffffffffffffffffff018213600084121615613f9d57613f9c614258565b5b828203905092915050565b6000613fb38261406d565b9150613fbe8361406d565b925082821015613fd157613fd0614258565b5b828203905092915050565b6000613fe78261404d565b9050919050565b60008115159050919050565b6000819050919050565b60007fffffffff0000000000000000000000000000000000000000000000000000000082169050919050565b600081905061403e82614a1e565b919050565b6000819050919050565b600073ffffffffffffffffffffffffffffffffffffffff82169050919050565b6000819050919050565b600060ff82169050919050565b600061408f82614096565b9050919050565b60006140a18261404d565b9050919050565b60006140b3826140ba565b9050919050565b60006140c58261404d565b9050919050565b60006140d782614030565b9050919050565b60006140e982614077565b9050919050565b82818337600083830152505050565b60005b8381101561411d578082015181840152602081019050614102565b8381111561412c576000848401525b50505050565b600061413d82614043565b91507f80000000000000000000000000000000000000000000000000000000000000008214156141705761416f614258565b5b600182039050919050565b6000600282049050600182168061419357607f821691505b602082108114156141a7576141a66142e5565b5b50919050565b6141b682614343565b810181811067ffffffffffffffff821117156141d5576141d4614314565b5b80604052505050565b60006141e98261406d565b91507fffffffffffffffffffffffffffffffffffffffffffffffffffffffffffffffff82141561421c5761421b614258565b5b600182019050919050565b60006142328261406d565b915061423d8361406d565b92508261424d5761424c614287565b5b828206905092915050565b7f4e487b7100000000000000000000000000000000000000000000000000000000600052601160045260246000fd5b7f4e487b7100000000000000000000000000000000000000000000000000000000600052601260045260246000fd5b7f4e487b7100000000000000000000000000000000000000000000000000000000600052602160045260246000fd5b7f4e487b7100000000000000000000000000000000000000000000000000000000600052602260045260246000fd5b7f4e487b7100000000000000000000000000000000000000000000000000000000600052604160045260246000fd5b6000601f19601f8301169050919050565b7f73746f726167652070726f6f6673206d75737420686176652061746c6561737460008201527f206f6e6520656c656d656e742100000000000000000000000000000000000000602082015250565b7f7374617465726f6f742068617368206973206e6f74206665746368656420707260008201527f6f7065726c792120726576657274000000000000000000000000000000000000602082015250565b7f626c6f636b206e756d62657220646f65736e2774206d6174636820776974682060008201527f737461726b6e657420636f726520636f6e747261637421000000000000000000602082015250565b7f4f776e61626c653a206e6577206f776e657220697320746865207a65726f206160008201527f6464726573730000000000000000000000000000000000000000000000000000602082015250565b7f6861736865732072657475726e6564206c656e677468206973206c657373207460008201527f68616e207a65726f210000000000000000000000000000000000000000000000602082015250565b7f46756e6374696f6e206d7573742062652063616c6c6564207468726f7567682060008201527f64656c656761746563616c6c0000000000000000000000000000000000000000602082015250565b7f46756e6374696f6e206d7573742062652063616c6c6564207468726f7567682060008201527f6163746976652070726f78790000000000000000000000000000000000000000602082015250565b7f555550535570677261646561626c653a206d757374206e6f742062652063616c60008201527f6c6564207468726f7567682064656c656761746563616c6c0000000000000000602082015250565b7f45524331393637557067726164653a20756e737570706f727465642070726f7860008201527f6961626c65555549440000000000000000000000000000000000000000000000602082015250565b7f496e76616c69642070726f6f662c20706f74656e7469616c6c7920612070726f60008201527f6f6620666f72206120646966666572656e742073746f72616765207661722f2060208201527f6e6f6e20696e636c7573696f6e00000000000000000000000000000000000000604082015250565b7f496e697469616c697a61626c653a20636f6e747261637420697320616c72656160008201527f647920696e697469616c697a6564000000000000000000000000000000000000602082015250565b7f68617368657320646f6e2774206d617463682e20696e76616c6964207374617460008201527f6573210000000000000000000000000000000000000000000000000000000000602082015250565b7f45524331393637557067726164653a206e657720696d706c656d656e7461746960008201527f6f6e206973206e6f742055555053000000000000000000000000000000000000602082015250565b7f6c656e677468206f662070726f6f66206d69736d6174636865642c20696e766160008201527f6c69642070726f6f662073697a65212100000000000000000000000000000000602082015250565b7f455243313936373a206e657720696d706c656d656e746174696f6e206973206e60008201527f6f74206120636f6e747261637400000000000000000000000000000000000000602082015250565b7f4f776e61626c653a2063616c6c6572206973206e6f7420746865206f776e6572600082015250565b7f636f6e74726163742070726f6f6673206d75737420686176652061746c65617360008201527f74206f6e6520656c656d656e7421000000000000000000000000000000000000602082015250565b7f416464726573733a2064656c65676174652063616c6c20746f206e6f6e2d636f60008201527f6e74726163740000000000000000000000000000000000000000000000000000602082015250565b7f496e697469616c697a61626c653a20636f6e7472616374206973206e6f74206960008201527f6e697469616c697a696e67000000000000000000000000000000000000000000602082015250565b7f70726f6f66206172726179206d75737420686176652061746c65617374206f6e60008201527f6520656c656d656e742e00000000000000000000000000000000000000000000602082015250565b7f68617368206d69736d6174636820666f756e64212120696e76616c696420707260008201527f6f6f66207061746820726576657274696e672e00000000000000000000000000602082015250565b7f6661696c656420746f20666574636820737461726b6e657420636f726520636f60008201527f6e747261637420737461746520626c6f636b2100000000000000000000000000602082015250565b60028110614a2f57614a2e6142b6565b5b50565b614a3b81613fdc565b8114614a4657600080fd5b50565b614a5281613ffa565b8114614a5d57600080fd5b50565b614a6981614004565b8114614a7457600080fd5b50565b60028110614a8457600080fd5b50565b614a9081614043565b8114614a9b57600080fd5b50565b614aa78161406d565b8114614ab257600080fd5b5056fe416464726573733a206c6f772d6c6576656c2064656c65676174652063616c6c206661696c6564a264697066735822122066187cab0d31d564417aa07793ece22da99b016c53405b460c147c9457a2084864736f6c63430008040033",
  "linkReferences": {},
  "deployedLinkReferences": {}
}