{
  "_format": "hh-sol-artifact-1",
  "contractName": "SNResolverStub",
  "sourceName": "contracts/SNResolverStub.sol",
  "abi": [
    {
      "inputs": [],
      "stateMutability": "nonpayable",
      "type": "constructor"
    },
    {
      "inputs": [
        {
          "internalType": "address",
          "name": "sender",
          "type": "address"
        },
        {
          "internalType": "string[]",
          "name": "urls",
          "type": "string[]"
        },
        {
          "internalType": "bytes",
          "name": "callData",
          "type": "bytes"
        },
        {
          "internalType": "bytes4",
          "name": "callbackFunction",
          "type": "bytes4"
        },
        {
          "internalType": "bytes",
          "name": "extraData",
          "type": "bytes"
        }
      ],
      "name": "OffchainLookup",
      "type": "error"
    },
    {
      "anonymous": false,
      "inputs": [
        {
          "indexed": false,
          "internalType": "address",
          "name": "previousAdmin",
          "type": "address"
        },
        {
          "indexed": false,
          "internalType": "address",
          "name": "newAdmin",
          "type": "address"
        }
      ],
      "name": "AdminChanged",
      "type": "event"
    },
    {
      "anonymous": false,
      "inputs": [
        {
          "indexed": true,
          "internalType": "address",
          "name": "beacon",
          "type": "address"
        }
      ],
      "name": "BeaconUpgraded",
      "type": "event"
    },
    {
      "anonymous": false,
      "inputs": [
        {
          "indexed": false,
          "internalType": "uint8",
          "name": "version",
          "type": "uint8"
        }
      ],
      "name": "Initialized",
      "type": "event"
    },
    {
      "anonymous": false,
      "inputs": [
        {
          "indexed": true,
          "internalType": "address",
          "name": "previousOwner",
          "type": "address"
        },
        {
          "indexed": true,
          "internalType": "address",
          "name": "newOwner",
          "type": "address"
        }
      ],
      "name": "OwnershipTransferred",
      "type": "event"
    },
    {
      "anonymous": false,
      "inputs": [
        {
          "indexed": true,
          "internalType": "address",
          "name": "implementation",
          "type": "address"
        }
      ],
      "name": "Upgraded",
      "type": "event"
    },
    {
      "inputs": [
        {
          "internalType": "bytes32",
          "name": "node",
          "type": "bytes32"
        }
      ],
      "name": "addr",
      "outputs": [
        {
          "internalType": "address",
          "name": "",
          "type": "address"
        }
      ],
      "stateMutability": "view",
      "type": "function"
    },
    {
      "inputs": [
        {
          "internalType": "bytes32",
          "name": "node",
          "type": "bytes32"
        },
        {
          "internalType": "uint256",
          "name": "coinType",
          "type": "uint256"
        }
      ],
      "name": "addr",
      "outputs": [
        {
          "internalType": "bytes",
          "name": "",
          "type": "bytes"
        }
      ],
      "stateMutability": "view",
      "type": "function"
    },
    {
      "inputs": [
        {
          "internalType": "bytes",
          "name": "response",
          "type": "bytes"
        },
        {
          "internalType": "bytes",
          "name": "extraData",
          "type": "bytes"
        }
      ],
      "name": "bytesAddrWithProof",
      "outputs": [
        {
          "internalType": "bytes",
          "name": "",
          "type": "bytes"
        }
      ],
      "stateMutability": "view",
      "type": "function"
    },
    {
      "inputs": [
        {
          "internalType": "uint256",
          "name": "",
          "type": "uint256"
        }
      ],
      "name": "gateways",
      "outputs": [
        {
          "internalType": "string",
          "name": "",
          "type": "string"
        }
      ],
      "stateMutability": "view",
      "type": "function"
    },
    {
      "inputs": [],
      "name": "getl2Resolver",
      "outputs": [
        {
          "internalType": "uint256",
          "name": "",
          "type": "uint256"
        }
      ],
      "stateMutability": "view",
      "type": "function"
    },
    {
      "inputs": [
        {
          "internalType": "uint256",
          "name": "a",
          "type": "uint256"
        },
        {
          "internalType": "uint256",
          "name": "b",
          "type": "uint256"
        }
      ],
      "name": "hash",
      "outputs": [
        {
          "internalType": "uint256",
          "name": "",
          "type": "uint256"
        }
      ],
      "stateMutability": "view",
      "type": "function"
    },
    {
      "inputs": [
        {
          "internalType": "address",
          "name": "pedersenAddress",
          "type": "address"
        },
        {
          "internalType": "address",
          "name": "poseidonAddress",
          "type": "address"
        },
        {
          "internalType": "address",
          "name": "_starknetCoreContractAddress",
          "type": "address"
        },
        {
          "internalType": "string[]",
          "name": "_gateways",
          "type": "string[]"
        },
        {
          "internalType": "uint256",
          "name": "_l2resolver",
          "type": "uint256"
        }
      ],
      "name": "initialize",
      "outputs": [],
      "stateMutability": "nonpayable",
      "type": "function"
    },
    {
      "inputs": [
        {
          "internalType": "address",
          "name": "pedersenAddress",
          "type": "address"
        },
        {
          "internalType": "address",
          "name": "poseidonAddress",
          "type": "address"
        },
        {
          "internalType": "address",
          "name": "_starknetCoreContractAddress",
          "type": "address"
        }
      ],
      "name": "initialize",
      "outputs": [],
      "stateMutability": "nonpayable",
      "type": "function"
    },
    {
      "inputs": [],
      "name": "l2resolver",
      "outputs": [
        {
          "internalType": "uint256",
          "name": "",
          "type": "uint256"
        }
      ],
      "stateMutability": "view",
      "type": "function"
    },
    {
      "inputs": [],
      "name": "owner",
      "outputs": [
        {
          "internalType": "address",
          "name": "",
          "type": "address"
        }
      ],
      "stateMutability": "view",
      "type": "function"
    },
    {
      "inputs": [],
      "name": "pedersen",
      "outputs": [
        {
          "internalType": "contract PedersenHash",
          "name": "",
          "type": "address"
        }
      ],
      "stateMutability": "view",
      "type": "function"
    },
    {
      "inputs": [],
      "name": "poseidon",
      "outputs": [
        {
          "internalType": "contract PoseidonHash3",
          "name": "",
          "type": "address"
        }
      ],
      "stateMutability": "view",
      "type": "function"
    },
    {
      "inputs": [
        {
          "internalType": "uint256[]",
          "name": "elems",
          "type": "uint256[]"
        }
      ],
      "name": "poseidonHashMany",
      "outputs": [
        {
          "internalType": "uint256",
          "name": "",
          "type": "uint256"
        }
      ],
      "stateMutability": "view",
      "type": "function"
    },
    {
      "inputs": [],
      "name": "proxiableUUID",
      "outputs": [
        {
          "internalType": "bytes32",
          "name": "",
          "type": "bytes32"
        }
      ],
      "stateMutability": "view",
      "type": "function"
    },
    {
      "inputs": [],
      "name": "renounceOwnership",
      "outputs": [],
      "stateMutability": "nonpayable",
      "type": "function"
    },
    {
      "inputs": [],
      "name": "starknetCoreContract",
      "outputs": [
        {
          "internalType": "contract StarknetCoreContract",
          "name": "",
          "type": "address"
        }
      ],
      "stateMutability": "view",
      "type": "function"
    },
    {
      "inputs": [
        {
          "internalType": "bytes4",
          "name": "interfaceID",
          "type": "bytes4"
        }
      ],
      "name": "supportsInterface",
      "outputs": [
        {
          "internalType": "bool",
          "name": "",
          "type": "bool"
        }
      ],
      "stateMutability": "pure",
      "type": "function"
    },
    {
      "inputs": [
        {
          "internalType": "address",
          "name": "newOwner",
          "type": "address"
        }
      ],
      "name": "transferOwnership",
      "outputs": [],
      "stateMutability": "nonpayable",
      "type": "function"
    },
    {
      "inputs": [
        {
          "internalType": "address",
          "name": "newImplementation",
          "type": "address"
        }
      ],
      "name": "upgradeTo",
      "outputs": [],
      "stateMutability": "nonpayable",
      "type": "function"
    },
    {
      "inputs": [
        {
          "internalType": "address",
          "name": "newImplementation",
          "type": "address"
        },
        {
          "internalType": "bytes",
          "name": "data",
          "type": "bytes"
        }
      ],
      "name": "upgradeToAndCall",
      "outputs": [],
      "stateMutability": "payable",
      "type": "function"
    },
    {
      "inputs": [
        {
          "internalType": "int256",
          "name": "blockNumber",
          "type": "int256"
        },
        {
          "internalType": "uint256",
          "name": "classCommitment",
          "type": "uint256"
        },
        {
          "components": [
            {
              "internalType": "uint256",
              "name": "contractStateRoot",
              "type": "uint256"
            },
            {
              "internalType": "uint256",
              "name": "contractAddress",
              "type": "uint256"
            },
            {
              "internalType": "uint256",
              "name": "storageVarAddress",
              "type": "uint256"
            },
            {
              "internalType": "uint256",
              "name": "classHash",
              "type": "uint256"
            },
            {
              "internalType": "uint256",
              "name": "hashVersion",
              "type": "uint256"
            },
            {
              "internalType": "uint256",
              "name": "nonce",
              "type": "uint256"
            }
          ],
          "internalType": "struct ContractData",
          "name": "contractData",
          "type": "tuple"
        },
        {
          "components": [
            {
              "internalType": "enum NodeType",
              "name": "nodeType",
              "type": "uint8"
            },
            {
              "components": [
                {
                  "internalType": "uint256",
                  "name": "leftHash",
                  "type": "uint256"
                },
                {
                  "internalType": "uint256",
                  "name": "rightHash",
                  "type": "uint256"
                }
              ],
              "internalType": "struct BinaryProof",
              "name": "binaryProof",
              "type": "tuple"
            },
            {
              "components": [
                {
                  "internalType": "uint256",
                  "name": "childHash",
                  "type": "uint256"
                },
                {
                  "internalType": "uint256",
                  "name": "path",
                  "type": "uint256"
                },
                {
                  "internalType": "uint256",
                  "name": "length",
                  "type": "uint256"
                }
              ],
              "internalType": "struct EdgeProof",
              "name": "edgeProof",
              "type": "tuple"
            }
          ],
          "internalType": "struct StarknetProof[]",
          "name": "contractProofArray",
          "type": "tuple[]"
        },
        {
          "components": [
            {
              "internalType": "enum NodeType",
              "name": "nodeType",
              "type": "uint8"
            },
            {
              "components": [
                {
                  "internalType": "uint256",
                  "name": "leftHash",
                  "type": "uint256"
                },
                {
                  "internalType": "uint256",
                  "name": "rightHash",
                  "type": "uint256"
                }
              ],
              "internalType": "struct BinaryProof",
              "name": "binaryProof",
              "type": "tuple"
            },
            {
              "components": [
                {
                  "internalType": "uint256",
                  "name": "childHash",
                  "type": "uint256"
                },
                {
                  "internalType": "uint256",
                  "name": "path",
                  "type": "uint256"
                },
                {
                  "internalType": "uint256",
                  "name": "length",
                  "type": "uint256"
                }
              ],
              "internalType": "struct EdgeProof",
              "name": "edgeProof",
              "type": "tuple"
            }
          ],
          "internalType": "struct StarknetProof[]",
          "name": "storageProofArray",
          "type": "tuple[]"
        }
      ],
      "name": "verifiedStorageValue",
      "outputs": [
        {
          "internalType": "uint256",
          "name": "value",
          "type": "uint256"
        }
      ],
      "stateMutability": "view",
      "type": "function"
    },
    {
      "inputs": [
        {
          "internalType": "uint256",
          "name": "rootHash",
          "type": "uint256"
        },
        {
          "internalType": "uint256",
          "name": "path",
          "type": "uint256"
        },
        {
          "components": [
            {
              "internalType": "enum NodeType",
              "name": "nodeType",
              "type": "uint8"
            },
            {
              "components": [
                {
                  "internalType": "uint256",
                  "name": "leftHash",
                  "type": "uint256"
                },
                {
                  "internalType": "uint256",
                  "name": "rightHash",
                  "type": "uint256"
                }
              ],
              "internalType": "struct BinaryProof",
              "name": "binaryProof",
              "type": "tuple"
            },
            {
              "components": [
                {
                  "internalType": "uint256",
                  "name": "childHash",
                  "type": "uint256"
                },
                {
                  "internalType": "uint256",
                  "name": "path",
                  "type": "uint256"
                },
                {
                  "internalType": "uint256",
                  "name": "length",
                  "type": "uint256"
                }
              ],
              "internalType": "struct EdgeProof",
              "name": "edgeProof",
              "type": "tuple"
            }
          ],
          "internalType": "struct StarknetProof[]",
          "name": "proofArray",
          "type": "tuple[]"
        },
        {
          "internalType": "uint256",
          "name": "classCommitment",
          "type": "uint256"
        }
      ],
      "name": "verifyProof",
      "outputs": [
        {
          "internalType": "uint256",
          "name": "value",
          "type": "uint256"
        }
      ],
      "stateMutability": "view",
      "type": "function"
    },
    {
      "inputs": [
        {
          "internalType": "uint256",
          "name": "rootHash",
          "type": "uint256"
        },
        {
          "internalType": "uint256",
          "name": "path",
          "type": "uint256"
        },
        {
          "components": [
            {
              "internalType": "enum NodeType",
              "name": "nodeType",
              "type": "uint8"
            },
            {
              "components": [
                {
                  "internalType": "uint256",
                  "name": "leftHash",
                  "type": "uint256"
                },
                {
                  "internalType": "uint256",
                  "name": "rightHash",
                  "type": "uint256"
                }
              ],
              "internalType": "struct BinaryProof",
              "name": "binaryProof",
              "type": "tuple"
            },
            {
              "components": [
                {
                  "internalType": "uint256",
                  "name": "childHash",
                  "type": "uint256"
                },
                {
                  "internalType": "uint256",
                  "name": "path",
                  "type": "uint256"
                },
                {
                  "internalType": "uint256",
                  "name": "length",
                  "type": "uint256"
                }
              ],
              "internalType": "struct EdgeProof",
              "name": "edgeProof",
              "type": "tuple"
            }
          ],
          "internalType": "struct StarknetProof[]",
          "name": "proofArray",
          "type": "tuple[]"
        }
      ],
      "name": "verifyStorageProof",
      "outputs": [
        {
          "internalType": "uint256",
          "name": "value",
          "type": "uint256"
        }
      ],
      "stateMutability": "view",
      "type": "function"
    }
  ],
  "bytecode": "0x60a06040523073ffffffffffffffffffffffffffffffffffffffff1660809073ffffffffffffffffffffffffffffffffffffffff1660601b8152503480156200004757600080fd5b50620000586200006e60201b60201c565b620000686200006e60201b60201c565b62000219565b600060019054906101000a900460ff1615620000c1576040517f08c379a0000000000000000000000000000000000000000000000000000000008152600401620000b8906200016d565b60405180910390fd5b60ff801660008054906101000a900460ff1660ff161015620001335760ff6000806101000a81548160ff021916908360ff1602179055507f7f26b83ff96e1f2b6a682f133852f6798a09c465da95921460cefb384740249860ff6040516200012a91906200018f565b60405180910390a15b565b600062000144602783620001ac565b91506200015182620001ca565b604082019050919050565b6200016781620001bd565b82525050565b60006020820190508181036000830152620001888162000135565b9050919050565b6000602082019050620001a660008301846200015c565b92915050565b600082825260208201905092915050565b600060ff82169050919050565b7f496e697469616c697a61626c653a20636f6e747261637420697320696e69746960008201527f616c697a696e6700000000000000000000000000000000000000000000000000602082015250565b60805160601c6158466200025460003960008181610c2001528181610caf01528181610de901528181610e780152610f2801526158466000f3fe6080604052600436106101405760003560e01c8063716de6db116100b6578063a78dac0d1161006f578063a78dac0d14610489578063c0c53b8b146104c6578063c57601db146104ef578063c62b919e1461051a578063f1cb7e0614610545578063f2fde38b1461058257610140565b8063716de6db146103515780637a1dc0701461038e57806388083d50146103b95780638da5cb5b146103e4578063a22aed081461040f578063a39e8b451461044c57610140565b80633659cfe6116101085780633659cfe6146102505780633b3b57de146102795780634f1ef286146102b657806352d1902d146102d257806364c17056146102fd578063715018a61461033a57610140565b806301ffc9a7146101455780630437c38f146101825780630cfe46e6146101bf5780631c604e14146101fc5780633276d9ff14610225575b600080fd5b34801561015157600080fd5b5061016c600480360381019061016791906138fc565b6105ab565b60405161017991906144a6565b60405180910390f35b34801561018e57600080fd5b506101a960048036038101906101a491906139c3565b61064b565b6040516101b69190614900565b60405180910390f35b3480156101cb57600080fd5b506101e660048036038101906101e19190613925565b610a64565b6040516101f391906144dc565b60405180910390f35b34801561020857600080fd5b50610223600480360381019061021e91906136e0565b610a84565b005b34801561023157600080fd5b5061023a610bf8565b60405161024791906144fe565b60405180910390f35b34801561025c57600080fd5b5061027760048036038101906102729190613668565b610c1e565b005b34801561028557600080fd5b506102a0600480360381019061029b919061386e565b610dcd565b6040516102ad9190614408565b60405180910390f35b6102d060048036038101906102cb919061376f565b610de7565b005b3480156102de57600080fd5b506102e7610f24565b6040516102f491906144c1565b60405180910390f35b34801561030957600080fd5b50610324600480360381019061031f9190613ae0565b610fdd565b60405161033191906145ce565b60405180910390f35b34801561034657600080fd5b5061034f611089565b005b34801561035d57600080fd5b5061037860048036038101906103739190613bda565b61109d565b6040516103859190614900565b60405180910390f35b34801561039a57600080fd5b506103a361159f565b6040516103b09190614900565b60405180910390f35b3480156103c557600080fd5b506103ce6115a5565b6040516103db9190614900565b60405180910390f35b3480156103f057600080fd5b506103f96115af565b6040516104069190614408565b60405180910390f35b34801561041b57600080fd5b50610436600480360381019061043191906137ec565b6115d9565b6040516104439190614900565b60405180910390f35b34801561045857600080fd5b50610473600480360381019061046e9190613b6e565b611b9c565b6040516104809190614900565b60405180910390f35b34801561049557600080fd5b506104b060048036038101906104ab9190613b32565b611bb6565b6040516104bd9190614900565b60405180910390f35b3480156104d257600080fd5b506104ed60048036038101906104e89190613691565b611d03565b005b3480156104fb57600080fd5b50610504611f0f565b6040516105119190614534565b60405180910390f35b34801561052657600080fd5b5061052f611f35565b60405161053c9190614519565b60405180910390f35b34801561055157600080fd5b5061056c600480360381019061056791906138c0565b611f5b565b60405161057991906144dc565b60405180910390f35b34801561058e57600080fd5b506105a960048036038101906105a49190613668565b611fc3565b005b6000633b3b57de60e01b7bffffffffffffffffffffffffffffffffffffffffffffffffffffffff1916827bffffffffffffffffffffffffffffffffffffffffffffffffffffffff19161480610644575063f1cb7e0660e01b7bffffffffffffffffffffffffffffffffffffffffffffffffffffffff1916827bffffffffffffffffffffffffffffffffffffffffffffffffffffffff1916145b9050919050565b600061072b6040518060400160405280600981526020017f7374617465526f6f74000000000000000000000000000000000000000000000081525060cb60009054906101000a900473ffffffffffffffffffffffffffffffffffffffff1673ffffffffffffffffffffffffffffffffffffffff16639588eca26040518163ffffffff1660e01b815260040160206040518083038186803b1580156106ee57600080fd5b505afa158015610702573d6000803e3d6000fd5b505050506040513d601f19601f820116820180604052508101906107269190613b09565b612047565b600060cb60009054906101000a900473ffffffffffffffffffffffffffffffffffffffff1673ffffffffffffffffffffffffffffffffffffffff166335befa5d6040518163ffffffff1660e01b815260040160206040518083038186803b15801561079557600080fd5b505afa1580156107a9573d6000803e3d6000fd5b505050506040513d601f19601f820116820180604052508101906107cd919061399a565b905060008686905011610815576040517f08c379a000000000000000000000000000000000000000000000000000000000815260040161080c90614840565b60405180910390fd5b6000848490501161085b576040517f08c379a000000000000000000000000000000000000000000000000000000000815260040161085290614620565b60405180910390fd5b6000811361089e576040517f08c379a0000000000000000000000000000000000000000000000000000000008152600401610895906148e0565b60405180910390fd5b8089146108e0576040517f08c379a00000000000000000000000000000000000000000000000000000000081526004016108d790614660565b60405180910390fd5b60006108fe886060013589600001358a60a001358b608001356120e3565b9050600061091689600001358a604001358888611b9c565b9050600082141561095c576040517f08c379a000000000000000000000000000000000000000000000000000000000815260040161095390614640565b60405180910390fd5b6000610a0e60cb60009054906101000a900473ffffffffffffffffffffffffffffffffffffffff1673ffffffffffffffffffffffffffffffffffffffff16639588eca26040518163ffffffff1660e01b815260040160206040518083038186803b1580156109c957600080fd5b505afa1580156109dd573d6000803e3d6000fd5b505050506040513d601f19601f82011682018060405250810190610a019190613b09565b8b602001358b8b8f61109d565b9050808314610a52576040517f08c379a0000000000000000000000000000000000000000000000000000000008152600401610a49906147a0565b60405180910390fd5b81945050505050979650505050505050565b6060610a7a610a7586868686612110565b61221d565b9050949350505050565b60008060019054906101000a900460ff16159050808015610ab55750600160008054906101000a900460ff1660ff16105b80610ae25750610ac4306122a0565b158015610ae15750600160008054906101000a900460ff1660ff16145b5b610b21576040517f08c379a0000000000000000000000000000000000000000000000000000000008152600401610b1890614780565b60405180910390fd5b60016000806101000a81548160ff021916908360ff1602179055508015610b5e576001600060016101000a81548160ff0219169083151502179055505b610b69868686611d03565b8260cc9080519060200190610b7f929190612d66565b508160cd81905550610b8f6122c3565b610b9761231c565b8015610bf05760008060016101000a81548160ff0219169083151502179055507f7f26b83ff96e1f2b6a682f133852f6798a09c465da95921460cefb38474024986001604051610be791906145b3565b60405180910390a15b505050505050565b60c960009054906101000a900473ffffffffffffffffffffffffffffffffffffffff1681565b7f000000000000000000000000000000000000000000000000000000000000000073ffffffffffffffffffffffffffffffffffffffff163073ffffffffffffffffffffffffffffffffffffffff161415610cad576040517f08c379a0000000000000000000000000000000000000000000000000000000008152600401610ca4906146c0565b60405180910390fd5b7f000000000000000000000000000000000000000000000000000000000000000073ffffffffffffffffffffffffffffffffffffffff16610cec61236d565b73ffffffffffffffffffffffffffffffffffffffff1614610d42576040517f08c379a0000000000000000000000000000000000000000000000000000000008152600401610d39906146e0565b60405180910390fd5b610d4b816123c4565b610dca81600067ffffffffffffffff811115610d90577f4e487b7100000000000000000000000000000000000000000000000000000000600052604160045260246000fd5b6040519080825280601f01601f191660200182016040528015610dc25781602001600182028036833780820191505090505b5060006123cf565b50565b6000610de082630cfe46e660e01b61254c565b9050919050565b7f000000000000000000000000000000000000000000000000000000000000000073ffffffffffffffffffffffffffffffffffffffff163073ffffffffffffffffffffffffffffffffffffffff161415610e76576040517f08c379a0000000000000000000000000000000000000000000000000000000008152600401610e6d906146c0565b60405180910390fd5b7f000000000000000000000000000000000000000000000000000000000000000073ffffffffffffffffffffffffffffffffffffffff16610eb561236d565b73ffffffffffffffffffffffffffffffffffffffff1614610f0b576040517f08c379a0000000000000000000000000000000000000000000000000000000008152600401610f02906146e0565b60405180910390fd5b610f14826123c4565b610f20828260016123cf565b5050565b60007f000000000000000000000000000000000000000000000000000000000000000073ffffffffffffffffffffffffffffffffffffffff163073ffffffffffffffffffffffffffffffffffffffff1614610fb4576040517f08c379a0000000000000000000000000000000000000000000000000000000008152600401610fab90614700565b60405180910390fd5b7f360894a13ba1a3210667c828492db98dca3e2076cc3735a920a3ca505d382bbc60001b905090565b60cc8181548110610fed57600080fd5b90600052602060002001600091509050805461100890614e3a565b80601f016020809104026020016040519081016040528092919081815260200182805461103490614e3a565b80156110815780601f1061105657610100808354040283529160200191611081565b820191906000526020600020905b81548152906001019060200180831161106457829003601f168201915b505050505081565b611091612656565b61109b60006126d4565b565b60008084849050116110e4576040517f08c379a00000000000000000000000000000000000000000000000000000000081526004016110db906148a0565b60405180910390fd5b6000869050600060fa9050600084111561130457600061115287876000818110611137577f4e487b7100000000000000000000000000000000000000000000000000000000600052603260045260246000fd5b905060c0020180360381019061114d9190613ab7565b61279a565b90506000600367ffffffffffffffff811115611197577f4e487b7100000000000000000000000000000000000000000000000000000000600052604160045260246000fd5b6040519080825280602002602001820160405280156111c55781602001602082028036833780820191505090505b50905070535441524b4e45545f53544154455f563081600081518110611214577f4e487b7100000000000000000000000000000000000000000000000000000000600052603260045260246000fd5b602002602001018181525050818160018151811061125b577f4e487b7100000000000000000000000000000000000000000000000000000000600052603260045260246000fd5b60200260200101818152505085816002815181106112a2577f4e487b7100000000000000000000000000000000000000000000000000000000600052603260045260246000fd5b60200260200101818152505060006112b9826115d9565b90508481146112fd576040517f08c379a00000000000000000000000000000000000000000000000000000000081526004016112f490614720565b60405180910390fd5b8294505050505b60006001905060005b87879050811015611527576000831261151457600088888381811061135b577f4e487b7100000000000000000000000000000000000000000000000000000000600052603260045260246000fd5b905060c002018036038101906113719190613ab7565b905061137c8161279a565b85146113bd576040517f08c379a00000000000000000000000000000000000000000000000000000000081526004016113b4906148c0565b60405180910390fd5b600060018111156113f7577f4e487b7100000000000000000000000000000000000000000000000000000000600052602160045260246000fd5b81600001516001811115611434577f4e487b7100000000000000000000000000000000000000000000000000000000600052602160045260246000fd5b141561148157600180858c901c1614925060011515831515141561146257806020015160200151945061146e565b80602001516000015194505b838061147990614df1565b945050611512565b600061149f8b836040015160200151878560400151604001516128a3565b90506000151581151514156114e9576040517f08c379a00000000000000000000000000000000000000000000000000000000081526004016114e090614760565b60405180910390fd5b816040015160000151955060008260400151604001519050808661150d9190614baf565b955050505b505b808061151f90614e9d565b91505061130d565b507fffffffffffffffffffffffffffffffffffffffffffffffffffffffffffffffff82141561155b57829350505050611596565b6040517f08c379a000000000000000000000000000000000000000000000000000000000815260040161158d906147e0565b60405180910390fd5b95945050505050565b60cd5481565b600060cd54905090565b6000603360009054906101000a900473ffffffffffffffffffffffffffffffffffffffff16905090565b600080604051806060016040528060008152602001600081526020016000815250905060005b6001845161160d9190614c43565b8110156118d1577f080000000000001100000000000000000000000000000000000000000000000184828151811061166e577f4e487b7100000000000000000000000000000000000000000000000000000000600052603260045260246000fd5b6020026020010151836000600381106116b0577f4e487b7100000000000000000000000000000000000000000000000000000000600052603260045260246000fd5b60200201516116bf9190614b59565b6116c99190614ee6565b82600060038110611703577f4e487b7100000000000000000000000000000000000000000000000000000000600052603260045260246000fd5b6020020181815250507f08000000000000110000000000000000000000000000000000000000000000018460018361173b9190614b59565b81518110611772577f4e487b7100000000000000000000000000000000000000000000000000000000600052603260045260246000fd5b6020026020010151836001600381106117b4577f4e487b7100000000000000000000000000000000000000000000000000000000600052603260045260246000fd5b60200201516117c39190614b59565b6117cd9190614ee6565b82600160038110611807577f4e487b7100000000000000000000000000000000000000000000000000000000600052603260045260246000fd5b60200201818152505060ca60009054906101000a900473ffffffffffffffffffffffffffffffffffffffff1673ffffffffffffffffffffffffffffffffffffffff166325cc70e8836040518263ffffffff1660e01b815260040161186b919061448b565b60606040518083038186803b15801561188357600080fd5b505afa158015611897573d6000803e3d6000fd5b505050506040513d601f19601f820116820180604052508101906118bb91906137c3565b91506002816118ca9190614b59565b90506115ff565b506000600284516118e29190614ee6565b905060018114156119f3577f0800000000000011000000000000000000000000000000000000000000000001846001865161191d9190614c43565b81518110611954577f4e487b7100000000000000000000000000000000000000000000000000000000600052603260045260246000fd5b602002602001015183600060038110611996577f4e487b7100000000000000000000000000000000000000000000000000000000600052603260045260246000fd5b60200201516119a59190614b59565b6119af9190614ee6565b826000600381106119e9577f4e487b7100000000000000000000000000000000000000000000000000000000600052603260045260246000fd5b6020020181815250505b7f08000000000000110000000000000000000000000000000000000000000000016001838360038110611a4f577f4e487b7100000000000000000000000000000000000000000000000000000000600052603260045260246000fd5b6020020151611a5e9190614b59565b611a689190614ee6565b828260038110611aa1577f4e487b7100000000000000000000000000000000000000000000000000000000600052603260045260246000fd5b60200201818152505060ca60009054906101000a900473ffffffffffffffffffffffffffffffffffffffff1673ffffffffffffffffffffffffffffffffffffffff166325cc70e8836040518263ffffffff1660e01b8152600401611b05919061448b565b60606040518083038186803b158015611b1d57600080fd5b505afa158015611b31573d6000803e3d6000fd5b505050506040513d601f19601f82011682018060405250810190611b5591906137c3565b600060038110611b8e577f4e487b7100000000000000000000000000000000000000000000000000000000600052603260045260246000fd5b602002015192505050919050565b6000611bac85858585600061109d565b9050949350505050565b60008060c960009054906101000a900473ffffffffffffffffffffffffffffffffffffffff1673ffffffffffffffffffffffffffffffffffffffff1663aa1e84de611c0186866128e9565b6040518263ffffffff1660e01b8152600401611c1d91906144dc565b60006040518083038186803b158015611c3557600080fd5b505afa158015611c49573d6000803e3d6000fd5b505050506040513d6000823e3d601f19601f82011682018060405250810190611c72919061382d565b90506000815111611cb8576040517f08c379a0000000000000000000000000000000000000000000000000000000008152600401611caf906146a0565b60405180910390fd5b80600081518110611cf2577f4e487b7100000000000000000000000000000000000000000000000000000000600052603260045260246000fd5b602002602001015191505092915050565b60008060019054906101000a900460ff16159050808015611d345750600160008054906101000a900460ff1660ff16105b80611d615750611d43306122a0565b158015611d605750600160008054906101000a900460ff1660ff16145b5b611da0576040517f08c379a0000000000000000000000000000000000000000000000000000000008152600401611d9790614780565b60405180910390fd5b60016000806101000a81548160ff021916908360ff1602179055508015611ddd576001600060016101000a81548160ff0219169083151502179055505b8360c960006101000a81548173ffffffffffffffffffffffffffffffffffffffff021916908373ffffffffffffffffffffffffffffffffffffffff1602179055508260ca60006101000a81548173ffffffffffffffffffffffffffffffffffffffff021916908373ffffffffffffffffffffffffffffffffffffffff1602179055508160cb60006101000a81548173ffffffffffffffffffffffffffffffffffffffff021916908373ffffffffffffffffffffffffffffffffffffffff160217905550611ea86122c3565b611eb061231c565b8015611f095760008060016101000a81548160ff0219169083151502179055507f7f26b83ff96e1f2b6a682f133852f6798a09c465da95921460cefb38474024986001604051611f0091906145b3565b60405180910390a15b50505050565b60cb60009054906101000a900473ffffffffffffffffffffffffffffffffffffffff1681565b60ca60009054906101000a900473ffffffffffffffffffffffffffffffffffffffff1681565b6060603c821415611f8657611f7f611f7a84630cfe46e660e01b61254c565b61221d565b9050611fbd565b61232c821415611fb057611fa9611fa484630cfe46e660e01b61254c565b61221d565b9050611fbd565b611fba6000612979565b90505b92915050565b611fcb612656565b600073ffffffffffffffffffffffffffffffffffffffff168173ffffffffffffffffffffffffffffffffffffffff16141561203b576040517f08c379a000000000000000000000000000000000000000000000000000000000815260040161203290614680565b60405180910390fd5b612044816126d4565b50565b6120df828260405160240161205d9291906145f0565b6040516020818303038152906040527fb60e72cc000000000000000000000000000000000000000000000000000000007bffffffffffffffffffffffffffffffffffffffffffffffffffffffff19166020820180517bffffffffffffffffffffffffffffffffffffffffffffffffffffffff8381831617835250505050612a03565b5050565b6000806121026120fc6120f68888611bb6565b86611bb6565b84611bb6565b905080915050949350505050565b60008085858101906121229190613a76565b905060008484810190612135919061386e565b905060006121458260001c612a2c565b905060cd5483604001516020018181525050808360400151604001818152505060003073ffffffffffffffffffffffffffffffffffffffff16630437c38f856000015186602001518760400151886060015189608001516040518663ffffffff1660e01b81526004016121bc95949392919061454f565b60206040518083038186803b1580156121d457600080fd5b505afa1580156121e8573d6000803e3d6000fd5b505050506040513d601f19601f8201168201806040525081019061220c9190613b09565b905080945050505050949350505050565b6060602067ffffffffffffffff811115612260577f4e487b7100000000000000000000000000000000000000000000000000000000600052604160045260246000fd5b6040519080825280601f01601f1916602001820160405280156122925781602001600182028036833780820191505090505b509050816020820152919050565b6000808273ffffffffffffffffffffffffffffffffffffffff163b119050919050565b600060019054906101000a900460ff16612312576040517f08c379a000000000000000000000000000000000000000000000000000000000815260040161230990614880565b60405180910390fd5b61231a612a5f565b565b600060019054906101000a900460ff1661236b576040517f08c379a000000000000000000000000000000000000000000000000000000000815260040161236290614880565b60405180910390fd5b565b600061239b7f360894a13ba1a3210667c828492db98dca3e2076cc3735a920a3ca505d382bbc60001b612ac0565b60000160009054906101000a900473ffffffffffffffffffffffffffffffffffffffff16905090565b6123cc612656565b50565b6123fb7f4910fdfa16fed3260ed0e7147f7cc6da11a60208b5b9406d12a635614ffd914360001b612aca565b60000160009054906101000a900460ff161561241f5761241a83612ad4565b612547565b8273ffffffffffffffffffffffffffffffffffffffff166352d1902d6040518163ffffffff1660e01b815260040160206040518083038186803b15801561246557600080fd5b505afa92505050801561249657506040513d601f19601f820116820180604052508101906124939190613897565b60015b6124d5576040517f08c379a00000000000000000000000000000000000000000000000000000000081526004016124cc906147c0565b60405180910390fd5b7f360894a13ba1a3210667c828492db98dca3e2076cc3735a920a3ca505d382bbc60001b811461253a576040517f08c379a000000000000000000000000000000000000000000000000000000000815260040161253190614740565b60405180910390fd5b50612546838383612b8d565b5b505050565b6000807f03ffffffffffffffffffffffffffffffffffffffffffffffffffffffffffffff8460001c1690506000633b3b57de60e01b826040516024016125929190614900565b604051602081830303815290604052907bffffffffffffffffffffffffffffffffffffffffffffffffffffffff19166020820180517bffffffffffffffffffffffffffffffffffffffffffffffffffffffff838183161783525050505090503060cc8286856040516020016126079190614900565b6040516020818303038152906040526040517f556f183000000000000000000000000000000000000000000000000000000000815260040161264d959493929190614423565b60405180910390fd5b61265e612bb9565b73ffffffffffffffffffffffffffffffffffffffff1661267c6115af565b73ffffffffffffffffffffffffffffffffffffffff16146126d2576040517f08c379a00000000000000000000000000000000000000000000000000000000081526004016126c990614820565b60405180910390fd5b565b6000603360009054906101000a900473ffffffffffffffffffffffffffffffffffffffff16905081603360006101000a81548173ffffffffffffffffffffffffffffffffffffffff021916908373ffffffffffffffffffffffffffffffffffffffff1602179055508173ffffffffffffffffffffffffffffffffffffffff168173ffffffffffffffffffffffffffffffffffffffff167f8be0079c531659141344cd1fd0a4f28419497f9722a3daafe3b4186f6b6457e060405160405180910390a35050565b60008060009050600060018111156127db577f4e487b7100000000000000000000000000000000000000000000000000000000600052602160045260246000fd5b83600001516001811115612818577f4e487b7100000000000000000000000000000000000000000000000000000000600052602160045260246000fd5b141561283f57612838836020015160000151846020015160200151611bb6565b905061289a565b7f0800000000000011000000000000000000000000000000000000000000000001836040015160400151612883856040015160000151866040015160200151611bb6565b61288d9190614b59565b6128979190614ee6565b90505b80915050919050565b6000808360ff6128b39190614c43565b905060006001846128c49190614c43565b856128cf9190614c43565b828389901b901c901c905085811492505050949350505050565b60606000604067ffffffffffffffff81111561292e577f4e487b7100000000000000000000000000000000000000000000000000000000600052604160045260246000fd5b6040519080825280601f01601f1916602001820160405280156129605781602001600182028036833780820191505090505b5090508360208201528260408201528091505092915050565b6060601467ffffffffffffffff8111156129bc577f4e487b7100000000000000000000000000000000000000000000000000000000600052604160045260246000fd5b6040519080825280601f01601f1916602001820160405280156129ee5781602001600182028036833780820191505090505b509050600c6101000a82026020820152919050565b60008151905060006a636f6e736f6c652e6c6f679050602083016000808483855afa5050505050565b6000612a587f029539a1d23af1810c48a07fe7fc66a3b34fbc8b37e9b3cdb97bb88ceab7e4bf83611bb6565b9050919050565b600060019054906101000a900460ff16612aae576040517f08c379a0000000000000000000000000000000000000000000000000000000008152600401612aa590614880565b60405180910390fd5b612abe612ab9612bb9565b6126d4565b565b6000819050919050565b6000819050919050565b612add816122a0565b612b1c576040517f08c379a0000000000000000000000000000000000000000000000000000000008152600401612b1390614800565b60405180910390fd5b80612b497f360894a13ba1a3210667c828492db98dca3e2076cc3735a920a3ca505d382bbc60001b612ac0565b60000160006101000a81548173ffffffffffffffffffffffffffffffffffffffff021916908373ffffffffffffffffffffffffffffffffffffffff16021790555050565b612b9683612bc1565b600082511180612ba35750805b15612bb457612bb28383612c10565b505b505050565b600033905090565b612bca81612ad4565b8073ffffffffffffffffffffffffffffffffffffffff167fbc7cd75a20ee27fd9adebab32041f755214dbc6bffa90cc0225b39da2e5c2d3b60405160405180910390a250565b6060612c1b836122a0565b612c5a576040517f08c379a0000000000000000000000000000000000000000000000000000000008152600401612c5190614860565b60405180910390fd5b6000808473ffffffffffffffffffffffffffffffffffffffff1684604051612c8291906143f1565b600060405180830381855af49150503d8060008114612cbd576040519150601f19603f3d011682016040523d82523d6000602084013e612cc2565b606091505b5091509150612cea82826040518060600160405280602781526020016157ea60279139612cf4565b9250505092915050565b60608315612d0457829050612d0f565b612d0e8383612d16565b5b9392505050565b600082511115612d295781518083602001fd5b806040517f08c379a0000000000000000000000000000000000000000000000000000000008152600401612d5d91906145ce565b60405180910390fd5b828054828255906000526020600020908101928215612db5579160200282015b82811115612db4578251829080519060200190612da4929190612dc6565b5091602001919060010190612d86565b5b509050612dc29190612e4c565b5090565b828054612dd290614e3a565b90600052602060002090601f016020900481019282612df45760008555612e3b565b82601f10612e0d57805160ff1916838001178555612e3b565b82800160010185558215612e3b579182015b82811115612e3a578251825591602001919060010190612e1f565b5b509050612e489190612e70565b5090565b5b80821115612e6c5760008181612e639190612e8d565b50600101612e4d565b5090565b5b80821115612e89576000816000905550600101612e71565b5090565b508054612e9990614e3a565b6000825580601f10612eab5750612eca565b601f016020900490600052602060002090810190612ec99190612e70565b5b50565b6000612ee0612edb84614940565b61491b565b90508083825260208201905082856020860282011115612eff57600080fd5b60005b85811015612f4957813567ffffffffffffffff811115612f2157600080fd5b808601612f2e8982613396565b85526020850194506020840193505050600181019050612f02565b5050509392505050565b6000612f66612f618461496c565b61491b565b905080838252602082019050828560c0860282011115612f8557600080fd5b60005b85811015612fb55781612f9b88826135de565b845260208401935060c08301925050600181019050612f88565b5050509392505050565b6000612fd2612fcd84614998565b61491b565b90508082856020860282011115612fe857600080fd5b60005b858110156130185781612ffe8882613653565b845260208401935060208301925050600181019050612feb565b5050509392505050565b6000613035613030846149be565b61491b565b9050808382526020820190508285602086028201111561305457600080fd5b60005b85811015613084578161306a888261363e565b845260208401935060208301925050600181019050613057565b5050509392505050565b60006130a161309c846149be565b61491b565b905080838252602082019050828560208602820111156130c057600080fd5b60005b858110156130f057816130d68882613653565b8452602084019350602083019250506001810190506130c3565b5050509392505050565b600061310d613108846149ea565b61491b565b90508281526020810184848401111561312557600080fd5b613130848285614daf565b509392505050565b600061314b61314684614a1b565b61491b565b90508281526020810184848401111561316357600080fd5b61316e848285614daf565b509392505050565b60008135905061318581615766565b92915050565b600082601f83011261319c57600080fd5b81356131ac848260208601612ecd565b91505092915050565b60008083601f8401126131c757600080fd5b8235905067ffffffffffffffff8111156131e057600080fd5b6020830191508360c08202830111156131f857600080fd5b9250929050565b600082601f83011261321057600080fd5b8135613220848260208601612f53565b91505092915050565b600082601f83011261323a57600080fd5b6003613247848285612fbf565b91505092915050565b600082601f83011261326157600080fd5b8135613271848260208601613022565b91505092915050565b600082601f83011261328b57600080fd5b815161329b84826020860161308e565b91505092915050565b6000813590506132b38161577d565b92915050565b6000815190506132c88161577d565b92915050565b6000813590506132dd81615794565b92915050565b60008083601f8401126132f557600080fd5b8235905067ffffffffffffffff81111561330e57600080fd5b60208301915083600182028301111561332657600080fd5b9250929050565b600082601f83011261333e57600080fd5b813561334e8482602086016130fa565b91505092915050565b600081359050613366816157ab565b92915050565b60008135905061337b816157bb565b92915050565b600081519050613390816157bb565b92915050565b600082601f8301126133a757600080fd5b81356133b7848260208601613138565b91505092915050565b6000604082840312156133d257600080fd5b6133dc604061491b565b905060006133ec8482850161363e565b60008301525060206134008482850161363e565b60208301525092915050565b600060c0828403121561341e57600080fd5b81905092915050565b600060c0828403121561343957600080fd5b61344360c061491b565b905060006134538482850161363e565b60008301525060206134678482850161363e565b602083015250604061347b8482850161363e565b604083015250606061348f8482850161363e565b60608301525060806134a38482850161363e565b60808301525060a06134b78482850161363e565b60a08301525092915050565b6000606082840312156134d557600080fd5b6134df606061491b565b905060006134ef8482850161363e565b60008301525060206135038482850161363e565b60208301525060406135178482850161363e565b60408301525092915050565b6000610140828403121561353657600080fd5b61354060a061491b565b905060006135508482850161336c565b60008301525060206135648482850161363e565b602083015250604061357884828501613427565b60408301525061010082013567ffffffffffffffff81111561359957600080fd5b6135a5848285016131ff565b60608301525061012082013567ffffffffffffffff8111156135c657600080fd5b6135d2848285016131ff565b60808301525092915050565b600060c082840312156135f057600080fd5b6135fa606061491b565b9050600061360a84828501613357565b600083015250602061361e848285016133c0565b6020830152506060613632848285016134c3565b60408301525092915050565b60008135905061364d816157d2565b92915050565b600081519050613662816157d2565b92915050565b60006020828403121561367a57600080fd5b600061368884828501613176565b91505092915050565b6000806000606084860312156136a657600080fd5b60006136b486828701613176565b93505060206136c586828701613176565b92505060406136d686828701613176565b9150509250925092565b600080600080600060a086880312156136f857600080fd5b600061370688828901613176565b955050602061371788828901613176565b945050604061372888828901613176565b935050606086013567ffffffffffffffff81111561374557600080fd5b6137518882890161318b565b92505060806137628882890161363e565b9150509295509295909350565b6000806040838503121561378257600080fd5b600061379085828601613176565b925050602083013567ffffffffffffffff8111156137ad57600080fd5b6137b98582860161332d565b9150509250929050565b6000606082840312156137d557600080fd5b60006137e384828501613229565b91505092915050565b6000602082840312156137fe57600080fd5b600082013567ffffffffffffffff81111561381857600080fd5b61382484828501613250565b91505092915050565b60006020828403121561383f57600080fd5b600082015167ffffffffffffffff81111561385957600080fd5b6138658482850161327a565b91505092915050565b60006020828403121561388057600080fd5b600061388e848285016132a4565b91505092915050565b6000602082840312156138a957600080fd5b60006138b7848285016132b9565b91505092915050565b600080604083850312156138d357600080fd5b60006138e1858286016132a4565b92505060206138f28582860161363e565b9150509250929050565b60006020828403121561390e57600080fd5b600061391c848285016132ce565b91505092915050565b6000806000806040858703121561393b57600080fd5b600085013567ffffffffffffffff81111561395557600080fd5b613961878288016132e3565b9450945050602085013567ffffffffffffffff81111561398057600080fd5b61398c878288016132e3565b925092505092959194509250565b6000602082840312156139ac57600080fd5b60006139ba84828501613381565b91505092915050565b6000806000806000806000610140888a0312156139df57600080fd5b60006139ed8a828b0161336c565b97505060206139fe8a828b0161363e565b9650506040613a0f8a828b0161340c565b95505061010088013567ffffffffffffffff811115613a2d57600080fd5b613a398a828b016131b5565b945094505061012088013567ffffffffffffffff811115613a5957600080fd5b613a658a828b016131b5565b925092505092959891949750929550565b600060208284031215613a8857600080fd5b600082013567ffffffffffffffff811115613aa257600080fd5b613aae84828501613523565b91505092915050565b600060c08284031215613ac957600080fd5b6000613ad7848285016135de565b91505092915050565b600060208284031215613af257600080fd5b6000613b008482850161363e565b91505092915050565b600060208284031215613b1b57600080fd5b6000613b2984828501613653565b91505092915050565b60008060408385031215613b4557600080fd5b6000613b538582860161363e565b9250506020613b648582860161363e565b9150509250929050565b60008060008060608587031215613b8457600080fd5b6000613b928782880161363e565b9450506020613ba38782880161363e565b935050604085013567ffffffffffffffff811115613bc057600080fd5b613bcc878288016131b5565b925092505092959194509250565b600080600080600060808688031215613bf257600080fd5b6000613c008882890161363e565b9550506020613c118882890161363e565b945050604086013567ffffffffffffffff811115613c2e57600080fd5b613c3a888289016131b5565b93509350506060613c4d8882890161363e565b9150509295509295909350565b6000613c668383613f00565b905092915050565b6000613c7a8383614391565b60c08301905092915050565b6000613c9283836143d3565b60208301905092915050565b613ca781614c77565b82525050565b6000613cb882614a90565b613cc28185614aee565b935083602082028501613cd485614a4c565b8060005b85811015613d0f57848403895281613cf08582613c5a565b9450613cfb83614ac7565b925060208a01995050600181019050613cd8565b50829750879550505050505092915050565b6000613d2c82614a9b565b613d368185614aff565b9350613d4183614a61565b8060005b83811015613d72578151613d598882613c6e565b9750613d6483614ad4565b925050600181019050613d45565b5085935050505092915050565b613d8881614aa6565b613d928184614b10565b9250613d9d82614a71565b8060005b83811015613dce578151613db58782613c86565b9650613dc083614ae1565b925050600181019050613da1565b505050505050565b613ddf81614c89565b82525050565b613dee81614c95565b82525050565b613dfd81614c9f565b82525050565b6000613e0e82614ab1565b613e188185614b1b565b9350613e28818560208601614dbe565b613e3181615002565b840191505092915050565b6000613e4782614ab1565b613e518185614b2c565b9350613e61818560208601614dbe565b80840191505092915050565b613e7681614d1f565b82525050565b613e8581614d43565b82525050565b613e9481614d67565b82525050565b613ea381614d8b565b82525050565b613eb281614cde565b82525050565b613ec181614d9d565b82525050565b6000613ed282614abc565b613edc8185614b48565b9350613eec818560208601614dbe565b613ef581615002565b840191505092915050565b60008154613f0d81614e3a565b613f178186614b37565b94506001821660008114613f325760018114613f4457613f77565b60ff1983168652602086019350613f77565b613f4d85614a7b565b60005b83811015613f6f57815481890152600182019150602081019050613f50565b808801955050505b50505092915050565b6000613f8d602d83614b48565b9150613f9882615013565b604082019050919050565b6000613fb0602e83614b48565b9150613fbb82615062565b604082019050919050565b6000613fd3603783614b48565b9150613fde826150b1565b604082019050919050565b6000613ff6602683614b48565b915061400182615100565b604082019050919050565b6000614019602983614b48565b91506140248261514f565b604082019050919050565b600061403c602c83614b48565b91506140478261519e565b604082019050919050565b600061405f602c83614b48565b915061406a826151ed565b604082019050919050565b6000614082603883614b48565b915061408d8261523c565b604082019050919050565b60006140a5604d83614b48565b91506140b08261528b565b606082019050919050565b60006140c8602983614b48565b91506140d382615300565b604082019050919050565b60006140eb604d83614b48565b91506140f68261534f565b606082019050919050565b600061410e602e83614b48565b9150614119826153c4565b604082019050919050565b6000614131602383614b48565b915061413c82615413565b604082019050919050565b6000614154602e83614b48565b915061415f82615462565b604082019050919050565b6000614177603083614b48565b9150614182826154b1565b604082019050919050565b600061419a602d83614b48565b91506141a582615500565b604082019050919050565b60006141bd602083614b48565b91506141c88261554f565b602082019050919050565b60006141e0602e83614b48565b91506141eb82615578565b604082019050919050565b6000614203602683614b48565b915061420e826155c7565b604082019050919050565b6000614226602b83614b48565b915061423182615616565b604082019050919050565b6000614249602a83614b48565b915061425482615665565b604082019050919050565b600061426c603383614b48565b9150614277826156b4565b604082019050919050565b600061428f603383614b48565b915061429a82615703565b604082019050919050565b6040820160008201516142bb60008501826143d3565b5060208201516142ce60208501826143d3565b50505050565b60c0820160008201516142ea60008501826143d3565b5060208201516142fd60208501826143d3565b50604082015161431060408501826143d3565b50606082015161432360608501826143d3565b50608082015161433660808501826143d3565b5060a082015161434960a08501826143d3565b50505050565b60608201600082015161436560008501826143d3565b50602082015161437860208501826143d3565b50604082015161438b60408501826143d3565b50505050565b60c0820160008201516143a76000850182613e9a565b5060208201516143ba60208501826142a5565b5060408201516143cd606085018261434f565b50505050565b6143dc81614d08565b82525050565b6143eb81614d08565b82525050565b60006143fd8284613e3c565b915081905092915050565b600060208201905061441d6000830184613c9e565b92915050565b600060a0820190506144386000830188613c9e565b818103602083015261444a8187613cad565b9050818103604083015261445e8186613e03565b905061446d6060830185613df4565b818103608083015261447f8184613e03565b90509695505050505050565b60006060820190506144a06000830184613d7f565b92915050565b60006020820190506144bb6000830184613dd6565b92915050565b60006020820190506144d66000830184613de5565b92915050565b600060208201905081810360008301526144f68184613e03565b905092915050565b60006020820190506145136000830184613e6d565b92915050565b600060208201905061452e6000830184613e7c565b92915050565b60006020820190506145496000830184613e8b565b92915050565b6000610140820190506145656000830188613ea9565b61457260208301876143e2565b61457f60408301866142d4565b8181036101008301526145928185613d21565b90508181036101208301526145a78184613d21565b90509695505050505050565b60006020820190506145c86000830184613eb8565b92915050565b600060208201905081810360008301526145e88184613ec7565b905092915050565b6000604082019050818103600083015261460a8185613ec7565b905061461960208301846143e2565b9392505050565b6000602082019050818103600083015261463981613f80565b9050919050565b6000602082019050818103600083015261465981613fa3565b9050919050565b6000602082019050818103600083015261467981613fc6565b9050919050565b6000602082019050818103600083015261469981613fe9565b9050919050565b600060208201905081810360008301526146b98161400c565b9050919050565b600060208201905081810360008301526146d98161402f565b9050919050565b600060208201905081810360008301526146f981614052565b9050919050565b6000602082019050818103600083015261471981614075565b9050919050565b6000602082019050818103600083015261473981614098565b9050919050565b60006020820190508181036000830152614759816140bb565b9050919050565b60006020820190508181036000830152614779816140de565b9050919050565b6000602082019050818103600083015261479981614101565b9050919050565b600060208201905081810360008301526147b981614124565b9050919050565b600060208201905081810360008301526147d981614147565b9050919050565b600060208201905081810360008301526147f98161416a565b9050919050565b600060208201905081810360008301526148198161418d565b9050919050565b60006020820190508181036000830152614839816141b0565b9050919050565b60006020820190508181036000830152614859816141d3565b9050919050565b60006020820190508181036000830152614879816141f6565b9050919050565b6000602082019050818103600083015261489981614219565b9050919050565b600060208201905081810360008301526148b98161423c565b9050919050565b600060208201905081810360008301526148d98161425f565b9050919050565b600060208201905081810360008301526148f981614282565b9050919050565b600060208201905061491560008301846143e2565b92915050565b6000614925614936565b90506149318282614e6c565b919050565b6000604051905090565b600067ffffffffffffffff82111561495b5761495a614fd3565b5b602082029050602081019050919050565b600067ffffffffffffffff82111561498757614986614fd3565b5b602082029050602081019050919050565b600067ffffffffffffffff8211156149b3576149b2614fd3565b5b602082029050919050565b600067ffffffffffffffff8211156149d9576149d8614fd3565b5b602082029050602081019050919050565b600067ffffffffffffffff821115614a0557614a04614fd3565b5b614a0e82615002565b9050602081019050919050565b600067ffffffffffffffff821115614a3657614a35614fd3565b5b614a3f82615002565b9050602081019050919050565b60008190508160005260206000209050919050565b6000819050602082019050919050565b6000819050919050565b60008190508160005260206000209050919050565b600081549050919050565b600081519050919050565b600060039050919050565b600081519050919050565b600081519050919050565b6000600182019050919050565b6000602082019050919050565b6000602082019050919050565b600082825260208201905092915050565b600082825260208201905092915050565b600081905092915050565b600082825260208201905092915050565b600081905092915050565b600082825260208201905092915050565b600082825260208201905092915050565b6000614b6482614d08565b9150614b6f83614d08565b9250827fffffffffffffffffffffffffffffffffffffffffffffffffffffffffffffffff03821115614ba457614ba3614f17565b5b828201905092915050565b6000614bba82614cde565b9150614bc583614cde565b9250827f800000000000000000000000000000000000000000000000000000000000000001821260008412151615614c0057614bff614f17565b5b827f7fffffffffffffffffffffffffffffffffffffffffffffffffffffffffffffff018213600084121615614c3857614c37614f17565b5b828203905092915050565b6000614c4e82614d08565b9150614c5983614d08565b925082821015614c6c57614c6b614f17565b5b828203905092915050565b6000614c8282614ce8565b9050919050565b60008115159050919050565b6000819050919050565b60007fffffffff0000000000000000000000000000000000000000000000000000000082169050919050565b6000819050614cd982615752565b919050565b6000819050919050565b600073ffffffffffffffffffffffffffffffffffffffff82169050919050565b6000819050919050565b600060ff82169050919050565b6000614d2a82614d31565b9050919050565b6000614d3c82614ce8565b9050919050565b6000614d4e82614d55565b9050919050565b6000614d6082614ce8565b9050919050565b6000614d7282614d79565b9050919050565b6000614d8482614ce8565b9050919050565b6000614d9682614ccb565b9050919050565b6000614da882614d12565b9050919050565b82818337600083830152505050565b60005b83811015614ddc578082015181840152602081019050614dc1565b83811115614deb576000848401525b50505050565b6000614dfc82614cde565b91507f8000000000000000000000000000000000000000000000000000000000000000821415614e2f57614e2e614f17565b5b600182039050919050565b60006002820490506001821680614e5257607f821691505b60208210811415614e6657614e65614fa4565b5b50919050565b614e7582615002565b810181811067ffffffffffffffff82111715614e9457614e93614fd3565b5b80604052505050565b6000614ea882614d08565b91507fffffffffffffffffffffffffffffffffffffffffffffffffffffffffffffffff821415614edb57614eda614f17565b5b600182019050919050565b6000614ef182614d08565b9150614efc83614d08565b925082614f0c57614f0b614f46565b5b828206905092915050565b7f4e487b7100000000000000000000000000000000000000000000000000000000600052601160045260246000fd5b7f4e487b7100000000000000000000000000000000000000000000000000000000600052601260045260246000fd5b7f4e487b7100000000000000000000000000000000000000000000000000000000600052602160045260246000fd5b7f4e487b7100000000000000000000000000000000000000000000000000000000600052602260045260246000fd5b7f4e487b7100000000000000000000000000000000000000000000000000000000600052604160045260246000fd5b6000601f19601f8301169050919050565b7f73746f726167652070726f6f6673206d75737420686176652061746c6561737460008201527f206f6e6520656c656d656e742100000000000000000000000000000000000000602082015250565b7f7374617465726f6f742068617368206973206e6f74206665746368656420707260008201527f6f7065726c792120726576657274000000000000000000000000000000000000602082015250565b7f626c6f636b206e756d62657220646f65736e2774206d6174636820776974682060008201527f737461726b6e657420636f726520636f6e747261637421000000000000000000602082015250565b7f4f776e61626c653a206e6577206f776e657220697320746865207a65726f206160008201527f6464726573730000000000000000000000000000000000000000000000000000602082015250565b7f6861736865732072657475726e6564206c656e677468206973206c657373207460008201527f68616e207a65726f210000000000000000000000000000000000000000000000602082015250565b7f46756e6374696f6e206d7573742062652063616c6c6564207468726f7567682060008201527f64656c656761746563616c6c0000000000000000000000000000000000000000602082015250565b7f46756e6374696f6e206d7573742062652063616c6c6564207468726f7567682060008201527f6163746976652070726f78790000000000000000000000000000000000000000602082015250565b7f555550535570677261646561626c653a206d757374206e6f742062652063616c60008201527f6c6564207468726f7567682064656c656761746563616c6c0000000000000000602082015250565b7f63616c63756c6174656420737461746520636f6d6d69746d656e7420646f657360008201527f6e2774206d61746368207769746820746865206578706563746564207374617460208201527f6520636f6d6d69746d656e742100000000000000000000000000000000000000604082015250565b7f45524331393637557067726164653a20756e737570706f727465642070726f7860008201527f6961626c65555549440000000000000000000000000000000000000000000000602082015250565b7f496e76616c69642070726f6f662c20706f74656e7469616c6c7920612070726f60008201527f6f6620666f72206120646966666572656e742073746f72616765207661722f2060208201527f6e6f6e20696e636c7573696f6e00000000000000000000000000000000000000604082015250565b7f496e697469616c697a61626c653a20636f6e747261637420697320616c72656160008201527f647920696e697469616c697a6564000000000000000000000000000000000000602082015250565b7f68617368657320646f6e2774206d617463682e20696e76616c6964207374617460008201527f6573210000000000000000000000000000000000000000000000000000000000602082015250565b7f45524331393637557067726164653a206e657720696d706c656d656e7461746960008201527f6f6e206973206e6f742055555053000000000000000000000000000000000000602082015250565b7f6c656e677468206f662070726f6f66206d69736d6174636865642c20696e766160008201527f6c69642070726f6f662073697a65212100000000000000000000000000000000602082015250565b7f455243313936373a206e657720696d706c656d656e746174696f6e206973206e60008201527f6f74206120636f6e747261637400000000000000000000000000000000000000602082015250565b7f4f776e61626c653a2063616c6c6572206973206e6f7420746865206f776e6572600082015250565b7f636f6e74726163742070726f6f6673206d75737420686176652061746c65617360008201527f74206f6e6520656c656d656e7421000000000000000000000000000000000000602082015250565b7f416464726573733a2064656c65676174652063616c6c20746f206e6f6e2d636f60008201527f6e74726163740000000000000000000000000000000000000000000000000000602082015250565b7f496e697469616c697a61626c653a20636f6e7472616374206973206e6f74206960008201527f6e697469616c697a696e67000000000000000000000000000000000000000000602082015250565b7f70726f6f66206172726179206d75737420686176652061746c65617374206f6e60008201527f6520656c656d656e742e00000000000000000000000000000000000000000000602082015250565b7f68617368206d69736d6174636820666f756e64212120696e76616c696420707260008201527f6f6f66207061746820726576657274696e672e00000000000000000000000000602082015250565b7f6661696c656420746f20666574636820737461726b6e657420636f726520636f60008201527f6e747261637420737461746520626c6f636b2100000000000000000000000000602082015250565b6002811061576357615762614f75565b5b50565b61576f81614c77565b811461577a57600080fd5b50565b61578681614c95565b811461579157600080fd5b50565b61579d81614c9f565b81146157a857600080fd5b50565b600281106157b857600080fd5b50565b6157c481614cde565b81146157cf57600080fd5b50565b6157db81614d08565b81146157e657600080fd5b5056fe416464726573733a206c6f772d6c6576656c2064656c65676174652063616c6c206661696c6564a26469706673582212207515edda590448c90bb0735074b6c44303a2eef7fc8d4fdcc7cb1c5049cedb7764736f6c63430008040033",
  "linkReferences": {},
  "deployedLinkReferences": {}
}