{
  "_format": "hh-sol-artifact-1",
  "contractName": "SNResolverStub",
  "sourceName": "contracts/SNResolverStub.sol",
  "abi": [
    {
      "inputs": [],
      "stateMutability": "nonpayable",
      "type": "constructor"
    },
    {
      "inputs": [
        {
          "internalType": "address",
          "name": "sender",
          "type": "address"
        },
        {
          "internalType": "string[]",
          "name": "urls",
          "type": "string[]"
        },
        {
          "internalType": "bytes",
          "name": "callData",
          "type": "bytes"
        },
        {
          "internalType": "bytes4",
          "name": "callbackFunction",
          "type": "bytes4"
        },
        {
          "internalType": "bytes",
          "name": "extraData",
          "type": "bytes"
        }
      ],
      "name": "OffchainLookup",
      "type": "error"
    },
    {
      "anonymous": false,
      "inputs": [
        {
          "indexed": false,
          "internalType": "address",
          "name": "previousAdmin",
          "type": "address"
        },
        {
          "indexed": false,
          "internalType": "address",
          "name": "newAdmin",
          "type": "address"
        }
      ],
      "name": "AdminChanged",
      "type": "event"
    },
    {
      "anonymous": false,
      "inputs": [
        {
          "indexed": true,
          "internalType": "address",
          "name": "beacon",
          "type": "address"
        }
      ],
      "name": "BeaconUpgraded",
      "type": "event"
    },
    {
      "anonymous": false,
      "inputs": [
        {
          "indexed": false,
          "internalType": "uint8",
          "name": "version",
          "type": "uint8"
        }
      ],
      "name": "Initialized",
      "type": "event"
    },
    {
      "anonymous": false,
      "inputs": [
        {
          "indexed": true,
          "internalType": "address",
          "name": "previousOwner",
          "type": "address"
        },
        {
          "indexed": true,
          "internalType": "address",
          "name": "newOwner",
          "type": "address"
        }
      ],
      "name": "OwnershipTransferred",
      "type": "event"
    },
    {
      "anonymous": false,
      "inputs": [
        {
          "indexed": true,
          "internalType": "address",
          "name": "implementation",
          "type": "address"
        }
      ],
      "name": "Upgraded",
      "type": "event"
    },
    {
      "inputs": [
        {
          "internalType": "bytes32",
          "name": "node",
          "type": "bytes32"
        }
      ],
      "name": "addr",
      "outputs": [
        {
          "internalType": "address",
          "name": "",
          "type": "address"
        }
      ],
      "stateMutability": "view",
      "type": "function"
    },
    {
      "inputs": [
        {
          "internalType": "bytes32",
          "name": "node",
          "type": "bytes32"
        },
        {
          "internalType": "uint256",
          "name": "coinType",
          "type": "uint256"
        }
      ],
      "name": "addr",
      "outputs": [
        {
          "internalType": "bytes",
          "name": "",
          "type": "bytes"
        }
      ],
      "stateMutability": "view",
      "type": "function"
    },
    {
      "inputs": [
        {
          "internalType": "bytes",
          "name": "response",
          "type": "bytes"
        },
        {
          "internalType": "bytes",
          "name": "extraData",
          "type": "bytes"
        }
      ],
      "name": "bytesAddrWithProof",
      "outputs": [
        {
          "internalType": "bytes",
          "name": "",
          "type": "bytes"
        }
      ],
      "stateMutability": "view",
      "type": "function"
    },
    {
      "inputs": [
        {
          "internalType": "uint256",
          "name": "",
          "type": "uint256"
        }
      ],
      "name": "gateways",
      "outputs": [
        {
          "internalType": "string",
          "name": "",
          "type": "string"
        }
      ],
      "stateMutability": "view",
      "type": "function"
    },
    {
      "inputs": [],
      "name": "getl2Resolver",
      "outputs": [
        {
          "internalType": "uint256",
          "name": "",
          "type": "uint256"
        }
      ],
      "stateMutability": "view",
      "type": "function"
    },
    {
      "inputs": [
        {
          "internalType": "uint256",
          "name": "a",
          "type": "uint256"
        },
        {
          "internalType": "uint256",
          "name": "b",
          "type": "uint256"
        }
      ],
      "name": "hash",
      "outputs": [
        {
          "internalType": "uint256",
          "name": "",
          "type": "uint256"
        }
      ],
      "stateMutability": "view",
      "type": "function"
    },
    {
      "inputs": [
        {
          "internalType": "address",
          "name": "pedersenAddress",
          "type": "address"
        },
        {
          "internalType": "address",
          "name": "poseidonAddress",
          "type": "address"
        },
        {
          "internalType": "address",
          "name": "_starknetCoreContractAddress",
          "type": "address"
        },
        {
          "internalType": "string[]",
          "name": "_gateways",
          "type": "string[]"
        },
        {
          "internalType": "uint256",
          "name": "_l2resolver",
          "type": "uint256"
        }
      ],
      "name": "initialize",
      "outputs": [],
      "stateMutability": "nonpayable",
      "type": "function"
    },
    {
      "inputs": [
        {
          "internalType": "address",
          "name": "pedersenAddress",
          "type": "address"
        },
        {
          "internalType": "address",
          "name": "poseidonAddress",
          "type": "address"
        },
        {
          "internalType": "address",
          "name": "_starknetCoreContractAddress",
          "type": "address"
        }
      ],
      "name": "initialize",
      "outputs": [],
      "stateMutability": "nonpayable",
      "type": "function"
    },
    {
      "inputs": [],
      "name": "l2resolver",
      "outputs": [
        {
          "internalType": "uint256",
          "name": "",
          "type": "uint256"
        }
      ],
      "stateMutability": "view",
      "type": "function"
    },
    {
      "inputs": [],
      "name": "owner",
      "outputs": [
        {
          "internalType": "address",
          "name": "",
          "type": "address"
        }
      ],
      "stateMutability": "view",
      "type": "function"
    },
    {
      "inputs": [],
      "name": "pedersen",
      "outputs": [
        {
          "internalType": "contract PedersenHash",
          "name": "",
          "type": "address"
        }
      ],
      "stateMutability": "view",
      "type": "function"
    },
    {
      "inputs": [],
      "name": "poseidon",
      "outputs": [
        {
          "internalType": "contract PoseidonHash3",
          "name": "",
          "type": "address"
        }
      ],
      "stateMutability": "view",
      "type": "function"
    },
    {
      "inputs": [
        {
          "internalType": "uint256[]",
          "name": "elems",
          "type": "uint256[]"
        }
      ],
      "name": "poseidonHashMany",
      "outputs": [
        {
          "internalType": "uint256",
          "name": "",
          "type": "uint256"
        }
      ],
      "stateMutability": "view",
      "type": "function"
    },
    {
      "inputs": [],
      "name": "proxiableUUID",
      "outputs": [
        {
          "internalType": "bytes32",
          "name": "",
          "type": "bytes32"
        }
      ],
      "stateMutability": "view",
      "type": "function"
    },
    {
      "inputs": [],
      "name": "renounceOwnership",
      "outputs": [],
      "stateMutability": "nonpayable",
      "type": "function"
    },
    {
      "inputs": [],
      "name": "starknetCoreContract",
      "outputs": [
        {
          "internalType": "contract StarknetCoreContract",
          "name": "",
          "type": "address"
        }
      ],
      "stateMutability": "view",
      "type": "function"
    },
    {
      "inputs": [
        {
          "internalType": "bytes4",
          "name": "interfaceID",
          "type": "bytes4"
        }
      ],
      "name": "supportsInterface",
      "outputs": [
        {
          "internalType": "bool",
          "name": "",
          "type": "bool"
        }
      ],
      "stateMutability": "pure",
      "type": "function"
    },
    {
      "inputs": [
        {
          "internalType": "address",
          "name": "newOwner",
          "type": "address"
        }
      ],
      "name": "transferOwnership",
      "outputs": [],
      "stateMutability": "nonpayable",
      "type": "function"
    },
    {
      "inputs": [
        {
          "internalType": "address",
          "name": "newImplementation",
          "type": "address"
        }
      ],
      "name": "upgradeTo",
      "outputs": [],
      "stateMutability": "nonpayable",
      "type": "function"
    },
    {
      "inputs": [
        {
          "internalType": "address",
          "name": "newImplementation",
          "type": "address"
        },
        {
          "internalType": "bytes",
          "name": "data",
          "type": "bytes"
        }
      ],
      "name": "upgradeToAndCall",
      "outputs": [],
      "stateMutability": "payable",
      "type": "function"
    },
    {
      "inputs": [
        {
          "internalType": "int256",
          "name": "blockNumber",
          "type": "int256"
        },
        {
          "internalType": "uint256",
          "name": "classCommitment",
          "type": "uint256"
        },
        {
          "components": [
            {
              "internalType": "uint256",
              "name": "contractStateRoot",
              "type": "uint256"
            },
            {
              "internalType": "uint256",
              "name": "contractAddress",
              "type": "uint256"
            },
            {
              "internalType": "uint256",
              "name": "storageVarAddress",
              "type": "uint256"
            },
            {
              "internalType": "uint256",
              "name": "classHash",
              "type": "uint256"
            },
            {
              "internalType": "uint256",
              "name": "hashVersion",
              "type": "uint256"
            },
            {
              "internalType": "uint256",
              "name": "nonce",
              "type": "uint256"
            }
          ],
          "internalType": "struct ContractData",
          "name": "contractData",
          "type": "tuple"
        },
        {
          "components": [
            {
              "internalType": "enum NodeType",
              "name": "nodeType",
              "type": "uint8"
            },
            {
              "components": [
                {
                  "internalType": "uint256",
                  "name": "leftHash",
                  "type": "uint256"
                },
                {
                  "internalType": "uint256",
                  "name": "rightHash",
                  "type": "uint256"
                }
              ],
              "internalType": "struct BinaryProof",
              "name": "binaryProof",
              "type": "tuple"
            },
            {
              "components": [
                {
                  "internalType": "uint256",
                  "name": "childHash",
                  "type": "uint256"
                },
                {
                  "internalType": "uint256",
                  "name": "path",
                  "type": "uint256"
                },
                {
                  "internalType": "uint256",
                  "name": "length",
                  "type": "uint256"
                }
              ],
              "internalType": "struct EdgeProof",
              "name": "edgeProof",
              "type": "tuple"
            }
          ],
          "internalType": "struct StarknetProof[]",
          "name": "contractProofArray",
          "type": "tuple[]"
        },
        {
          "components": [
            {
              "internalType": "enum NodeType",
              "name": "nodeType",
              "type": "uint8"
            },
            {
              "components": [
                {
                  "internalType": "uint256",
                  "name": "leftHash",
                  "type": "uint256"
                },
                {
                  "internalType": "uint256",
                  "name": "rightHash",
                  "type": "uint256"
                }
              ],
              "internalType": "struct BinaryProof",
              "name": "binaryProof",
              "type": "tuple"
            },
            {
              "components": [
                {
                  "internalType": "uint256",
                  "name": "childHash",
                  "type": "uint256"
                },
                {
                  "internalType": "uint256",
                  "name": "path",
                  "type": "uint256"
                },
                {
                  "internalType": "uint256",
                  "name": "length",
                  "type": "uint256"
                }
              ],
              "internalType": "struct EdgeProof",
              "name": "edgeProof",
              "type": "tuple"
            }
          ],
          "internalType": "struct StarknetProof[]",
          "name": "storageProofArray",
          "type": "tuple[]"
        }
      ],
      "name": "verifiedStorageValue",
      "outputs": [
        {
          "internalType": "uint256",
          "name": "value",
          "type": "uint256"
        }
      ],
      "stateMutability": "view",
      "type": "function"
    },
    {
      "inputs": [
        {
          "internalType": "uint256",
          "name": "rootHash",
          "type": "uint256"
        },
        {
          "internalType": "uint256",
          "name": "path",
          "type": "uint256"
        },
        {
          "components": [
            {
              "internalType": "enum NodeType",
              "name": "nodeType",
              "type": "uint8"
            },
            {
              "components": [
                {
                  "internalType": "uint256",
                  "name": "leftHash",
                  "type": "uint256"
                },
                {
                  "internalType": "uint256",
                  "name": "rightHash",
                  "type": "uint256"
                }
              ],
              "internalType": "struct BinaryProof",
              "name": "binaryProof",
              "type": "tuple"
            },
            {
              "components": [
                {
                  "internalType": "uint256",
                  "name": "childHash",
                  "type": "uint256"
                },
                {
                  "internalType": "uint256",
                  "name": "path",
                  "type": "uint256"
                },
                {
                  "internalType": "uint256",
                  "name": "length",
                  "type": "uint256"
                }
              ],
              "internalType": "struct EdgeProof",
              "name": "edgeProof",
              "type": "tuple"
            }
          ],
          "internalType": "struct StarknetProof[]",
          "name": "proofArray",
          "type": "tuple[]"
        },
        {
          "internalType": "uint256",
          "name": "classCommitment",
          "type": "uint256"
        }
      ],
      "name": "verifyProof",
      "outputs": [
        {
          "internalType": "uint256",
          "name": "value",
          "type": "uint256"
        }
      ],
      "stateMutability": "view",
      "type": "function"
    },
    {
      "inputs": [
        {
          "internalType": "uint256",
          "name": "rootHash",
          "type": "uint256"
        },
        {
          "internalType": "uint256",
          "name": "path",
          "type": "uint256"
        },
        {
          "components": [
            {
              "internalType": "enum NodeType",
              "name": "nodeType",
              "type": "uint8"
            },
            {
              "components": [
                {
                  "internalType": "uint256",
                  "name": "leftHash",
                  "type": "uint256"
                },
                {
                  "internalType": "uint256",
                  "name": "rightHash",
                  "type": "uint256"
                }
              ],
              "internalType": "struct BinaryProof",
              "name": "binaryProof",
              "type": "tuple"
            },
            {
              "components": [
                {
                  "internalType": "uint256",
                  "name": "childHash",
                  "type": "uint256"
                },
                {
                  "internalType": "uint256",
                  "name": "path",
                  "type": "uint256"
                },
                {
                  "internalType": "uint256",
                  "name": "length",
                  "type": "uint256"
                }
              ],
              "internalType": "struct EdgeProof",
              "name": "edgeProof",
              "type": "tuple"
            }
          ],
          "internalType": "struct StarknetProof[]",
          "name": "proofArray",
          "type": "tuple[]"
        }
      ],
      "name": "verifyStorageProof",
      "outputs": [
        {
          "internalType": "uint256",
          "name": "value",
          "type": "uint256"
        }
      ],
      "stateMutability": "view",
      "type": "function"
    }
  ],
  "bytecode": "0x60a06040523073ffffffffffffffffffffffffffffffffffffffff1660809073ffffffffffffffffffffffffffffffffffffffff1660601b8152503480156200004757600080fd5b50620000586200006e60201b60201c565b620000686200006e60201b60201c565b62000219565b600060019054906101000a900460ff1615620000c1576040517f08c379a0000000000000000000000000000000000000000000000000000000008152600401620000b8906200016d565b60405180910390fd5b60ff801660008054906101000a900460ff1660ff161015620001335760ff6000806101000a81548160ff021916908360ff1602179055507f7f26b83ff96e1f2b6a682f133852f6798a09c465da95921460cefb384740249860ff6040516200012a91906200018f565b60405180910390a15b565b600062000144602783620001ac565b91506200015182620001ca565b604082019050919050565b6200016781620001bd565b82525050565b60006020820190508181036000830152620001888162000135565b9050919050565b6000602082019050620001a660008301846200015c565b92915050565b600082825260208201905092915050565b600060ff82169050919050565b7f496e697469616c697a61626c653a20636f6e747261637420697320696e69746960008201527f616c697a696e6700000000000000000000000000000000000000000000000000602082015250565b60805160601c6159c06200025460003960008181610c2001528181610caf01528181610de901528181610e780152610f2801526159c06000f3fe6080604052600436106101405760003560e01c8063716de6db116100b6578063a78dac0d1161006f578063a78dac0d14610489578063c0c53b8b146104c6578063c57601db146104ef578063c62b919e1461051a578063f1cb7e0614610545578063f2fde38b1461058257610140565b8063716de6db146103515780637a1dc0701461038e57806388083d50146103b95780638da5cb5b146103e4578063a22aed081461040f578063a39e8b451461044c57610140565b80633659cfe6116101085780633659cfe6146102505780633b3b57de146102795780634f1ef286146102b657806352d1902d146102d257806364c17056146102fd578063715018a61461033a57610140565b806301ffc9a7146101455780630437c38f146101825780630cfe46e6146101bf5780631c604e14146101fc5780633276d9ff14610225575b600080fd5b34801561015157600080fd5b5061016c60048036038101906101679190613959565b6105ab565b6040516101799190614526565b60405180910390f35b34801561018e57600080fd5b506101a960048036038101906101a49190613a20565b61064b565b6040516101b691906149a0565b60405180910390f35b3480156101cb57600080fd5b506101e660048036038101906101e19190613982565b610a64565b6040516101f3919061455c565b60405180910390f35b34801561020857600080fd5b50610223600480360381019061021e919061373d565b610a84565b005b34801561023157600080fd5b5061023a610bf8565b604051610247919061457e565b60405180910390f35b34801561025c57600080fd5b50610277600480360381019061027291906136c5565b610c1e565b005b34801561028557600080fd5b506102a0600480360381019061029b91906138cb565b610dcd565b6040516102ad9190614488565b60405180910390f35b6102d060048036038101906102cb91906137cc565b610de7565b005b3480156102de57600080fd5b506102e7610f24565b6040516102f49190614541565b60405180910390f35b34801561030957600080fd5b50610324600480360381019061031f9190613b3d565b610fdd565b604051610331919061464e565b60405180910390f35b34801561034657600080fd5b5061034f611089565b005b34801561035d57600080fd5b5061037860048036038101906103739190613c37565b61109d565b60405161038591906149a0565b60405180910390f35b34801561039a57600080fd5b506103a36115e5565b6040516103b091906149a0565b60405180910390f35b3480156103c557600080fd5b506103ce6115eb565b6040516103db91906149a0565b60405180910390f35b3480156103f057600080fd5b506103f96115f5565b6040516104069190614488565b60405180910390f35b34801561041b57600080fd5b5061043660048036038101906104319190613849565b61161f565b60405161044391906149a0565b60405180910390f35b34801561045857600080fd5b50610473600480360381019061046e9190613bcb565b611bf9565b60405161048091906149a0565b60405180910390f35b34801561049557600080fd5b506104b060048036038101906104ab9190613b8f565b611c13565b6040516104bd91906149a0565b60405180910390f35b3480156104d257600080fd5b506104ed60048036038101906104e891906136ee565b611d60565b005b3480156104fb57600080fd5b50610504611f6c565b60405161051191906145b4565b60405180910390f35b34801561052657600080fd5b5061052f611f92565b60405161053c9190614599565b60405180910390f35b34801561055157600080fd5b5061056c6004803603810190610567919061391d565b611fb8565b604051610579919061455c565b60405180910390f35b34801561058e57600080fd5b506105a960048036038101906105a491906136c5565b612020565b005b6000633b3b57de60e01b7bffffffffffffffffffffffffffffffffffffffffffffffffffffffff1916827bffffffffffffffffffffffffffffffffffffffffffffffffffffffff19161480610644575063f1cb7e0660e01b7bffffffffffffffffffffffffffffffffffffffffffffffffffffffff1916827bffffffffffffffffffffffffffffffffffffffffffffffffffffffff1916145b9050919050565b600061072b6040518060400160405280600981526020017f7374617465526f6f74000000000000000000000000000000000000000000000081525060cb60009054906101000a900473ffffffffffffffffffffffffffffffffffffffff1673ffffffffffffffffffffffffffffffffffffffff16639588eca26040518163ffffffff1660e01b815260040160206040518083038186803b1580156106ee57600080fd5b505afa158015610702573d6000803e3d6000fd5b505050506040513d601f19601f820116820180604052508101906107269190613b66565b6120a4565b600060cb60009054906101000a900473ffffffffffffffffffffffffffffffffffffffff1673ffffffffffffffffffffffffffffffffffffffff166335befa5d6040518163ffffffff1660e01b815260040160206040518083038186803b15801561079557600080fd5b505afa1580156107a9573d6000803e3d6000fd5b505050506040513d601f19601f820116820180604052508101906107cd91906139f7565b905060008686905011610815576040517f08c379a000000000000000000000000000000000000000000000000000000000815260040161080c906148e0565b60405180910390fd5b6000848490501161085b576040517f08c379a0000000000000000000000000000000000000000000000000000000008152600401610852906146a0565b60405180910390fd5b6000811361089e576040517f08c379a000000000000000000000000000000000000000000000000000000000815260040161089590614980565b60405180910390fd5b8089146108e0576040517f08c379a00000000000000000000000000000000000000000000000000000000081526004016108d7906146e0565b60405180910390fd5b60006108fe886060013589600001358a60a001358b60800135612140565b9050600061091689600001358a604001358888611bf9565b9050600082141561095c576040517f08c379a0000000000000000000000000000000000000000000000000000000008152600401610953906146c0565b60405180910390fd5b6000610a0e60cb60009054906101000a900473ffffffffffffffffffffffffffffffffffffffff1673ffffffffffffffffffffffffffffffffffffffff16639588eca26040518163ffffffff1660e01b815260040160206040518083038186803b1580156109c957600080fd5b505afa1580156109dd573d6000803e3d6000fd5b505050506040513d601f19601f82011682018060405250810190610a019190613b66565b8b602001358b8b8f61109d565b9050808314610a52576040517f08c379a0000000000000000000000000000000000000000000000000000000008152600401610a4990614840565b60405180910390fd5b81945050505050979650505050505050565b6060610a7a610a758686868661216d565b61227a565b9050949350505050565b60008060019054906101000a900460ff16159050808015610ab55750600160008054906101000a900460ff1660ff16105b80610ae25750610ac4306122fd565b158015610ae15750600160008054906101000a900460ff1660ff16145b5b610b21576040517f08c379a0000000000000000000000000000000000000000000000000000000008152600401610b1890614820565b60405180910390fd5b60016000806101000a81548160ff021916908360ff1602179055508015610b5e576001600060016101000a81548160ff0219169083151502179055505b610b69868686611d60565b8260cc9080519060200190610b7f929190612dc3565b508160cd81905550610b8f612320565b610b97612379565b8015610bf05760008060016101000a81548160ff0219169083151502179055507f7f26b83ff96e1f2b6a682f133852f6798a09c465da95921460cefb38474024986001604051610be79190614633565b60405180910390a15b505050505050565b60c960009054906101000a900473ffffffffffffffffffffffffffffffffffffffff1681565b7f000000000000000000000000000000000000000000000000000000000000000073ffffffffffffffffffffffffffffffffffffffff163073ffffffffffffffffffffffffffffffffffffffff161415610cad576040517f08c379a0000000000000000000000000000000000000000000000000000000008152600401610ca490614740565b60405180910390fd5b7f000000000000000000000000000000000000000000000000000000000000000073ffffffffffffffffffffffffffffffffffffffff16610cec6123ca565b73ffffffffffffffffffffffffffffffffffffffff1614610d42576040517f08c379a0000000000000000000000000000000000000000000000000000000008152600401610d3990614780565b60405180910390fd5b610d4b81612421565b610dca81600067ffffffffffffffff811115610d90577f4e487b7100000000000000000000000000000000000000000000000000000000600052604160045260246000fd5b6040519080825280601f01601f191660200182016040528015610dc25781602001600182028036833780820191505090505b50600061242c565b50565b6000610de082630cfe46e660e01b6125a9565b9050919050565b7f000000000000000000000000000000000000000000000000000000000000000073ffffffffffffffffffffffffffffffffffffffff163073ffffffffffffffffffffffffffffffffffffffff161415610e76576040517f08c379a0000000000000000000000000000000000000000000000000000000008152600401610e6d90614740565b60405180910390fd5b7f000000000000000000000000000000000000000000000000000000000000000073ffffffffffffffffffffffffffffffffffffffff16610eb56123ca565b73ffffffffffffffffffffffffffffffffffffffff1614610f0b576040517f08c379a0000000000000000000000000000000000000000000000000000000008152600401610f0290614780565b60405180910390fd5b610f1482612421565b610f208282600161242c565b5050565b60007f000000000000000000000000000000000000000000000000000000000000000073ffffffffffffffffffffffffffffffffffffffff163073ffffffffffffffffffffffffffffffffffffffff1614610fb4576040517f08c379a0000000000000000000000000000000000000000000000000000000008152600401610fab906147a0565b60405180910390fd5b7f360894a13ba1a3210667c828492db98dca3e2076cc3735a920a3ca505d382bbc60001b905090565b60cc8181548110610fed57600080fd5b90600052602060002001600091509050805461100890614f65565b80601f016020809104026020016040519081016040528092919081815260200182805461103490614f65565b80156110815780601f1061105657610100808354040283529160200191611081565b820191906000526020600020905b81548152906001019060200180831161106457829003601f168201915b505050505081565b6110916126b3565b61109b6000612731565b565b600080869050600060fa9050600084111561130457600086869050116110f8576040517f08c379a00000000000000000000000000000000000000000000000000000000081526004016110ef90614760565b60405180910390fd5b600061115287876000818110611137577f4e487b7100000000000000000000000000000000000000000000000000000000600052603260045260246000fd5b905060c0020180360381019061114d9190613b14565b6127f7565b90506000600367ffffffffffffffff811115611197577f4e487b7100000000000000000000000000000000000000000000000000000000600052604160045260246000fd5b6040519080825280602002602001820160405280156111c55781602001602082028036833780820191505090505b50905070535441524b4e45545f53544154455f563081600081518110611214577f4e487b7100000000000000000000000000000000000000000000000000000000600052603260045260246000fd5b602002602001018181525050818160018151811061125b577f4e487b7100000000000000000000000000000000000000000000000000000000600052603260045260246000fd5b60200260200101818152505085816002815181106112a2577f4e487b7100000000000000000000000000000000000000000000000000000000600052603260045260246000fd5b60200260200101818152505060006112b98261161f565b90508481146112fd576040517f08c379a00000000000000000000000000000000000000000000000000000000081526004016112f4906147c0565b60405180910390fd5b8294505050505b6000868690501161134a576040517f08c379a000000000000000000000000000000000000000000000000000000000815260040161134190614940565b60405180910390fd5b60006001905060005b8787905081101561156d576000831261155a5760008888838181106113a1577f4e487b7100000000000000000000000000000000000000000000000000000000600052603260045260246000fd5b905060c002018036038101906113b79190613b14565b90506113c2816127f7565b8514611403576040517f08c379a00000000000000000000000000000000000000000000000000000000081526004016113fa90614960565b60405180910390fd5b6000600181111561143d577f4e487b7100000000000000000000000000000000000000000000000000000000600052602160045260246000fd5b8160000151600181111561147a577f4e487b7100000000000000000000000000000000000000000000000000000000600052602160045260246000fd5b14156114c757600180858c901c161492506001151583151514156114a85780602001516020015194506114b4565b80602001516000015194505b83806114bf90614f1c565b945050611558565b60006114e58b83604001516020015187856040015160400151612900565b905060001515811515141561152f576040517f08c379a000000000000000000000000000000000000000000000000000000000815260040161152690614800565b60405180910390fd5b81604001516000015195506000826040015160400151905080866115539190614cda565b955050505b505b808061156590614fc8565b915050611353565b507fffffffffffffffffffffffffffffffffffffffffffffffffffffffffffffffff8214156115a1578293505050506115dc565b6040517f08c379a00000000000000000000000000000000000000000000000000000000081526004016115d390614880565b60405180910390fd5b95945050505050565b60cd5481565b600060cd54905090565b6000603360009054906101000a900473ffffffffffffffffffffffffffffffffffffffff16905090565b600080604051806060016040528060008152602001600081526020016000815250905060005b600284516116539190614c4f565b81101561192e577f0800000000000011000000000000000000000000000000000000000000000001848260026116899190614c80565b815181106116c0577f4e487b7100000000000000000000000000000000000000000000000000000000600052603260045260246000fd5b602002602001015183600060038110611702577f4e487b7100000000000000000000000000000000000000000000000000000000600052603260045260246000fd5b60200201516117119190614bf9565b61171b9190615011565b82600060038110611755577f4e487b7100000000000000000000000000000000000000000000000000000000600052603260045260246000fd5b6020020181815250507f080000000000001100000000000000000000000000000000000000000000000184600183600261178f9190614c80565b6117999190614bf9565b815181106117d0577f4e487b7100000000000000000000000000000000000000000000000000000000600052603260045260246000fd5b602002602001015183600160038110611812577f4e487b7100000000000000000000000000000000000000000000000000000000600052603260045260246000fd5b60200201516118219190614bf9565b61182b9190615011565b82600160038110611865577f4e487b7100000000000000000000000000000000000000000000000000000000600052603260045260246000fd5b60200201818152505060ca60009054906101000a900473ffffffffffffffffffffffffffffffffffffffff1673ffffffffffffffffffffffffffffffffffffffff166325cc70e8836040518263ffffffff1660e01b81526004016118c9919061450b565b60606040518083038186803b1580156118e157600080fd5b505afa1580156118f5573d6000803e3d6000fd5b505050506040513d601f19601f820116820180604052508101906119199190613820565b9150808061192690614fc8565b915050611645565b5060006002845161193f9190615011565b90506001811415611a50577f0800000000000011000000000000000000000000000000000000000000000001846001865161197a9190614d6e565b815181106119b1577f4e487b7100000000000000000000000000000000000000000000000000000000600052603260045260246000fd5b6020026020010151836000600381106119f3577f4e487b7100000000000000000000000000000000000000000000000000000000600052603260045260246000fd5b6020020151611a029190614bf9565b611a0c9190615011565b82600060038110611a46577f4e487b7100000000000000000000000000000000000000000000000000000000600052603260045260246000fd5b6020020181815250505b7f08000000000000110000000000000000000000000000000000000000000000016001838360038110611aac577f4e487b7100000000000000000000000000000000000000000000000000000000600052603260045260246000fd5b6020020151611abb9190614bf9565b611ac59190615011565b828260038110611afe577f4e487b7100000000000000000000000000000000000000000000000000000000600052603260045260246000fd5b60200201818152505060ca60009054906101000a900473ffffffffffffffffffffffffffffffffffffffff1673ffffffffffffffffffffffffffffffffffffffff166325cc70e8836040518263ffffffff1660e01b8152600401611b62919061450b565b60606040518083038186803b158015611b7a57600080fd5b505afa158015611b8e573d6000803e3d6000fd5b505050506040513d601f19601f82011682018060405250810190611bb29190613820565b600060038110611beb577f4e487b7100000000000000000000000000000000000000000000000000000000600052603260045260246000fd5b602002015192505050919050565b6000611c0985858585600061109d565b9050949350505050565b60008060c960009054906101000a900473ffffffffffffffffffffffffffffffffffffffff1673ffffffffffffffffffffffffffffffffffffffff1663aa1e84de611c5e8686612946565b6040518263ffffffff1660e01b8152600401611c7a919061455c565b60006040518083038186803b158015611c9257600080fd5b505afa158015611ca6573d6000803e3d6000fd5b505050506040513d6000823e3d601f19601f82011682018060405250810190611ccf919061388a565b90506000815111611d15576040517f08c379a0000000000000000000000000000000000000000000000000000000008152600401611d0c90614720565b60405180910390fd5b80600081518110611d4f577f4e487b7100000000000000000000000000000000000000000000000000000000600052603260045260246000fd5b602002602001015191505092915050565b60008060019054906101000a900460ff16159050808015611d915750600160008054906101000a900460ff1660ff16105b80611dbe5750611da0306122fd565b158015611dbd5750600160008054906101000a900460ff1660ff16145b5b611dfd576040517f08c379a0000000000000000000000000000000000000000000000000000000008152600401611df490614820565b60405180910390fd5b60016000806101000a81548160ff021916908360ff1602179055508015611e3a576001600060016101000a81548160ff0219169083151502179055505b8360c960006101000a81548173ffffffffffffffffffffffffffffffffffffffff021916908373ffffffffffffffffffffffffffffffffffffffff1602179055508260ca60006101000a81548173ffffffffffffffffffffffffffffffffffffffff021916908373ffffffffffffffffffffffffffffffffffffffff1602179055508160cb60006101000a81548173ffffffffffffffffffffffffffffffffffffffff021916908373ffffffffffffffffffffffffffffffffffffffff160217905550611f05612320565b611f0d612379565b8015611f665760008060016101000a81548160ff0219169083151502179055507f7f26b83ff96e1f2b6a682f133852f6798a09c465da95921460cefb38474024986001604051611f5d9190614633565b60405180910390a15b50505050565b60cb60009054906101000a900473ffffffffffffffffffffffffffffffffffffffff1681565b60ca60009054906101000a900473ffffffffffffffffffffffffffffffffffffffff1681565b6060603c821415611fe357611fdc611fd784630cfe46e660e01b6125a9565b61227a565b905061201a565b61232c82141561200d5761200661200184630cfe46e660e01b6125a9565b61227a565b905061201a565b61201760006129d6565b90505b92915050565b6120286126b3565b600073ffffffffffffffffffffffffffffffffffffffff168173ffffffffffffffffffffffffffffffffffffffff161415612098576040517f08c379a000000000000000000000000000000000000000000000000000000000815260040161208f90614700565b60405180910390fd5b6120a181612731565b50565b61213c82826040516024016120ba929190614670565b6040516020818303038152906040527fb60e72cc000000000000000000000000000000000000000000000000000000007bffffffffffffffffffffffffffffffffffffffffffffffffffffffff19166020820180517bffffffffffffffffffffffffffffffffffffffffffffffffffffffff8381831617835250505050612a60565b5050565b60008061215f6121596121538888611c13565b86611c13565b84611c13565b905080915050949350505050565b600080858581019061217f9190613ad3565b90506000848481019061219291906138cb565b905060006121a28260001c612a89565b905060cd5483604001516020018181525050808360400151604001818152505060003073ffffffffffffffffffffffffffffffffffffffff16630437c38f856000015186602001518760400151886060015189608001516040518663ffffffff1660e01b81526004016122199594939291906145cf565b60206040518083038186803b15801561223157600080fd5b505afa158015612245573d6000803e3d6000fd5b505050506040513d601f19601f820116820180604052508101906122699190613b66565b905080945050505050949350505050565b6060602067ffffffffffffffff8111156122bd577f4e487b7100000000000000000000000000000000000000000000000000000000600052604160045260246000fd5b6040519080825280601f01601f1916602001820160405280156122ef5781602001600182028036833780820191505090505b509050816020820152919050565b6000808273ffffffffffffffffffffffffffffffffffffffff163b119050919050565b600060019054906101000a900460ff1661236f576040517f08c379a000000000000000000000000000000000000000000000000000000000815260040161236690614920565b60405180910390fd5b612377612abc565b565b600060019054906101000a900460ff166123c8576040517f08c379a00000000000000000000000000000000000000000000000000000000081526004016123bf90614920565b60405180910390fd5b565b60006123f87f360894a13ba1a3210667c828492db98dca3e2076cc3735a920a3ca505d382bbc60001b612b1d565b60000160009054906101000a900473ffffffffffffffffffffffffffffffffffffffff16905090565b6124296126b3565b50565b6124587f4910fdfa16fed3260ed0e7147f7cc6da11a60208b5b9406d12a635614ffd914360001b612b27565b60000160009054906101000a900460ff161561247c5761247783612b31565b6125a4565b8273ffffffffffffffffffffffffffffffffffffffff166352d1902d6040518163ffffffff1660e01b815260040160206040518083038186803b1580156124c257600080fd5b505afa9250505080156124f357506040513d601f19601f820116820180604052508101906124f091906138f4565b60015b612532576040517f08c379a000000000000000000000000000000000000000000000000000000000815260040161252990614860565b60405180910390fd5b7f360894a13ba1a3210667c828492db98dca3e2076cc3735a920a3ca505d382bbc60001b8114612597576040517f08c379a000000000000000000000000000000000000000000000000000000000815260040161258e906147e0565b60405180910390fd5b506125a3838383612bea565b5b505050565b6000807f03ffffffffffffffffffffffffffffffffffffffffffffffffffffffffffffff8460001c1690506000633b3b57de60e01b826040516024016125ef91906149a0565b604051602081830303815290604052907bffffffffffffffffffffffffffffffffffffffffffffffffffffffff19166020820180517bffffffffffffffffffffffffffffffffffffffffffffffffffffffff838183161783525050505090503060cc82868560405160200161266491906149a0565b6040516020818303038152906040526040517f556f18300000000000000000000000000000000000000000000000000000000081526004016126aa9594939291906144a3565b60405180910390fd5b6126bb612c16565b73ffffffffffffffffffffffffffffffffffffffff166126d96115f5565b73ffffffffffffffffffffffffffffffffffffffff161461272f576040517f08c379a0000000000000000000000000000000000000000000000000000000008152600401612726906148c0565b60405180910390fd5b565b6000603360009054906101000a900473ffffffffffffffffffffffffffffffffffffffff16905081603360006101000a81548173ffffffffffffffffffffffffffffffffffffffff021916908373ffffffffffffffffffffffffffffffffffffffff1602179055508173ffffffffffffffffffffffffffffffffffffffff168173ffffffffffffffffffffffffffffffffffffffff167f8be0079c531659141344cd1fd0a4f28419497f9722a3daafe3b4186f6b6457e060405160405180910390a35050565b6000806000905060006001811115612838577f4e487b7100000000000000000000000000000000000000000000000000000000600052602160045260246000fd5b83600001516001811115612875577f4e487b7100000000000000000000000000000000000000000000000000000000600052602160045260246000fd5b141561289c57612895836020015160000151846020015160200151611c13565b90506128f7565b7f08000000000000110000000000000000000000000000000000000000000000018360400151604001516128e0856040015160000151866040015160200151611c13565b6128ea9190614bf9565b6128f49190615011565b90505b80915050919050565b6000808360ff6129109190614d6e565b905060006001846129219190614d6e565b8561292c9190614d6e565b828389901b901c901c905085811492505050949350505050565b60606000604067ffffffffffffffff81111561298b577f4e487b7100000000000000000000000000000000000000000000000000000000600052604160045260246000fd5b6040519080825280601f01601f1916602001820160405280156129bd5781602001600182028036833780820191505090505b5090508360208201528260408201528091505092915050565b6060601467ffffffffffffffff811115612a19577f4e487b7100000000000000000000000000000000000000000000000000000000600052604160045260246000fd5b6040519080825280601f01601f191660200182016040528015612a4b5781602001600182028036833780820191505090505b509050600c6101000a82026020820152919050565b60008151905060006a636f6e736f6c652e6c6f679050602083016000808483855afa5050505050565b6000612ab57f029539a1d23af1810c48a07fe7fc66a3b34fbc8b37e9b3cdb97bb88ceab7e4bf83611c13565b9050919050565b600060019054906101000a900460ff16612b0b576040517f08c379a0000000000000000000000000000000000000000000000000000000008152600401612b0290614920565b60405180910390fd5b612b1b612b16612c16565b612731565b565b6000819050919050565b6000819050919050565b612b3a816122fd565b612b79576040517f08c379a0000000000000000000000000000000000000000000000000000000008152600401612b70906148a0565b60405180910390fd5b80612ba67f360894a13ba1a3210667c828492db98dca3e2076cc3735a920a3ca505d382bbc60001b612b1d565b60000160006101000a81548173ffffffffffffffffffffffffffffffffffffffff021916908373ffffffffffffffffffffffffffffffffffffffff16021790555050565b612bf383612c1e565b600082511180612c005750805b15612c1157612c0f8383612c6d565b505b505050565b600033905090565b612c2781612b31565b8073ffffffffffffffffffffffffffffffffffffffff167fbc7cd75a20ee27fd9adebab32041f755214dbc6bffa90cc0225b39da2e5c2d3b60405160405180910390a250565b6060612c78836122fd565b612cb7576040517f08c379a0000000000000000000000000000000000000000000000000000000008152600401612cae90614900565b60405180910390fd5b6000808473ffffffffffffffffffffffffffffffffffffffff1684604051612cdf9190614471565b600060405180830381855af49150503d8060008114612d1a576040519150601f19603f3d011682016040523d82523d6000602084013e612d1f565b606091505b5091509150612d47828260405180606001604052806027815260200161596460279139612d51565b9250505092915050565b60608315612d6157829050612d6c565b612d6b8383612d73565b5b9392505050565b600082511115612d865781518083602001fd5b806040517f08c379a0000000000000000000000000000000000000000000000000000000008152600401612dba919061464e565b60405180910390fd5b828054828255906000526020600020908101928215612e12579160200282015b82811115612e11578251829080519060200190612e01929190612e23565b5091602001919060010190612de3565b5b509050612e1f9190612ea9565b5090565b828054612e2f90614f65565b90600052602060002090601f016020900481019282612e515760008555612e98565b82601f10612e6a57805160ff1916838001178555612e98565b82800160010185558215612e98579182015b82811115612e97578251825591602001919060010190612e7c565b5b509050612ea59190612ecd565b5090565b5b80821115612ec95760008181612ec09190612eea565b50600101612eaa565b5090565b5b80821115612ee6576000816000905550600101612ece565b5090565b508054612ef690614f65565b6000825580601f10612f085750612f27565b601f016020900490600052602060002090810190612f269190612ecd565b5b50565b6000612f3d612f38846149e0565b6149bb565b90508083825260208201905082856020860282011115612f5c57600080fd5b60005b85811015612fa657813567ffffffffffffffff811115612f7e57600080fd5b808601612f8b89826133f3565b85526020850194506020840193505050600181019050612f5f565b5050509392505050565b6000612fc3612fbe84614a0c565b6149bb565b905080838252602082019050828560c0860282011115612fe257600080fd5b60005b858110156130125781612ff8888261363b565b845260208401935060c08301925050600181019050612fe5565b5050509392505050565b600061302f61302a84614a38565b6149bb565b9050808285602086028201111561304557600080fd5b60005b85811015613075578161305b88826136b0565b845260208401935060208301925050600181019050613048565b5050509392505050565b600061309261308d84614a5e565b6149bb565b905080838252602082019050828560208602820111156130b157600080fd5b60005b858110156130e157816130c7888261369b565b8452602084019350602083019250506001810190506130b4565b5050509392505050565b60006130fe6130f984614a5e565b6149bb565b9050808382526020820190508285602086028201111561311d57600080fd5b60005b8581101561314d578161313388826136b0565b845260208401935060208301925050600181019050613120565b5050509392505050565b600061316a61316584614a8a565b6149bb565b90508281526020810184848401111561318257600080fd5b61318d848285614eda565b509392505050565b60006131a86131a384614abb565b6149bb565b9050828152602081018484840111156131c057600080fd5b6131cb848285614eda565b509392505050565b6000813590506131e2816158e0565b92915050565b600082601f8301126131f957600080fd5b8135613209848260208601612f2a565b91505092915050565b60008083601f84011261322457600080fd5b8235905067ffffffffffffffff81111561323d57600080fd5b6020830191508360c082028301111561325557600080fd5b9250929050565b600082601f83011261326d57600080fd5b813561327d848260208601612fb0565b91505092915050565b600082601f83011261329757600080fd5b60036132a484828561301c565b91505092915050565b600082601f8301126132be57600080fd5b81356132ce84826020860161307f565b91505092915050565b600082601f8301126132e857600080fd5b81516132f88482602086016130eb565b91505092915050565b600081359050613310816158f7565b92915050565b600081519050613325816158f7565b92915050565b60008135905061333a8161590e565b92915050565b60008083601f84011261335257600080fd5b8235905067ffffffffffffffff81111561336b57600080fd5b60208301915083600182028301111561338357600080fd5b9250929050565b600082601f83011261339b57600080fd5b81356133ab848260208601613157565b91505092915050565b6000813590506133c381615925565b92915050565b6000813590506133d881615935565b92915050565b6000815190506133ed81615935565b92915050565b600082601f83011261340457600080fd5b8135613414848260208601613195565b91505092915050565b60006040828403121561342f57600080fd5b61343960406149bb565b905060006134498482850161369b565b600083015250602061345d8482850161369b565b60208301525092915050565b600060c0828403121561347b57600080fd5b81905092915050565b600060c0828403121561349657600080fd5b6134a060c06149bb565b905060006134b08482850161369b565b60008301525060206134c48482850161369b565b60208301525060406134d88482850161369b565b60408301525060606134ec8482850161369b565b60608301525060806135008482850161369b565b60808301525060a06135148482850161369b565b60a08301525092915050565b60006060828403121561353257600080fd5b61353c60606149bb565b9050600061354c8482850161369b565b60008301525060206135608482850161369b565b60208301525060406135748482850161369b565b60408301525092915050565b6000610140828403121561359357600080fd5b61359d60a06149bb565b905060006135ad848285016133c9565b60008301525060206135c18482850161369b565b60208301525060406135d584828501613484565b60408301525061010082013567ffffffffffffffff8111156135f657600080fd5b6136028482850161325c565b60608301525061012082013567ffffffffffffffff81111561362357600080fd5b61362f8482850161325c565b60808301525092915050565b600060c0828403121561364d57600080fd5b61365760606149bb565b90506000613667848285016133b4565b600083015250602061367b8482850161341d565b602083015250606061368f84828501613520565b60408301525092915050565b6000813590506136aa8161594c565b92915050565b6000815190506136bf8161594c565b92915050565b6000602082840312156136d757600080fd5b60006136e5848285016131d3565b91505092915050565b60008060006060848603121561370357600080fd5b6000613711868287016131d3565b9350506020613722868287016131d3565b9250506040613733868287016131d3565b9150509250925092565b600080600080600060a0868803121561375557600080fd5b6000613763888289016131d3565b9550506020613774888289016131d3565b9450506040613785888289016131d3565b935050606086013567ffffffffffffffff8111156137a257600080fd5b6137ae888289016131e8565b92505060806137bf8882890161369b565b9150509295509295909350565b600080604083850312156137df57600080fd5b60006137ed858286016131d3565b925050602083013567ffffffffffffffff81111561380a57600080fd5b6138168582860161338a565b9150509250929050565b60006060828403121561383257600080fd5b600061384084828501613286565b91505092915050565b60006020828403121561385b57600080fd5b600082013567ffffffffffffffff81111561387557600080fd5b613881848285016132ad565b91505092915050565b60006020828403121561389c57600080fd5b600082015167ffffffffffffffff8111156138b657600080fd5b6138c2848285016132d7565b91505092915050565b6000602082840312156138dd57600080fd5b60006138eb84828501613301565b91505092915050565b60006020828403121561390657600080fd5b600061391484828501613316565b91505092915050565b6000806040838503121561393057600080fd5b600061393e85828601613301565b925050602061394f8582860161369b565b9150509250929050565b60006020828403121561396b57600080fd5b60006139798482850161332b565b91505092915050565b6000806000806040858703121561399857600080fd5b600085013567ffffffffffffffff8111156139b257600080fd5b6139be87828801613340565b9450945050602085013567ffffffffffffffff8111156139dd57600080fd5b6139e987828801613340565b925092505092959194509250565b600060208284031215613a0957600080fd5b6000613a17848285016133de565b91505092915050565b6000806000806000806000610140888a031215613a3c57600080fd5b6000613a4a8a828b016133c9565b9750506020613a5b8a828b0161369b565b9650506040613a6c8a828b01613469565b95505061010088013567ffffffffffffffff811115613a8a57600080fd5b613a968a828b01613212565b945094505061012088013567ffffffffffffffff811115613ab657600080fd5b613ac28a828b01613212565b925092505092959891949750929550565b600060208284031215613ae557600080fd5b600082013567ffffffffffffffff811115613aff57600080fd5b613b0b84828501613580565b91505092915050565b600060c08284031215613b2657600080fd5b6000613b348482850161363b565b91505092915050565b600060208284031215613b4f57600080fd5b6000613b5d8482850161369b565b91505092915050565b600060208284031215613b7857600080fd5b6000613b86848285016136b0565b91505092915050565b60008060408385031215613ba257600080fd5b6000613bb08582860161369b565b9250506020613bc18582860161369b565b9150509250929050565b60008060008060608587031215613be157600080fd5b6000613bef8782880161369b565b9450506020613c008782880161369b565b935050604085013567ffffffffffffffff811115613c1d57600080fd5b613c2987828801613212565b925092505092959194509250565b600080600080600060808688031215613c4f57600080fd5b6000613c5d8882890161369b565b9550506020613c6e8882890161369b565b945050604086013567ffffffffffffffff811115613c8b57600080fd5b613c9788828901613212565b93509350506060613caa8882890161369b565b9150509295509295909350565b6000613cc38383613f5d565b905092915050565b6000613cd78383614411565b60c08301905092915050565b6000613cef8383614453565b60208301905092915050565b613d0481614da2565b82525050565b6000613d1582614b30565b613d1f8185614b8e565b935083602082028501613d3185614aec565b8060005b85811015613d6c57848403895281613d4d8582613cb7565b9450613d5883614b67565b925060208a01995050600181019050613d35565b50829750879550505050505092915050565b6000613d8982614b3b565b613d938185614b9f565b9350613d9e83614b01565b8060005b83811015613dcf578151613db68882613ccb565b9750613dc183614b74565b925050600181019050613da2565b5085935050505092915050565b613de581614b46565b613def8184614bb0565b9250613dfa82614b11565b8060005b83811015613e2b578151613e128782613ce3565b9650613e1d83614b81565b925050600181019050613dfe565b505050505050565b613e3c81614db4565b82525050565b613e4b81614dc0565b82525050565b613e5a81614dca565b82525050565b6000613e6b82614b51565b613e758185614bbb565b9350613e85818560208601614ee9565b613e8e8161512d565b840191505092915050565b6000613ea482614b51565b613eae8185614bcc565b9350613ebe818560208601614ee9565b80840191505092915050565b613ed381614e4a565b82525050565b613ee281614e6e565b82525050565b613ef181614e92565b82525050565b613f0081614eb6565b82525050565b613f0f81614e09565b82525050565b613f1e81614ec8565b82525050565b6000613f2f82614b5c565b613f398185614be8565b9350613f49818560208601614ee9565b613f528161512d565b840191505092915050565b60008154613f6a81614f65565b613f748186614bd7565b94506001821660008114613f8f5760018114613fa157613fd4565b60ff1983168652602086019350613fd4565b613faa85614b1b565b60005b83811015613fcc57815481890152600182019150602081019050613fad565b808801955050505b50505092915050565b6000613fea602d83614be8565b9150613ff58261513e565b604082019050919050565b600061400d602e83614be8565b91506140188261518d565b604082019050919050565b6000614030603783614be8565b915061403b826151dc565b604082019050919050565b6000614053602683614be8565b915061405e8261522b565b604082019050919050565b6000614076602983614be8565b91506140818261527a565b604082019050919050565b6000614099602c83614be8565b91506140a4826152c9565b604082019050919050565b60006140bc602583614be8565b91506140c782615318565b604082019050919050565b60006140df602c83614be8565b91506140ea82615367565b604082019050919050565b6000614102603883614be8565b915061410d826153b6565b604082019050919050565b6000614125604d83614be8565b915061413082615405565b606082019050919050565b6000614148602983614be8565b91506141538261547a565b604082019050919050565b600061416b604d83614be8565b9150614176826154c9565b606082019050919050565b600061418e602e83614be8565b91506141998261553e565b604082019050919050565b60006141b1602383614be8565b91506141bc8261558d565b604082019050919050565b60006141d4602e83614be8565b91506141df826155dc565b604082019050919050565b60006141f7603083614be8565b91506142028261562b565b604082019050919050565b600061421a602d83614be8565b91506142258261567a565b604082019050919050565b600061423d602083614be8565b9150614248826156c9565b602082019050919050565b6000614260602e83614be8565b915061426b826156f2565b604082019050919050565b6000614283602683614be8565b915061428e82615741565b604082019050919050565b60006142a6602b83614be8565b91506142b182615790565b604082019050919050565b60006142c9602a83614be8565b91506142d4826157df565b604082019050919050565b60006142ec603383614be8565b91506142f78261582e565b604082019050919050565b600061430f603383614be8565b915061431a8261587d565b604082019050919050565b60408201600082015161433b6000850182614453565b50602082015161434e6020850182614453565b50505050565b60c08201600082015161436a6000850182614453565b50602082015161437d6020850182614453565b5060408201516143906040850182614453565b5060608201516143a36060850182614453565b5060808201516143b66080850182614453565b5060a08201516143c960a0850182614453565b50505050565b6060820160008201516143e56000850182614453565b5060208201516143f86020850182614453565b50604082015161440b6040850182614453565b50505050565b60c0820160008201516144276000850182613ef7565b50602082015161443a6020850182614325565b50604082015161444d60608501826143cf565b50505050565b61445c81614e33565b82525050565b61446b81614e33565b82525050565b600061447d8284613e99565b915081905092915050565b600060208201905061449d6000830184613cfb565b92915050565b600060a0820190506144b86000830188613cfb565b81810360208301526144ca8187613d0a565b905081810360408301526144de8186613e60565b90506144ed6060830185613e51565b81810360808301526144ff8184613e60565b90509695505050505050565b60006060820190506145206000830184613ddc565b92915050565b600060208201905061453b6000830184613e33565b92915050565b60006020820190506145566000830184613e42565b92915050565b600060208201905081810360008301526145768184613e60565b905092915050565b60006020820190506145936000830184613eca565b92915050565b60006020820190506145ae6000830184613ed9565b92915050565b60006020820190506145c96000830184613ee8565b92915050565b6000610140820190506145e56000830188613f06565b6145f26020830187614462565b6145ff6040830186614354565b8181036101008301526146128185613d7e565b90508181036101208301526146278184613d7e565b90509695505050505050565b60006020820190506146486000830184613f15565b92915050565b600060208201905081810360008301526146688184613f24565b905092915050565b6000604082019050818103600083015261468a8185613f24565b90506146996020830184614462565b9392505050565b600060208201905081810360008301526146b981613fdd565b9050919050565b600060208201905081810360008301526146d981614000565b9050919050565b600060208201905081810360008301526146f981614023565b9050919050565b6000602082019050818103600083015261471981614046565b9050919050565b6000602082019050818103600083015261473981614069565b9050919050565b600060208201905081810360008301526147598161408c565b9050919050565b60006020820190508181036000830152614779816140af565b9050919050565b60006020820190508181036000830152614799816140d2565b9050919050565b600060208201905081810360008301526147b9816140f5565b9050919050565b600060208201905081810360008301526147d981614118565b9050919050565b600060208201905081810360008301526147f98161413b565b9050919050565b600060208201905081810360008301526148198161415e565b9050919050565b6000602082019050818103600083015261483981614181565b9050919050565b60006020820190508181036000830152614859816141a4565b9050919050565b60006020820190508181036000830152614879816141c7565b9050919050565b60006020820190508181036000830152614899816141ea565b9050919050565b600060208201905081810360008301526148b98161420d565b9050919050565b600060208201905081810360008301526148d981614230565b9050919050565b600060208201905081810360008301526148f981614253565b9050919050565b6000602082019050818103600083015261491981614276565b9050919050565b6000602082019050818103600083015261493981614299565b9050919050565b60006020820190508181036000830152614959816142bc565b9050919050565b60006020820190508181036000830152614979816142df565b9050919050565b6000602082019050818103600083015261499981614302565b9050919050565b60006020820190506149b56000830184614462565b92915050565b60006149c56149d6565b90506149d18282614f97565b919050565b6000604051905090565b600067ffffffffffffffff8211156149fb576149fa6150fe565b5b602082029050602081019050919050565b600067ffffffffffffffff821115614a2757614a266150fe565b5b602082029050602081019050919050565b600067ffffffffffffffff821115614a5357614a526150fe565b5b602082029050919050565b600067ffffffffffffffff821115614a7957614a786150fe565b5b602082029050602081019050919050565b600067ffffffffffffffff821115614aa557614aa46150fe565b5b614aae8261512d565b9050602081019050919050565b600067ffffffffffffffff821115614ad657614ad56150fe565b5b614adf8261512d565b9050602081019050919050565b60008190508160005260206000209050919050565b6000819050602082019050919050565b6000819050919050565b60008190508160005260206000209050919050565b600081549050919050565b600081519050919050565b600060039050919050565b600081519050919050565b600081519050919050565b6000600182019050919050565b6000602082019050919050565b6000602082019050919050565b600082825260208201905092915050565b600082825260208201905092915050565b600081905092915050565b600082825260208201905092915050565b600081905092915050565b600082825260208201905092915050565b600082825260208201905092915050565b6000614c0482614e33565b9150614c0f83614e33565b9250827fffffffffffffffffffffffffffffffffffffffffffffffffffffffffffffffff03821115614c4457614c43615042565b5b828201905092915050565b6000614c5a82614e33565b9150614c6583614e33565b925082614c7557614c74615071565b5b828204905092915050565b6000614c8b82614e33565b9150614c9683614e33565b9250817fffffffffffffffffffffffffffffffffffffffffffffffffffffffffffffffff0483118215151615614ccf57614cce615042565b5b828202905092915050565b6000614ce582614e09565b9150614cf083614e09565b9250827f800000000000000000000000000000000000000000000000000000000000000001821260008412151615614d2b57614d2a615042565b5b827f7fffffffffffffffffffffffffffffffffffffffffffffffffffffffffffffff018213600084121615614d6357614d62615042565b5b828203905092915050565b6000614d7982614e33565b9150614d8483614e33565b925082821015614d9757614d96615042565b5b828203905092915050565b6000614dad82614e13565b9050919050565b60008115159050919050565b6000819050919050565b60007fffffffff0000000000000000000000000000000000000000000000000000000082169050919050565b6000819050614e04826158cc565b919050565b6000819050919050565b600073ffffffffffffffffffffffffffffffffffffffff82169050919050565b6000819050919050565b600060ff82169050919050565b6000614e5582614e5c565b9050919050565b6000614e6782614e13565b9050919050565b6000614e7982614e80565b9050919050565b6000614e8b82614e13565b9050919050565b6000614e9d82614ea4565b9050919050565b6000614eaf82614e13565b9050919050565b6000614ec182614df6565b9050919050565b6000614ed382614e3d565b9050919050565b82818337600083830152505050565b60005b83811015614f07578082015181840152602081019050614eec565b83811115614f16576000848401525b50505050565b6000614f2782614e09565b91507f8000000000000000000000000000000000000000000000000000000000000000821415614f5a57614f59615042565b5b600182039050919050565b60006002820490506001821680614f7d57607f821691505b60208210811415614f9157614f906150cf565b5b50919050565b614fa08261512d565b810181811067ffffffffffffffff82111715614fbf57614fbe6150fe565b5b80604052505050565b6000614fd382614e33565b91507fffffffffffffffffffffffffffffffffffffffffffffffffffffffffffffffff82141561500657615005615042565b5b600182019050919050565b600061501c82614e33565b915061502783614e33565b92508261503757615036615071565b5b828206905092915050565b7f4e487b7100000000000000000000000000000000000000000000000000000000600052601160045260246000fd5b7f4e487b7100000000000000000000000000000000000000000000000000000000600052601260045260246000fd5b7f4e487b7100000000000000000000000000000000000000000000000000000000600052602160045260246000fd5b7f4e487b7100000000000000000000000000000000000000000000000000000000600052602260045260246000fd5b7f4e487b7100000000000000000000000000000000000000000000000000000000600052604160045260246000fd5b6000601f19601f8301169050919050565b7f73746f726167652070726f6f6673206d75737420686176652061746c6561737460008201527f206f6e6520656c656d656e742100000000000000000000000000000000000000602082015250565b7f7374617465726f6f742068617368206973206e6f74206665746368656420707260008201527f6f7065726c792120726576657274000000000000000000000000000000000000602082015250565b7f626c6f636b206e756d62657220646f65736e2774206d6174636820776974682060008201527f737461726b6e657420636f726520636f6e747261637421000000000000000000602082015250565b7f4f776e61626c653a206e6577206f776e657220697320746865207a65726f206160008201527f6464726573730000000000000000000000000000000000000000000000000000602082015250565b7f6861736865732072657475726e6564206c656e677468206973206c657373207460008201527f68616e207a65726f210000000000000000000000000000000000000000000000602082015250565b7f46756e6374696f6e206d7573742062652063616c6c6564207468726f7567682060008201527f64656c656761746563616c6c0000000000000000000000000000000000000000602082015250565b7f70726f6f6673206d75737420686176652061746c65617374206f6e6520656c6560008201527f6d656e7421000000000000000000000000000000000000000000000000000000602082015250565b7f46756e6374696f6e206d7573742062652063616c6c6564207468726f7567682060008201527f6163746976652070726f78790000000000000000000000000000000000000000602082015250565b7f555550535570677261646561626c653a206d757374206e6f742062652063616c60008201527f6c6564207468726f7567682064656c656761746563616c6c0000000000000000602082015250565b7f63616c63756c6174656420737461746520636f6d6d69746d656e7420646f657360008201527f6e2774206d61746368207769746820746865206578706563746564207374617460208201527f6520636f6d6d69746d656e742100000000000000000000000000000000000000604082015250565b7f45524331393637557067726164653a20756e737570706f727465642070726f7860008201527f6961626c65555549440000000000000000000000000000000000000000000000602082015250565b7f496e76616c69642070726f6f662c20706f74656e7469616c6c7920612070726f60008201527f6f6620666f72206120646966666572656e742073746f72616765207661722f2060208201527f6e6f6e20696e636c7573696f6e00000000000000000000000000000000000000604082015250565b7f496e697469616c697a61626c653a20636f6e747261637420697320616c72656160008201527f647920696e697469616c697a6564000000000000000000000000000000000000602082015250565b7f68617368657320646f6e2774206d617463682e20696e76616c6964207374617460008201527f6573210000000000000000000000000000000000000000000000000000000000602082015250565b7f45524331393637557067726164653a206e657720696d706c656d656e7461746960008201527f6f6e206973206e6f742055555053000000000000000000000000000000000000602082015250565b7f6c656e677468206f662070726f6f66206d69736d6174636865642c20696e766160008201527f6c69642070726f6f662073697a65212100000000000000000000000000000000602082015250565b7f455243313936373a206e657720696d706c656d656e746174696f6e206973206e60008201527f6f74206120636f6e747261637400000000000000000000000000000000000000602082015250565b7f4f776e61626c653a2063616c6c6572206973206e6f7420746865206f776e6572600082015250565b7f636f6e74726163742070726f6f6673206d75737420686176652061746c65617360008201527f74206f6e6520656c656d656e7421000000000000000000000000000000000000602082015250565b7f416464726573733a2064656c65676174652063616c6c20746f206e6f6e2d636f60008201527f6e74726163740000000000000000000000000000000000000000000000000000602082015250565b7f496e697469616c697a61626c653a20636f6e7472616374206973206e6f74206960008201527f6e697469616c697a696e67000000000000000000000000000000000000000000602082015250565b7f70726f6f66206172726179206d75737420686176652061746c65617374206f6e60008201527f6520656c656d656e742e00000000000000000000000000000000000000000000602082015250565b7f68617368206d69736d6174636820666f756e64212120696e76616c696420707260008201527f6f6f66207061746820726576657274696e672e00000000000000000000000000602082015250565b7f6661696c656420746f20666574636820737461726b6e657420636f726520636f60008201527f6e747261637420737461746520626c6f636b2100000000000000000000000000602082015250565b600281106158dd576158dc6150a0565b5b50565b6158e981614da2565b81146158f457600080fd5b50565b61590081614dc0565b811461590b57600080fd5b50565b61591781614dca565b811461592257600080fd5b50565b6002811061593257600080fd5b50565b61593e81614e09565b811461594957600080fd5b50565b61595581614e33565b811461596057600080fd5b5056fe416464726573733a206c6f772d6c6576656c2064656c65676174652063616c6c206661696c6564a2646970667358221220172387eef5ee971c4c53e7c1d32948ca7c7342ee88ea28cbf80cebed3fda3ae164736f6c63430008040033",
  "linkReferences": {},
  "deployedLinkReferences": {}
}