{
  "_format": "hh-sol-artifact-1",
  "contractName": "SNResolverStub",
  "sourceName": "contracts/SNResolverStub.sol",
  "abi": [
    {
      "inputs": [],
      "stateMutability": "nonpayable",
      "type": "constructor"
    },
    {
      "inputs": [
        {
          "internalType": "address",
          "name": "sender",
          "type": "address"
        },
        {
          "internalType": "string[]",
          "name": "urls",
          "type": "string[]"
        },
        {
          "internalType": "bytes",
          "name": "callData",
          "type": "bytes"
        },
        {
          "internalType": "bytes4",
          "name": "callbackFunction",
          "type": "bytes4"
        },
        {
          "internalType": "bytes",
          "name": "extraData",
          "type": "bytes"
        }
      ],
      "name": "OffchainLookup",
      "type": "error"
    },
    {
      "anonymous": false,
      "inputs": [
        {
          "indexed": false,
          "internalType": "address",
          "name": "previousAdmin",
          "type": "address"
        },
        {
          "indexed": false,
          "internalType": "address",
          "name": "newAdmin",
          "type": "address"
        }
      ],
      "name": "AdminChanged",
      "type": "event"
    },
    {
      "anonymous": false,
      "inputs": [
        {
          "indexed": true,
          "internalType": "address",
          "name": "beacon",
          "type": "address"
        }
      ],
      "name": "BeaconUpgraded",
      "type": "event"
    },
    {
      "anonymous": false,
      "inputs": [
        {
          "indexed": false,
          "internalType": "uint8",
          "name": "version",
          "type": "uint8"
        }
      ],
      "name": "Initialized",
      "type": "event"
    },
    {
      "anonymous": false,
      "inputs": [
        {
          "indexed": true,
          "internalType": "address",
          "name": "previousOwner",
          "type": "address"
        },
        {
          "indexed": true,
          "internalType": "address",
          "name": "newOwner",
          "type": "address"
        }
      ],
      "name": "OwnershipTransferred",
      "type": "event"
    },
    {
      "anonymous": false,
      "inputs": [
        {
          "indexed": true,
          "internalType": "address",
          "name": "implementation",
          "type": "address"
        }
      ],
      "name": "Upgraded",
      "type": "event"
    },
    {
      "inputs": [
        {
          "internalType": "bytes32",
          "name": "node",
          "type": "bytes32"
        }
      ],
      "name": "addr",
      "outputs": [
        {
          "internalType": "address",
          "name": "",
          "type": "address"
        }
      ],
      "stateMutability": "view",
      "type": "function"
    },
    {
      "inputs": [
        {
          "internalType": "bytes32",
          "name": "node",
          "type": "bytes32"
        },
        {
          "internalType": "uint256",
          "name": "coinType",
          "type": "uint256"
        }
      ],
      "name": "addr",
      "outputs": [
        {
          "internalType": "bytes",
          "name": "",
          "type": "bytes"
        }
      ],
      "stateMutability": "view",
      "type": "function"
    },
    {
      "inputs": [
        {
          "internalType": "bytes",
          "name": "response",
          "type": "bytes"
        },
        {
          "internalType": "bytes",
          "name": "extraData",
          "type": "bytes"
        }
      ],
      "name": "bytesAddrWithProof",
      "outputs": [
        {
          "internalType": "bytes",
          "name": "",
          "type": "bytes"
        }
      ],
      "stateMutability": "view",
      "type": "function"
    },
    {
      "inputs": [
        {
          "internalType": "uint256",
          "name": "",
          "type": "uint256"
        }
      ],
      "name": "gateways",
      "outputs": [
        {
          "internalType": "string",
          "name": "",
          "type": "string"
        }
      ],
      "stateMutability": "view",
      "type": "function"
    },
    {
      "inputs": [],
      "name": "getl2Resolver",
      "outputs": [
        {
          "internalType": "uint256",
          "name": "",
          "type": "uint256"
        }
      ],
      "stateMutability": "view",
      "type": "function"
    },
    {
      "inputs": [
        {
          "internalType": "uint256",
          "name": "a",
          "type": "uint256"
        },
        {
          "internalType": "uint256",
          "name": "b",
          "type": "uint256"
        }
      ],
      "name": "hash",
      "outputs": [
        {
          "internalType": "uint256",
          "name": "",
          "type": "uint256"
        }
      ],
      "stateMutability": "view",
      "type": "function"
    },
    {
      "inputs": [
        {
          "internalType": "address",
          "name": "pedersenAddress",
          "type": "address"
        },
        {
          "internalType": "address",
          "name": "poseidonAddress",
          "type": "address"
        },
        {
          "internalType": "address",
          "name": "_starknetCoreContractAddress",
          "type": "address"
        },
        {
          "internalType": "string[]",
          "name": "_gateways",
          "type": "string[]"
        },
        {
          "internalType": "uint256",
          "name": "_l2resolver",
          "type": "uint256"
        }
      ],
      "name": "initialize",
      "outputs": [],
      "stateMutability": "nonpayable",
      "type": "function"
    },
    {
      "inputs": [
        {
          "internalType": "address",
          "name": "pedersenAddress",
          "type": "address"
        },
        {
          "internalType": "address",
          "name": "poseidonAddress",
          "type": "address"
        },
        {
          "internalType": "address",
          "name": "_starknetCoreContractAddress",
          "type": "address"
        }
      ],
      "name": "initialize",
      "outputs": [],
      "stateMutability": "nonpayable",
      "type": "function"
    },
    {
      "inputs": [],
      "name": "l2resolver",
      "outputs": [
        {
          "internalType": "uint256",
          "name": "",
          "type": "uint256"
        }
      ],
      "stateMutability": "view",
      "type": "function"
    },
    {
      "inputs": [],
      "name": "owner",
      "outputs": [
        {
          "internalType": "address",
          "name": "",
          "type": "address"
        }
      ],
      "stateMutability": "view",
      "type": "function"
    },
    {
      "inputs": [],
      "name": "pedersen",
      "outputs": [
        {
          "internalType": "contract PedersenHash",
          "name": "",
          "type": "address"
        }
      ],
      "stateMutability": "view",
      "type": "function"
    },
    {
      "inputs": [],
      "name": "poseidon",
      "outputs": [
        {
          "internalType": "contract PoseidonHash3",
          "name": "",
          "type": "address"
        }
      ],
      "stateMutability": "view",
      "type": "function"
    },
    {
      "inputs": [
        {
          "internalType": "uint256[]",
          "name": "elems",
          "type": "uint256[]"
        }
      ],
      "name": "poseidonHashMany",
      "outputs": [
        {
          "internalType": "uint256",
          "name": "",
          "type": "uint256"
        }
      ],
      "stateMutability": "view",
      "type": "function"
    },
    {
      "inputs": [],
      "name": "proxiableUUID",
      "outputs": [
        {
          "internalType": "bytes32",
          "name": "",
          "type": "bytes32"
        }
      ],
      "stateMutability": "view",
      "type": "function"
    },
    {
      "inputs": [],
      "name": "renounceOwnership",
      "outputs": [],
      "stateMutability": "nonpayable",
      "type": "function"
    },
    {
      "inputs": [],
      "name": "starknetCoreContract",
      "outputs": [
        {
          "internalType": "contract StarknetCoreContract",
          "name": "",
          "type": "address"
        }
      ],
      "stateMutability": "view",
      "type": "function"
    },
    {
      "inputs": [
        {
          "internalType": "bytes4",
          "name": "interfaceID",
          "type": "bytes4"
        }
      ],
      "name": "supportsInterface",
      "outputs": [
        {
          "internalType": "bool",
          "name": "",
          "type": "bool"
        }
      ],
      "stateMutability": "pure",
      "type": "function"
    },
    {
      "inputs": [
        {
          "internalType": "address",
          "name": "newOwner",
          "type": "address"
        }
      ],
      "name": "transferOwnership",
      "outputs": [],
      "stateMutability": "nonpayable",
      "type": "function"
    },
    {
      "inputs": [
        {
          "internalType": "address",
          "name": "newImplementation",
          "type": "address"
        }
      ],
      "name": "upgradeTo",
      "outputs": [],
      "stateMutability": "nonpayable",
      "type": "function"
    },
    {
      "inputs": [
        {
          "internalType": "address",
          "name": "newImplementation",
          "type": "address"
        },
        {
          "internalType": "bytes",
          "name": "data",
          "type": "bytes"
        }
      ],
      "name": "upgradeToAndCall",
      "outputs": [],
      "stateMutability": "payable",
      "type": "function"
    },
    {
      "inputs": [
        {
          "internalType": "int256",
          "name": "blockNumber",
          "type": "int256"
        },
        {
          "components": [
            {
              "internalType": "uint256",
              "name": "contractStateRoot",
              "type": "uint256"
            },
            {
              "internalType": "uint256",
              "name": "contractAddress",
              "type": "uint256"
            },
            {
              "internalType": "uint256",
              "name": "storageVarAddress",
              "type": "uint256"
            },
            {
              "internalType": "uint256",
              "name": "classHash",
              "type": "uint256"
            },
            {
              "internalType": "uint256",
              "name": "hashVersion",
              "type": "uint256"
            },
            {
              "internalType": "uint256",
              "name": "nonce",
              "type": "uint256"
            }
          ],
          "internalType": "struct ContractData",
          "name": "contractData",
          "type": "tuple"
        },
        {
          "components": [
            {
              "internalType": "enum NodeType",
              "name": "nodeType",
              "type": "uint8"
            },
            {
              "components": [
                {
                  "internalType": "uint256",
                  "name": "leftHash",
                  "type": "uint256"
                },
                {
                  "internalType": "uint256",
                  "name": "rightHash",
                  "type": "uint256"
                }
              ],
              "internalType": "struct BinaryProof",
              "name": "binaryProof",
              "type": "tuple"
            },
            {
              "components": [
                {
                  "internalType": "uint256",
                  "name": "childHash",
                  "type": "uint256"
                },
                {
                  "internalType": "uint256",
                  "name": "path",
                  "type": "uint256"
                },
                {
                  "internalType": "uint256",
                  "name": "length",
                  "type": "uint256"
                }
              ],
              "internalType": "struct EdgeProof",
              "name": "edgeProof",
              "type": "tuple"
            }
          ],
          "internalType": "struct StarknetProof[]",
          "name": "contractProofArray",
          "type": "tuple[]"
        },
        {
          "components": [
            {
              "internalType": "enum NodeType",
              "name": "nodeType",
              "type": "uint8"
            },
            {
              "components": [
                {
                  "internalType": "uint256",
                  "name": "leftHash",
                  "type": "uint256"
                },
                {
                  "internalType": "uint256",
                  "name": "rightHash",
                  "type": "uint256"
                }
              ],
              "internalType": "struct BinaryProof",
              "name": "binaryProof",
              "type": "tuple"
            },
            {
              "components": [
                {
                  "internalType": "uint256",
                  "name": "childHash",
                  "type": "uint256"
                },
                {
                  "internalType": "uint256",
                  "name": "path",
                  "type": "uint256"
                },
                {
                  "internalType": "uint256",
                  "name": "length",
                  "type": "uint256"
                }
              ],
              "internalType": "struct EdgeProof",
              "name": "edgeProof",
              "type": "tuple"
            }
          ],
          "internalType": "struct StarknetProof[]",
          "name": "storageProofArray",
          "type": "tuple[]"
        }
      ],
      "name": "verifiedStorageValue",
      "outputs": [
        {
          "internalType": "uint256",
          "name": "value",
          "type": "uint256"
        }
      ],
      "stateMutability": "view",
      "type": "function"
    },
    {
      "inputs": [
        {
          "internalType": "uint256",
          "name": "rootHash",
          "type": "uint256"
        },
        {
          "internalType": "uint256",
          "name": "path",
          "type": "uint256"
        },
        {
          "components": [
            {
              "internalType": "enum NodeType",
              "name": "nodeType",
              "type": "uint8"
            },
            {
              "components": [
                {
                  "internalType": "uint256",
                  "name": "leftHash",
                  "type": "uint256"
                },
                {
                  "internalType": "uint256",
                  "name": "rightHash",
                  "type": "uint256"
                }
              ],
              "internalType": "struct BinaryProof",
              "name": "binaryProof",
              "type": "tuple"
            },
            {
              "components": [
                {
                  "internalType": "uint256",
                  "name": "childHash",
                  "type": "uint256"
                },
                {
                  "internalType": "uint256",
                  "name": "path",
                  "type": "uint256"
                },
                {
                  "internalType": "uint256",
                  "name": "length",
                  "type": "uint256"
                }
              ],
              "internalType": "struct EdgeProof",
              "name": "edgeProof",
              "type": "tuple"
            }
          ],
          "internalType": "struct StarknetProof[]",
          "name": "proofArray",
          "type": "tuple[]"
        }
      ],
      "name": "verifyProof",
      "outputs": [
        {
          "internalType": "uint256",
          "name": "value",
          "type": "uint256"
        }
      ],
      "stateMutability": "view",
      "type": "function"
    }
  ],
  "bytecode": "0x60a06040523073ffffffffffffffffffffffffffffffffffffffff1660809073ffffffffffffffffffffffffffffffffffffffff1660601b8152503480156200004757600080fd5b50620000586200006e60201b60201c565b620000686200006e60201b60201c565b62000219565b600060019054906101000a900460ff1615620000c1576040517f08c379a0000000000000000000000000000000000000000000000000000000008152600401620000b8906200016d565b60405180910390fd5b60ff801660008054906101000a900460ff1660ff161015620001335760ff6000806101000a81548160ff021916908360ff1602179055507f7f26b83ff96e1f2b6a682f133852f6798a09c465da95921460cefb384740249860ff6040516200012a91906200018f565b60405180910390a15b565b600062000144602783620001ac565b91506200015182620001ca565b604082019050919050565b6200016781620001bd565b82525050565b60006020820190508181036000830152620001888162000135565b9050919050565b6000602082019050620001a660008301846200015c565b92915050565b600082825260208201905092915050565b600060ff82169050919050565b7f496e697469616c697a61626c653a20636f6e747261637420697320696e69746960008201527f616c697a696e6700000000000000000000000000000000000000000000000000602082015250565b60805160601c61553b62000254600039600081816107bf0152818161084e0152818161098801528181610a170152610ac7015261553b6000f3fe6080604052600436106101355760003560e01c806388083d50116100ab578063a8d7679f1161006f578063a8d7679f14610441578063c0c53b8b1461047e578063c57601db146104a7578063c62b919e146104d2578063f1cb7e06146104fd578063f2fde38b1461053a57610135565b806388083d50146103345780638da5cb5b1461035f5780639072a1b31461038a578063a22aed08146103c7578063a78dac0d1461040457610135565b80633b3b57de116100fd5780633b3b57de146102315780634f1ef2861461026e57806352d1902d1461028a57806364c17056146102b5578063715018a6146102f25780637a1dc0701461030957610135565b806301ffc9a71461013a5780630cfe46e6146101775780631c604e14146101b45780633276d9ff146101dd5780633659cfe614610208575b600080fd5b34801561014657600080fd5b50610161600480360381019061015c91906136c3565b610563565b60405161016e91906141b4565b60405180910390f35b34801561018357600080fd5b5061019e600480360381019061019991906136ec565b610603565b6040516101ab91906141ea565b60405180910390f35b3480156101c057600080fd5b506101db60048036038101906101d691906134a7565b610623565b005b3480156101e957600080fd5b506101f2610797565b6040516101ff919061420c565b60405180910390f35b34801561021457600080fd5b5061022f600480360381019061022a919061342f565b6107bd565b005b34801561023d57600080fd5b5061025860048036038101906102539190613635565b61096c565b6040516102659190614116565b60405180910390f35b61028860048036038101906102839190613536565b610986565b005b34801561029657600080fd5b5061029f610ac3565b6040516102ac91906141cf565b60405180910390f35b3480156102c157600080fd5b506102dc60048036038101906102d79190613891565b610b7c565b6040516102e991906142cd565b60405180910390f35b3480156102fe57600080fd5b50610307610c28565b005b34801561031557600080fd5b5061031e610c3c565b60405161032b91906145df565b60405180910390f35b34801561034057600080fd5b50610349610c42565b60405161035691906145df565b60405180910390f35b34801561036b57600080fd5b50610374610c4c565b6040516103819190614116565b60405180910390f35b34801561039657600080fd5b506103b160048036038101906103ac919061391f565b610c76565b6040516103be91906145df565b60405180910390f35b3480156103d357600080fd5b506103ee60048036038101906103e991906135b3565b610fa1565b6040516103fb91906145df565b60405180910390f35b34801561041057600080fd5b5061042b600480360381019061042691906138e3565b61157b565b60405161043891906145df565b60405180910390f35b34801561044d57600080fd5b506104686004803603810190610463919061378a565b6116c8565b60405161047591906145df565b60405180910390f35b34801561048a57600080fd5b506104a560048036038101906104a09190613458565b611ae5565b005b3480156104b357600080fd5b506104bc611cf1565b6040516104c99190614242565b60405180910390f35b3480156104de57600080fd5b506104e7611d17565b6040516104f49190614227565b60405180910390f35b34801561050957600080fd5b50610524600480360381019061051f9190613687565b611d3d565b60405161053191906141ea565b60405180910390f35b34801561054657600080fd5b50610561600480360381019061055c919061342f565b611da5565b005b6000633b3b57de60e01b7bffffffffffffffffffffffffffffffffffffffffffffffffffffffff1916827bffffffffffffffffffffffffffffffffffffffffffffffffffffffff191614806105fc575063f1cb7e0660e01b7bffffffffffffffffffffffffffffffffffffffffffffffffffffffff1916827bffffffffffffffffffffffffffffffffffffffffffffffffffffffff1916145b9050919050565b606061061961061486868686611e29565b611f30565b9050949350505050565b60008060019054906101000a900460ff161590508080156106545750600160008054906101000a900460ff1660ff16105b80610681575061066330611fb3565b1580156106805750600160008054906101000a900460ff1660ff16145b5b6106c0576040517f08c379a00000000000000000000000000000000000000000000000000000000081526004016106b79061445f565b60405180910390fd5b60016000806101000a81548160ff021916908360ff16021790555080156106fd576001600060016101000a81548160ff0219169083151502179055505b610708868686611ae5565b8260cc908051906020019061071e929190612b42565b508160cd8190555061072e611fd6565b61073661202f565b801561078f5760008060016101000a81548160ff0219169083151502179055507f7f26b83ff96e1f2b6a682f133852f6798a09c465da95921460cefb3847402498600160405161078691906142b2565b60405180910390a15b505050505050565b60c960009054906101000a900473ffffffffffffffffffffffffffffffffffffffff1681565b7f000000000000000000000000000000000000000000000000000000000000000073ffffffffffffffffffffffffffffffffffffffff163073ffffffffffffffffffffffffffffffffffffffff16141561084c576040517f08c379a0000000000000000000000000000000000000000000000000000000008152600401610843906143bf565b60405180910390fd5b7f000000000000000000000000000000000000000000000000000000000000000073ffffffffffffffffffffffffffffffffffffffff1661088b612080565b73ffffffffffffffffffffffffffffffffffffffff16146108e1576040517f08c379a00000000000000000000000000000000000000000000000000000000081526004016108d8906143df565b60405180910390fd5b6108ea816120d7565b61096981600067ffffffffffffffff81111561092f577f4e487b7100000000000000000000000000000000000000000000000000000000600052604160045260246000fd5b6040519080825280601f01601f1916602001820160405280156109615781602001600182028036833780820191505090505b5060006120e2565b50565b600061097f82630cfe46e660e01b61225f565b9050919050565b7f000000000000000000000000000000000000000000000000000000000000000073ffffffffffffffffffffffffffffffffffffffff163073ffffffffffffffffffffffffffffffffffffffff161415610a15576040517f08c379a0000000000000000000000000000000000000000000000000000000008152600401610a0c906143bf565b60405180910390fd5b7f000000000000000000000000000000000000000000000000000000000000000073ffffffffffffffffffffffffffffffffffffffff16610a54612080565b73ffffffffffffffffffffffffffffffffffffffff1614610aaa576040517f08c379a0000000000000000000000000000000000000000000000000000000008152600401610aa1906143df565b60405180910390fd5b610ab3826120d7565b610abf828260016120e2565b5050565b60007f000000000000000000000000000000000000000000000000000000000000000073ffffffffffffffffffffffffffffffffffffffff163073ffffffffffffffffffffffffffffffffffffffff1614610b53576040517f08c379a0000000000000000000000000000000000000000000000000000000008152600401610b4a906143ff565b60405180910390fd5b7f360894a13ba1a3210667c828492db98dca3e2076cc3735a920a3ca505d382bbc60001b905090565b60cc8181548110610b8c57600080fd5b906000526020600020016000915090508054610ba790614ba4565b80601f0160208091040260200160405190810160405280929190818152602001828054610bd390614ba4565b8015610c205780601f10610bf557610100808354040283529160200191610c20565b820191906000526020600020905b815481529060010190602001808311610c0357829003601f168201915b505050505081565b610c30612369565b610c3a60006123e7565b565b60cd5481565b600060cd54905090565b6000603360009054906101000a900473ffffffffffffffffffffffffffffffffffffffff16905090565b600080859050600060fa905060008585905011610cc8576040517f08c379a0000000000000000000000000000000000000000000000000000000008152600401610cbf9061457f565b60405180910390fd5b60006001905060005b86869050811015610f2a5760008312610f17576000878783818110610d1f577f4e487b7100000000000000000000000000000000000000000000000000000000600052603260045260246000fd5b905060c00201803603810190610d359190613868565b9050610d40816124ad565b8514610d81576040517f08c379a0000000000000000000000000000000000000000000000000000000008152600401610d789061459f565b60405180910390fd5b60006001811115610dbb577f4e487b7100000000000000000000000000000000000000000000000000000000600052602160045260246000fd5b81600001516001811115610df8577f4e487b7100000000000000000000000000000000000000000000000000000000600052602160045260246000fd5b1415610e4557600180858b901c16149250600115158315151415610e26578060200151602001519450610e32565b80602001516000015194505b8380610e3d90614b5b565b945050610f15565b6000610e638a836040015160200151878560400151604001516125b6565b9050600015158115151415610ead576040517f08c379a0000000000000000000000000000000000000000000000000000000008152600401610ea49061443f565b60405180910390fd5b8160400151600001519550600082604001516040015190508086610ed19190614919565b9550610f126040518060400160405280600c81526020017f70617468426974496e6465780000000000000000000000000000000000000000815250876125fc565b50505b505b8080610f2290614c07565b915050610cd1565b507fffffffffffffffffffffffffffffffffffffffffffffffffffffffffffffffff821415610f5e57829350505050610f99565b6040517f08c379a0000000000000000000000000000000000000000000000000000000008152600401610f90906144bf565b60405180910390fd5b949350505050565b600080604051806060016040528060008152602001600081526020016000815250905060005b60028451610fd5919061488e565b8110156112b0577f08000000000000110000000000000000000000000000000000000000000000018482600261100b91906148bf565b81518110611042577f4e487b7100000000000000000000000000000000000000000000000000000000600052603260045260246000fd5b602002602001015183600060038110611084577f4e487b7100000000000000000000000000000000000000000000000000000000600052603260045260246000fd5b60200201516110939190614838565b61109d9190614c50565b826000600381106110d7577f4e487b7100000000000000000000000000000000000000000000000000000000600052603260045260246000fd5b6020020181815250507f080000000000001100000000000000000000000000000000000000000000000184600183600261111191906148bf565b61111b9190614838565b81518110611152577f4e487b7100000000000000000000000000000000000000000000000000000000600052603260045260246000fd5b602002602001015183600160038110611194577f4e487b7100000000000000000000000000000000000000000000000000000000600052603260045260246000fd5b60200201516111a39190614838565b6111ad9190614c50565b826001600381106111e7577f4e487b7100000000000000000000000000000000000000000000000000000000600052603260045260246000fd5b60200201818152505060ca60009054906101000a900473ffffffffffffffffffffffffffffffffffffffff1673ffffffffffffffffffffffffffffffffffffffff166325cc70e8836040518263ffffffff1660e01b815260040161124b9190614199565b60606040518083038186803b15801561126357600080fd5b505afa158015611277573d6000803e3d6000fd5b505050506040513d601f19601f8201168201806040525081019061129b919061358a565b915080806112a890614c07565b915050610fc7565b506000600284516112c19190614c50565b905060018114156113d2577f080000000000001100000000000000000000000000000000000000000000000184600186516112fc91906149ad565b81518110611333577f4e487b7100000000000000000000000000000000000000000000000000000000600052603260045260246000fd5b602002602001015183600060038110611375577f4e487b7100000000000000000000000000000000000000000000000000000000600052603260045260246000fd5b60200201516113849190614838565b61138e9190614c50565b826000600381106113c8577f4e487b7100000000000000000000000000000000000000000000000000000000600052603260045260246000fd5b6020020181815250505b7f0800000000000011000000000000000000000000000000000000000000000001600183836003811061142e577f4e487b7100000000000000000000000000000000000000000000000000000000600052603260045260246000fd5b602002015161143d9190614838565b6114479190614c50565b828260038110611480577f4e487b7100000000000000000000000000000000000000000000000000000000600052603260045260246000fd5b60200201818152505060ca60009054906101000a900473ffffffffffffffffffffffffffffffffffffffff1673ffffffffffffffffffffffffffffffffffffffff166325cc70e8836040518263ffffffff1660e01b81526004016114e49190614199565b60606040518083038186803b1580156114fc57600080fd5b505afa158015611510573d6000803e3d6000fd5b505050506040513d601f19601f82011682018060405250810190611534919061358a565b60006003811061156d577f4e487b7100000000000000000000000000000000000000000000000000000000600052603260045260246000fd5b602002015192505050919050565b60008060c960009054906101000a900473ffffffffffffffffffffffffffffffffffffffff1673ffffffffffffffffffffffffffffffffffffffff1663aa1e84de6115c68686612698565b6040518263ffffffff1660e01b81526004016115e291906141ea565b60006040518083038186803b1580156115fa57600080fd5b505afa15801561160e573d6000803e3d6000fd5b505050506040513d6000823e3d601f19601f8201168201806040525081019061163791906135f4565b9050600081511161167d576040517f08c379a00000000000000000000000000000000000000000000000000000000081526004016116749061439f565b60405180910390fd5b806000815181106116b7577f4e487b7100000000000000000000000000000000000000000000000000000000600052603260045260246000fd5b602002602001015191505092915050565b60006117a86040518060400160405280600981526020017f7374617465526f6f74000000000000000000000000000000000000000000000081525060cb60009054906101000a900473ffffffffffffffffffffffffffffffffffffffff1673ffffffffffffffffffffffffffffffffffffffff16639588eca26040518163ffffffff1660e01b815260040160206040518083038186803b15801561176b57600080fd5b505afa15801561177f573d6000803e3d6000fd5b505050506040513d601f19601f820116820180604052508101906117a391906138ba565b6125fc565b600060cb60009054906101000a900473ffffffffffffffffffffffffffffffffffffffff1673ffffffffffffffffffffffffffffffffffffffff166335befa5d6040518163ffffffff1660e01b815260040160206040518083038186803b15801561181257600080fd5b505afa158015611826573d6000803e3d6000fd5b505050506040513d601f19601f8201168201806040525081019061184a9190613761565b905060008686905011611892576040517f08c379a00000000000000000000000000000000000000000000000000000000081526004016118899061451f565b60405180910390fd5b600084849050116118d8576040517f08c379a00000000000000000000000000000000000000000000000000000000081526004016118cf9061431f565b60405180910390fd5b6000811361191b576040517f08c379a0000000000000000000000000000000000000000000000000000000008152600401611912906145bf565b60405180910390fd5b80881461195d576040517f08c379a00000000000000000000000000000000000000000000000000000000081526004016119549061435f565b60405180910390fd5b600061197b886060013589600001358a60a001358b60800135612728565b9050600061199389600001358a604001358888610c76565b9050600060cb60009054906101000a900473ffffffffffffffffffffffffffffffffffffffff1673ffffffffffffffffffffffffffffffffffffffff16639588eca26040518163ffffffff1660e01b815260040160206040518083038186803b1580156119ff57600080fd5b505afa158015611a13573d6000803e3d6000fd5b505050506040513d601f19601f82011682018060405250810190611a3791906138ba565b90506000831415611a7d576040517f08c379a0000000000000000000000000000000000000000000000000000000008152600401611a749061433f565b60405180910390fd5b6000611a8f828c602001358c8c610c76565b9050808414611ad3576040517f08c379a0000000000000000000000000000000000000000000000000000000008152600401611aca9061447f565b60405180910390fd5b82955050505050509695505050505050565b60008060019054906101000a900460ff16159050808015611b165750600160008054906101000a900460ff1660ff16105b80611b435750611b2530611fb3565b158015611b425750600160008054906101000a900460ff1660ff16145b5b611b82576040517f08c379a0000000000000000000000000000000000000000000000000000000008152600401611b799061445f565b60405180910390fd5b60016000806101000a81548160ff021916908360ff1602179055508015611bbf576001600060016101000a81548160ff0219169083151502179055505b8360c960006101000a81548173ffffffffffffffffffffffffffffffffffffffff021916908373ffffffffffffffffffffffffffffffffffffffff1602179055508260ca60006101000a81548173ffffffffffffffffffffffffffffffffffffffff021916908373ffffffffffffffffffffffffffffffffffffffff1602179055508160cb60006101000a81548173ffffffffffffffffffffffffffffffffffffffff021916908373ffffffffffffffffffffffffffffffffffffffff160217905550611c8a611fd6565b611c9261202f565b8015611ceb5760008060016101000a81548160ff0219169083151502179055507f7f26b83ff96e1f2b6a682f133852f6798a09c465da95921460cefb38474024986001604051611ce291906142b2565b60405180910390a15b50505050565b60cb60009054906101000a900473ffffffffffffffffffffffffffffffffffffffff1681565b60ca60009054906101000a900473ffffffffffffffffffffffffffffffffffffffff1681565b6060603c821415611d6857611d61611d5c84630cfe46e660e01b61225f565b611f30565b9050611d9f565b61232c821415611d9257611d8b611d8684630cfe46e660e01b61225f565b611f30565b9050611d9f565b611d9c6000612755565b90505b92915050565b611dad612369565b600073ffffffffffffffffffffffffffffffffffffffff168173ffffffffffffffffffffffffffffffffffffffff161415611e1d576040517f08c379a0000000000000000000000000000000000000000000000000000000008152600401611e149061437f565b60405180910390fd5b611e26816123e7565b50565b6000808585810190611e3b9190613827565b905060008484810190611e4e9190613635565b90506000611e5e8260001c6127df565b905060cd5483602001516020018181525050808360200151604001818152505060003073ffffffffffffffffffffffffffffffffffffffff1663a8d7679f85600001518660200151876040015188606001516040518563ffffffff1660e01b8152600401611ecf949392919061425d565b60206040518083038186803b158015611ee757600080fd5b505afa158015611efb573d6000803e3d6000fd5b505050506040513d601f19601f82011682018060405250810190611f1f91906138ba565b905080945050505050949350505050565b6060602067ffffffffffffffff811115611f73577f4e487b7100000000000000000000000000000000000000000000000000000000600052604160045260246000fd5b6040519080825280601f01601f191660200182016040528015611fa55781602001600182028036833780820191505090505b509050816020820152919050565b6000808273ffffffffffffffffffffffffffffffffffffffff163b119050919050565b600060019054906101000a900460ff16612025576040517f08c379a000000000000000000000000000000000000000000000000000000000815260040161201c9061455f565b60405180910390fd5b61202d612812565b565b600060019054906101000a900460ff1661207e576040517f08c379a00000000000000000000000000000000000000000000000000000000081526004016120759061455f565b60405180910390fd5b565b60006120ae7f360894a13ba1a3210667c828492db98dca3e2076cc3735a920a3ca505d382bbc60001b612873565b60000160009054906101000a900473ffffffffffffffffffffffffffffffffffffffff16905090565b6120df612369565b50565b61210e7f4910fdfa16fed3260ed0e7147f7cc6da11a60208b5b9406d12a635614ffd914360001b61287d565b60000160009054906101000a900460ff16156121325761212d83612887565b61225a565b8273ffffffffffffffffffffffffffffffffffffffff166352d1902d6040518163ffffffff1660e01b815260040160206040518083038186803b15801561217857600080fd5b505afa9250505080156121a957506040513d601f19601f820116820180604052508101906121a6919061365e565b60015b6121e8576040517f08c379a00000000000000000000000000000000000000000000000000000000081526004016121df9061449f565b60405180910390fd5b7f360894a13ba1a3210667c828492db98dca3e2076cc3735a920a3ca505d382bbc60001b811461224d576040517f08c379a00000000000000000000000000000000000000000000000000000000081526004016122449061441f565b60405180910390fd5b50612259838383612940565b5b505050565b6000807f03ffffffffffffffffffffffffffffffffffffffffffffffffffffffffffffff8460001c1690506000633b3b57de60e01b826040516024016122a591906145df565b604051602081830303815290604052907bffffffffffffffffffffffffffffffffffffffffffffffffffffffff19166020820180517bffffffffffffffffffffffffffffffffffffffffffffffffffffffff838183161783525050505090503060cc82868560405160200161231a91906145df565b6040516020818303038152906040526040517f556f1830000000000000000000000000000000000000000000000000000000008152600401612360959493929190614131565b60405180910390fd5b61237161296c565b73ffffffffffffffffffffffffffffffffffffffff1661238f610c4c565b73ffffffffffffffffffffffffffffffffffffffff16146123e5576040517f08c379a00000000000000000000000000000000000000000000000000000000081526004016123dc906144ff565b60405180910390fd5b565b6000603360009054906101000a900473ffffffffffffffffffffffffffffffffffffffff16905081603360006101000a81548173ffffffffffffffffffffffffffffffffffffffff021916908373ffffffffffffffffffffffffffffffffffffffff1602179055508173ffffffffffffffffffffffffffffffffffffffff168173ffffffffffffffffffffffffffffffffffffffff167f8be0079c531659141344cd1fd0a4f28419497f9722a3daafe3b4186f6b6457e060405160405180910390a35050565b60008060009050600060018111156124ee577f4e487b7100000000000000000000000000000000000000000000000000000000600052602160045260246000fd5b8360000151600181111561252b577f4e487b7100000000000000000000000000000000000000000000000000000000600052602160045260246000fd5b14156125525761254b83602001516000015184602001516020015161157b565b90506125ad565b7f080000000000001100000000000000000000000000000000000000000000000183604001516040015161259685604001516000015186604001516020015161157b565b6125a09190614838565b6125aa9190614c50565b90505b80915050919050565b6000808360ff6125c691906149ad565b905060006001846125d791906149ad565b856125e291906149ad565b828389901b901c901c905085811492505050949350505050565b61269482826040516024016126129291906142ef565b6040516020818303038152906040527fb60e72cc000000000000000000000000000000000000000000000000000000007bffffffffffffffffffffffffffffffffffffffffffffffffffffffff19166020820180517bffffffffffffffffffffffffffffffffffffffffffffffffffffffff8381831617835250505050612974565b5050565b60606000604067ffffffffffffffff8111156126dd577f4e487b7100000000000000000000000000000000000000000000000000000000600052604160045260246000fd5b6040519080825280601f01601f19166020018201604052801561270f5781602001600182028036833780820191505090505b5090508360208201528260408201528091505092915050565b60008061274761274161273b888861157b565b8661157b565b8461157b565b905080915050949350505050565b6060601467ffffffffffffffff811115612798577f4e487b7100000000000000000000000000000000000000000000000000000000600052604160045260246000fd5b6040519080825280601f01601f1916602001820160405280156127ca5781602001600182028036833780820191505090505b509050600c6101000a82026020820152919050565b600061280b7f029539a1d23af1810c48a07fe7fc66a3b34fbc8b37e9b3cdb97bb88ceab7e4bf8361157b565b9050919050565b600060019054906101000a900460ff16612861576040517f08c379a00000000000000000000000000000000000000000000000000000000081526004016128589061455f565b60405180910390fd5b61287161286c61296c565b6123e7565b565b6000819050919050565b6000819050919050565b61289081611fb3565b6128cf576040517f08c379a00000000000000000000000000000000000000000000000000000000081526004016128c6906144df565b60405180910390fd5b806128fc7f360894a13ba1a3210667c828492db98dca3e2076cc3735a920a3ca505d382bbc60001b612873565b60000160006101000a81548173ffffffffffffffffffffffffffffffffffffffff021916908373ffffffffffffffffffffffffffffffffffffffff16021790555050565b6129498361299d565b6000825111806129565750805b156129675761296583836129ec565b505b505050565b600033905090565b60008151905060006a636f6e736f6c652e6c6f679050602083016000808483855afa5050505050565b6129a681612887565b8073ffffffffffffffffffffffffffffffffffffffff167fbc7cd75a20ee27fd9adebab32041f755214dbc6bffa90cc0225b39da2e5c2d3b60405160405180910390a250565b60606129f783611fb3565b612a36576040517f08c379a0000000000000000000000000000000000000000000000000000000008152600401612a2d9061453f565b60405180910390fd5b6000808473ffffffffffffffffffffffffffffffffffffffff1684604051612a5e91906140ff565b600060405180830381855af49150503d8060008114612a99576040519150601f19603f3d011682016040523d82523d6000602084013e612a9e565b606091505b5091509150612ac682826040518060600160405280602781526020016154df60279139612ad0565b9250505092915050565b60608315612ae057829050612aeb565b612aea8383612af2565b5b9392505050565b600082511115612b055781518083602001fd5b806040517f08c379a0000000000000000000000000000000000000000000000000000000008152600401612b3991906142cd565b60405180910390fd5b828054828255906000526020600020908101928215612b91579160200282015b82811115612b90578251829080519060200190612b80929190612ba2565b5091602001919060010190612b62565b5b509050612b9e9190612c28565b5090565b828054612bae90614ba4565b90600052602060002090601f016020900481019282612bd05760008555612c17565b82601f10612be957805160ff1916838001178555612c17565b82800160010185558215612c17579182015b82811115612c16578251825591602001919060010190612bfb565b5b509050612c249190612c4c565b5090565b5b80821115612c485760008181612c3f9190612c69565b50600101612c29565b5090565b5b80821115612c65576000816000905550600101612c4d565b5090565b508054612c7590614ba4565b6000825580601f10612c875750612ca6565b601f016020900490600052602060002090810190612ca59190612c4c565b5b50565b6000612cbc612cb78461461f565b6145fa565b90508083825260208201905082856020860282011115612cdb57600080fd5b60005b85811015612d2557813567ffffffffffffffff811115612cfd57600080fd5b808601612d0a8982613172565b85526020850194506020840193505050600181019050612cde565b5050509392505050565b6000612d42612d3d8461464b565b6145fa565b905080838252602082019050828560c0860282011115612d6157600080fd5b60005b85811015612d915781612d7788826133a5565b845260208401935060c08301925050600181019050612d64565b5050509392505050565b6000612dae612da984614677565b6145fa565b90508082856020860282011115612dc457600080fd5b60005b85811015612df45781612dda888261341a565b845260208401935060208301925050600181019050612dc7565b5050509392505050565b6000612e11612e0c8461469d565b6145fa565b90508083825260208201905082856020860282011115612e3057600080fd5b60005b85811015612e605781612e468882613405565b845260208401935060208301925050600181019050612e33565b5050509392505050565b6000612e7d612e788461469d565b6145fa565b90508083825260208201905082856020860282011115612e9c57600080fd5b60005b85811015612ecc5781612eb2888261341a565b845260208401935060208301925050600181019050612e9f565b5050509392505050565b6000612ee9612ee4846146c9565b6145fa565b905082815260208101848484011115612f0157600080fd5b612f0c848285614b19565b509392505050565b6000612f27612f22846146fa565b6145fa565b905082815260208101848484011115612f3f57600080fd5b612f4a848285614b19565b509392505050565b600081359050612f618161545b565b92915050565b600082601f830112612f7857600080fd5b8135612f88848260208601612ca9565b91505092915050565b60008083601f840112612fa357600080fd5b8235905067ffffffffffffffff811115612fbc57600080fd5b6020830191508360c0820283011115612fd457600080fd5b9250929050565b600082601f830112612fec57600080fd5b8135612ffc848260208601612d2f565b91505092915050565b600082601f83011261301657600080fd5b6003613023848285612d9b565b91505092915050565b600082601f83011261303d57600080fd5b813561304d848260208601612dfe565b91505092915050565b600082601f83011261306757600080fd5b8151613077848260208601612e6a565b91505092915050565b60008135905061308f81615472565b92915050565b6000815190506130a481615472565b92915050565b6000813590506130b981615489565b92915050565b60008083601f8401126130d157600080fd5b8235905067ffffffffffffffff8111156130ea57600080fd5b60208301915083600182028301111561310257600080fd5b9250929050565b600082601f83011261311a57600080fd5b813561312a848260208601612ed6565b91505092915050565b600081359050613142816154a0565b92915050565b600081359050613157816154b0565b92915050565b60008151905061316c816154b0565b92915050565b600082601f83011261318357600080fd5b8135613193848260208601612f14565b91505092915050565b6000604082840312156131ae57600080fd5b6131b860406145fa565b905060006131c884828501613405565b60008301525060206131dc84828501613405565b60208301525092915050565b600060c082840312156131fa57600080fd5b81905092915050565b600060c0828403121561321557600080fd5b61321f60c06145fa565b9050600061322f84828501613405565b600083015250602061324384828501613405565b602083015250604061325784828501613405565b604083015250606061326b84828501613405565b606083015250608061327f84828501613405565b60808301525060a061329384828501613405565b60a08301525092915050565b6000606082840312156132b157600080fd5b6132bb60606145fa565b905060006132cb84828501613405565b60008301525060206132df84828501613405565b60208301525060406132f384828501613405565b60408301525092915050565b6000610120828403121561331257600080fd5b61331c60806145fa565b9050600061332c84828501613148565b600083015250602061334084828501613203565b60208301525060e082013567ffffffffffffffff81111561336057600080fd5b61336c84828501612fdb565b60408301525061010082013567ffffffffffffffff81111561338d57600080fd5b61339984828501612fdb565b60608301525092915050565b600060c082840312156133b757600080fd5b6133c160606145fa565b905060006133d184828501613133565b60008301525060206133e58482850161319c565b60208301525060606133f98482850161329f565b60408301525092915050565b600081359050613414816154c7565b92915050565b600081519050613429816154c7565b92915050565b60006020828403121561344157600080fd5b600061344f84828501612f52565b91505092915050565b60008060006060848603121561346d57600080fd5b600061347b86828701612f52565b935050602061348c86828701612f52565b925050604061349d86828701612f52565b9150509250925092565b600080600080600060a086880312156134bf57600080fd5b60006134cd88828901612f52565b95505060206134de88828901612f52565b94505060406134ef88828901612f52565b935050606086013567ffffffffffffffff81111561350c57600080fd5b61351888828901612f67565b925050608061352988828901613405565b9150509295509295909350565b6000806040838503121561354957600080fd5b600061355785828601612f52565b925050602083013567ffffffffffffffff81111561357457600080fd5b61358085828601613109565b9150509250929050565b60006060828403121561359c57600080fd5b60006135aa84828501613005565b91505092915050565b6000602082840312156135c557600080fd5b600082013567ffffffffffffffff8111156135df57600080fd5b6135eb8482850161302c565b91505092915050565b60006020828403121561360657600080fd5b600082015167ffffffffffffffff81111561362057600080fd5b61362c84828501613056565b91505092915050565b60006020828403121561364757600080fd5b600061365584828501613080565b91505092915050565b60006020828403121561367057600080fd5b600061367e84828501613095565b91505092915050565b6000806040838503121561369a57600080fd5b60006136a885828601613080565b92505060206136b985828601613405565b9150509250929050565b6000602082840312156136d557600080fd5b60006136e3848285016130aa565b91505092915050565b6000806000806040858703121561370257600080fd5b600085013567ffffffffffffffff81111561371c57600080fd5b613728878288016130bf565b9450945050602085013567ffffffffffffffff81111561374757600080fd5b613753878288016130bf565b925092505092959194509250565b60006020828403121561377357600080fd5b60006137818482850161315d565b91505092915050565b60008060008060008061012087890312156137a457600080fd5b60006137b289828a01613148565b96505060206137c389828a016131e8565b95505060e087013567ffffffffffffffff8111156137e057600080fd5b6137ec89828a01612f91565b945094505061010087013567ffffffffffffffff81111561380c57600080fd5b61381889828a01612f91565b92509250509295509295509295565b60006020828403121561383957600080fd5b600082013567ffffffffffffffff81111561385357600080fd5b61385f848285016132ff565b91505092915050565b600060c0828403121561387a57600080fd5b6000613888848285016133a5565b91505092915050565b6000602082840312156138a357600080fd5b60006138b184828501613405565b91505092915050565b6000602082840312156138cc57600080fd5b60006138da8482850161341a565b91505092915050565b600080604083850312156138f657600080fd5b600061390485828601613405565b925050602061391585828601613405565b9150509250929050565b6000806000806060858703121561393557600080fd5b600061394387828801613405565b945050602061395487828801613405565b935050604085013567ffffffffffffffff81111561397157600080fd5b61397d87828801612f91565b925092505092959194509250565b60006139978383613c31565b905092915050565b60006139ab838361409f565b60c08301905092915050565b60006139c383836140e1565b60208301905092915050565b6139d8816149e1565b82525050565b60006139e98261476f565b6139f381856147cd565b935083602082028501613a058561472b565b8060005b85811015613a4057848403895281613a21858261398b565b9450613a2c836147a6565b925060208a01995050600181019050613a09565b50829750879550505050505092915050565b6000613a5d8261477a565b613a6781856147de565b9350613a7283614740565b8060005b83811015613aa3578151613a8a888261399f565b9750613a95836147b3565b925050600181019050613a76565b5085935050505092915050565b613ab981614785565b613ac381846147ef565b9250613ace82614750565b8060005b83811015613aff578151613ae687826139b7565b9650613af1836147c0565b925050600181019050613ad2565b505050505050565b613b10816149f3565b82525050565b613b1f816149ff565b82525050565b613b2e81614a09565b82525050565b6000613b3f82614790565b613b4981856147fa565b9350613b59818560208601614b28565b613b6281614d6c565b840191505092915050565b6000613b7882614790565b613b82818561480b565b9350613b92818560208601614b28565b80840191505092915050565b613ba781614a89565b82525050565b613bb681614aad565b82525050565b613bc581614ad1565b82525050565b613bd481614af5565b82525050565b613be381614a48565b82525050565b613bf281614b07565b82525050565b6000613c038261479b565b613c0d8185614827565b9350613c1d818560208601614b28565b613c2681614d6c565b840191505092915050565b60008154613c3e81614ba4565b613c488186614816565b94506001821660008114613c635760018114613c7557613ca8565b60ff1983168652602086019350613ca8565b613c7e8561475a565b60005b83811015613ca057815481890152600182019150602081019050613c81565b808801955050505b50505092915050565b6000613cbe602d83614827565b9150613cc982614d7d565b604082019050919050565b6000613ce1602e83614827565b9150613cec82614dcc565b604082019050919050565b6000613d04603783614827565b9150613d0f82614e1b565b604082019050919050565b6000613d27602683614827565b9150613d3282614e6a565b604082019050919050565b6000613d4a602983614827565b9150613d5582614eb9565b604082019050919050565b6000613d6d602c83614827565b9150613d7882614f08565b604082019050919050565b6000613d90602c83614827565b9150613d9b82614f57565b604082019050919050565b6000613db3603883614827565b9150613dbe82614fa6565b604082019050919050565b6000613dd6602983614827565b9150613de182614ff5565b604082019050919050565b6000613df9604d83614827565b9150613e0482615044565b606082019050919050565b6000613e1c602e83614827565b9150613e27826150b9565b604082019050919050565b6000613e3f602383614827565b9150613e4a82615108565b604082019050919050565b6000613e62602e83614827565b9150613e6d82615157565b604082019050919050565b6000613e85603083614827565b9150613e90826151a6565b604082019050919050565b6000613ea8602d83614827565b9150613eb3826151f5565b604082019050919050565b6000613ecb602083614827565b9150613ed682615244565b602082019050919050565b6000613eee602e83614827565b9150613ef98261526d565b604082019050919050565b6000613f11602683614827565b9150613f1c826152bc565b604082019050919050565b6000613f34602b83614827565b9150613f3f8261530b565b604082019050919050565b6000613f57602a83614827565b9150613f628261535a565b604082019050919050565b6000613f7a603383614827565b9150613f85826153a9565b604082019050919050565b6000613f9d603383614827565b9150613fa8826153f8565b604082019050919050565b604082016000820151613fc960008501826140e1565b506020820151613fdc60208501826140e1565b50505050565b60c082016000820151613ff860008501826140e1565b50602082015161400b60208501826140e1565b50604082015161401e60408501826140e1565b50606082015161403160608501826140e1565b50608082015161404460808501826140e1565b5060a082015161405760a08501826140e1565b50505050565b60608201600082015161407360008501826140e1565b50602082015161408660208501826140e1565b50604082015161409960408501826140e1565b50505050565b60c0820160008201516140b56000850182613bcb565b5060208201516140c86020850182613fb3565b5060408201516140db606085018261405d565b50505050565b6140ea81614a72565b82525050565b6140f981614a72565b82525050565b600061410b8284613b6d565b915081905092915050565b600060208201905061412b60008301846139cf565b92915050565b600060a08201905061414660008301886139cf565b818103602083015261415881876139de565b9050818103604083015261416c8186613b34565b905061417b6060830185613b25565b818103608083015261418d8184613b34565b90509695505050505050565b60006060820190506141ae6000830184613ab0565b92915050565b60006020820190506141c96000830184613b07565b92915050565b60006020820190506141e46000830184613b16565b92915050565b600060208201905081810360008301526142048184613b34565b905092915050565b60006020820190506142216000830184613b9e565b92915050565b600060208201905061423c6000830184613bad565b92915050565b60006020820190506142576000830184613bbc565b92915050565b6000610120820190506142736000830187613bda565b6142806020830186613fe2565b81810360e08301526142928185613a52565b90508181036101008301526142a78184613a52565b905095945050505050565b60006020820190506142c76000830184613be9565b92915050565b600060208201905081810360008301526142e78184613bf8565b905092915050565b600060408201905081810360008301526143098185613bf8565b905061431860208301846140f0565b9392505050565b6000602082019050818103600083015261433881613cb1565b9050919050565b6000602082019050818103600083015261435881613cd4565b9050919050565b6000602082019050818103600083015261437881613cf7565b9050919050565b6000602082019050818103600083015261439881613d1a565b9050919050565b600060208201905081810360008301526143b881613d3d565b9050919050565b600060208201905081810360008301526143d881613d60565b9050919050565b600060208201905081810360008301526143f881613d83565b9050919050565b6000602082019050818103600083015261441881613da6565b9050919050565b6000602082019050818103600083015261443881613dc9565b9050919050565b6000602082019050818103600083015261445881613dec565b9050919050565b6000602082019050818103600083015261447881613e0f565b9050919050565b6000602082019050818103600083015261449881613e32565b9050919050565b600060208201905081810360008301526144b881613e55565b9050919050565b600060208201905081810360008301526144d881613e78565b9050919050565b600060208201905081810360008301526144f881613e9b565b9050919050565b6000602082019050818103600083015261451881613ebe565b9050919050565b6000602082019050818103600083015261453881613ee1565b9050919050565b6000602082019050818103600083015261455881613f04565b9050919050565b6000602082019050818103600083015261457881613f27565b9050919050565b6000602082019050818103600083015261459881613f4a565b9050919050565b600060208201905081810360008301526145b881613f6d565b9050919050565b600060208201905081810360008301526145d881613f90565b9050919050565b60006020820190506145f460008301846140f0565b92915050565b6000614604614615565b90506146108282614bd6565b919050565b6000604051905090565b600067ffffffffffffffff82111561463a57614639614d3d565b5b602082029050602081019050919050565b600067ffffffffffffffff82111561466657614665614d3d565b5b602082029050602081019050919050565b600067ffffffffffffffff82111561469257614691614d3d565b5b602082029050919050565b600067ffffffffffffffff8211156146b8576146b7614d3d565b5b602082029050602081019050919050565b600067ffffffffffffffff8211156146e4576146e3614d3d565b5b6146ed82614d6c565b9050602081019050919050565b600067ffffffffffffffff82111561471557614714614d3d565b5b61471e82614d6c565b9050602081019050919050565b60008190508160005260206000209050919050565b6000819050602082019050919050565b6000819050919050565b60008190508160005260206000209050919050565b600081549050919050565b600081519050919050565b600060039050919050565b600081519050919050565b600081519050919050565b6000600182019050919050565b6000602082019050919050565b6000602082019050919050565b600082825260208201905092915050565b600082825260208201905092915050565b600081905092915050565b600082825260208201905092915050565b600081905092915050565b600082825260208201905092915050565b600082825260208201905092915050565b600061484382614a72565b915061484e83614a72565b9250827fffffffffffffffffffffffffffffffffffffffffffffffffffffffffffffffff0382111561488357614882614c81565b5b828201905092915050565b600061489982614a72565b91506148a483614a72565b9250826148b4576148b3614cb0565b5b828204905092915050565b60006148ca82614a72565b91506148d583614a72565b9250817fffffffffffffffffffffffffffffffffffffffffffffffffffffffffffffffff048311821515161561490e5761490d614c81565b5b828202905092915050565b600061492482614a48565b915061492f83614a48565b9250827f80000000000000000000000000000000000000000000000000000000000000000182126000841215161561496a57614969614c81565b5b827f7fffffffffffffffffffffffffffffffffffffffffffffffffffffffffffffff0182136000841216156149a2576149a1614c81565b5b828203905092915050565b60006149b882614a72565b91506149c383614a72565b9250828210156149d6576149d5614c81565b5b828203905092915050565b60006149ec82614a52565b9050919050565b60008115159050919050565b6000819050919050565b60007fffffffff0000000000000000000000000000000000000000000000000000000082169050919050565b6000819050614a4382615447565b919050565b6000819050919050565b600073ffffffffffffffffffffffffffffffffffffffff82169050919050565b6000819050919050565b600060ff82169050919050565b6000614a9482614a9b565b9050919050565b6000614aa682614a52565b9050919050565b6000614ab882614abf565b9050919050565b6000614aca82614a52565b9050919050565b6000614adc82614ae3565b9050919050565b6000614aee82614a52565b9050919050565b6000614b0082614a35565b9050919050565b6000614b1282614a7c565b9050919050565b82818337600083830152505050565b60005b83811015614b46578082015181840152602081019050614b2b565b83811115614b55576000848401525b50505050565b6000614b6682614a48565b91507f8000000000000000000000000000000000000000000000000000000000000000821415614b9957614b98614c81565b5b600182039050919050565b60006002820490506001821680614bbc57607f821691505b60208210811415614bd057614bcf614d0e565b5b50919050565b614bdf82614d6c565b810181811067ffffffffffffffff82111715614bfe57614bfd614d3d565b5b80604052505050565b6000614c1282614a72565b91507fffffffffffffffffffffffffffffffffffffffffffffffffffffffffffffffff821415614c4557614c44614c81565b5b600182019050919050565b6000614c5b82614a72565b9150614c6683614a72565b925082614c7657614c75614cb0565b5b828206905092915050565b7f4e487b7100000000000000000000000000000000000000000000000000000000600052601160045260246000fd5b7f4e487b7100000000000000000000000000000000000000000000000000000000600052601260045260246000fd5b7f4e487b7100000000000000000000000000000000000000000000000000000000600052602160045260246000fd5b7f4e487b7100000000000000000000000000000000000000000000000000000000600052602260045260246000fd5b7f4e487b7100000000000000000000000000000000000000000000000000000000600052604160045260246000fd5b6000601f19601f8301169050919050565b7f73746f726167652070726f6f6673206d75737420686176652061746c6561737460008201527f206f6e6520656c656d656e742100000000000000000000000000000000000000602082015250565b7f7374617465726f6f742068617368206973206e6f74206665746368656420707260008201527f6f7065726c792120726576657274000000000000000000000000000000000000602082015250565b7f626c6f636b206e756d62657220646f65736e2774206d6174636820776974682060008201527f737461726b6e657420636f726520636f6e747261637421000000000000000000602082015250565b7f4f776e61626c653a206e6577206f776e657220697320746865207a65726f206160008201527f6464726573730000000000000000000000000000000000000000000000000000602082015250565b7f6861736865732072657475726e6564206c656e677468206973206c657373207460008201527f68616e207a65726f210000000000000000000000000000000000000000000000602082015250565b7f46756e6374696f6e206d7573742062652063616c6c6564207468726f7567682060008201527f64656c656761746563616c6c0000000000000000000000000000000000000000602082015250565b7f46756e6374696f6e206d7573742062652063616c6c6564207468726f7567682060008201527f6163746976652070726f78790000000000000000000000000000000000000000602082015250565b7f555550535570677261646561626c653a206d757374206e6f742062652063616c60008201527f6c6564207468726f7567682064656c656761746563616c6c0000000000000000602082015250565b7f45524331393637557067726164653a20756e737570706f727465642070726f7860008201527f6961626c65555549440000000000000000000000000000000000000000000000602082015250565b7f496e76616c69642070726f6f662c20706f74656e7469616c6c7920612070726f60008201527f6f6620666f72206120646966666572656e742073746f72616765207661722f2060208201527f6e6f6e20696e636c7573696f6e00000000000000000000000000000000000000604082015250565b7f496e697469616c697a61626c653a20636f6e747261637420697320616c72656160008201527f647920696e697469616c697a6564000000000000000000000000000000000000602082015250565b7f68617368657320646f6e2774206d617463682e20696e76616c6964207374617460008201527f6573210000000000000000000000000000000000000000000000000000000000602082015250565b7f45524331393637557067726164653a206e657720696d706c656d656e7461746960008201527f6f6e206973206e6f742055555053000000000000000000000000000000000000602082015250565b7f6c656e677468206f662070726f6f66206d69736d6174636865642c20696e766160008201527f6c69642070726f6f662073697a65212100000000000000000000000000000000602082015250565b7f455243313936373a206e657720696d706c656d656e746174696f6e206973206e60008201527f6f74206120636f6e747261637400000000000000000000000000000000000000602082015250565b7f4f776e61626c653a2063616c6c6572206973206e6f7420746865206f776e6572600082015250565b7f636f6e74726163742070726f6f6673206d75737420686176652061746c65617360008201527f74206f6e6520656c656d656e7421000000000000000000000000000000000000602082015250565b7f416464726573733a2064656c65676174652063616c6c20746f206e6f6e2d636f60008201527f6e74726163740000000000000000000000000000000000000000000000000000602082015250565b7f496e697469616c697a61626c653a20636f6e7472616374206973206e6f74206960008201527f6e697469616c697a696e67000000000000000000000000000000000000000000602082015250565b7f70726f6f66206172726179206d75737420686176652061746c65617374206f6e60008201527f6520656c656d656e742e00000000000000000000000000000000000000000000602082015250565b7f68617368206d69736d6174636820666f756e64212120696e76616c696420707260008201527f6f6f66207061746820726576657274696e672e00000000000000000000000000602082015250565b7f6661696c656420746f20666574636820737461726b6e657420636f726520636f60008201527f6e747261637420737461746520626c6f636b2100000000000000000000000000602082015250565b6002811061545857615457614cdf565b5b50565b615464816149e1565b811461546f57600080fd5b50565b61547b816149ff565b811461548657600080fd5b50565b61549281614a09565b811461549d57600080fd5b50565b600281106154ad57600080fd5b50565b6154b981614a48565b81146154c457600080fd5b50565b6154d081614a72565b81146154db57600080fd5b5056fe416464726573733a206c6f772d6c6576656c2064656c65676174652063616c6c206661696c6564a264697066735822122085f25da580371a3091caf16ce0f69a08dbe9b411087010bed6552400d48fa87a64736f6c63430008040033",
  "linkReferences": {},
  "deployedLinkReferences": {}
}