{
  "_format": "hh-sol-artifact-1",
  "contractName": "StarknetVerifier",
  "sourceName": "contracts/StarknetVerifier.sol",
  "abi": [
    {
      "inputs": [],
      "stateMutability": "nonpayable",
      "type": "constructor"
    },
    {
      "inputs": [
        {
          "internalType": "address",
          "name": "sender",
          "type": "address"
        },
        {
          "internalType": "string[]",
          "name": "urls",
          "type": "string[]"
        },
        {
          "internalType": "bytes",
          "name": "callData",
          "type": "bytes"
        },
        {
          "internalType": "bytes4",
          "name": "callbackFunction",
          "type": "bytes4"
        },
        {
          "internalType": "bytes",
          "name": "extraData",
          "type": "bytes"
        }
      ],
      "name": "OffchainLookup",
      "type": "error"
    },
    {
      "anonymous": false,
      "inputs": [
        {
          "indexed": false,
          "internalType": "address",
          "name": "previousAdmin",
          "type": "address"
        },
        {
          "indexed": false,
          "internalType": "address",
          "name": "newAdmin",
          "type": "address"
        }
      ],
      "name": "AdminChanged",
      "type": "event"
    },
    {
      "anonymous": false,
      "inputs": [
        {
          "indexed": true,
          "internalType": "address",
          "name": "beacon",
          "type": "address"
        }
      ],
      "name": "BeaconUpgraded",
      "type": "event"
    },
    {
      "anonymous": false,
      "inputs": [
        {
          "indexed": false,
          "internalType": "uint8",
          "name": "version",
          "type": "uint8"
        }
      ],
      "name": "Initialized",
      "type": "event"
    },
    {
      "anonymous": false,
      "inputs": [
        {
          "indexed": true,
          "internalType": "address",
          "name": "previousOwner",
          "type": "address"
        },
        {
          "indexed": true,
          "internalType": "address",
          "name": "newOwner",
          "type": "address"
        }
      ],
      "name": "OwnershipTransferred",
      "type": "event"
    },
    {
      "anonymous": false,
      "inputs": [
        {
          "indexed": true,
          "internalType": "address",
          "name": "implementation",
          "type": "address"
        }
      ],
      "name": "Upgraded",
      "type": "event"
    },
    {
      "inputs": [
        {
          "internalType": "bytes32",
          "name": "node",
          "type": "bytes32"
        }
      ],
      "name": "addr",
      "outputs": [
        {
          "internalType": "address",
          "name": "",
          "type": "address"
        }
      ],
      "stateMutability": "view",
      "type": "function"
    },
    {
      "inputs": [
        {
          "internalType": "bytes32",
          "name": "node",
          "type": "bytes32"
        },
        {
          "internalType": "uint256",
          "name": "coinType",
          "type": "uint256"
        }
      ],
      "name": "addr",
      "outputs": [
        {
          "internalType": "bytes",
          "name": "",
          "type": "bytes"
        }
      ],
      "stateMutability": "view",
      "type": "function"
    },
    {
      "inputs": [
        {
          "internalType": "bytes",
          "name": "response",
          "type": "bytes"
        },
        {
          "internalType": "bytes",
          "name": "extraData",
          "type": "bytes"
        }
      ],
      "name": "bytesAddrWithProof",
      "outputs": [
        {
          "internalType": "bytes",
          "name": "",
          "type": "bytes"
        }
      ],
      "stateMutability": "view",
      "type": "function"
    },
    {
      "inputs": [
        {
          "internalType": "uint256",
          "name": "a",
          "type": "uint256"
        },
        {
          "internalType": "uint256",
          "name": "b",
          "type": "uint256"
        },
        {
          "internalType": "uint256",
          "name": "bitIndex",
          "type": "uint256"
        },
        {
          "internalType": "uint256",
          "name": "length",
          "type": "uint256"
        }
      ],
      "name": "compareBitsWithStartIndexAndLength",
      "outputs": [
        {
          "internalType": "bool",
          "name": "",
          "type": "bool"
        }
      ],
      "stateMutability": "pure",
      "type": "function"
    },
    {
      "inputs": [
        {
          "internalType": "uint256",
          "name": "x",
          "type": "uint256"
        },
        {
          "internalType": "uint256",
          "name": "y",
          "type": "uint256"
        }
      ],
      "name": "convertToBytes",
      "outputs": [
        {
          "internalType": "bytes",
          "name": "",
          "type": "bytes"
        }
      ],
      "stateMutability": "pure",
      "type": "function"
    },
    {
      "inputs": [
        {
          "internalType": "uint256",
          "name": "",
          "type": "uint256"
        }
      ],
      "name": "gateways",
      "outputs": [
        {
          "internalType": "string",
          "name": "",
          "type": "string"
        }
      ],
      "stateMutability": "view",
      "type": "function"
    },
    {
      "inputs": [],
      "name": "getl2Resolver",
      "outputs": [
        {
          "internalType": "uint256",
          "name": "",
          "type": "uint256"
        }
      ],
      "stateMutability": "view",
      "type": "function"
    },
    {
      "inputs": [
        {
          "internalType": "uint256",
          "name": "a",
          "type": "uint256"
        },
        {
          "internalType": "uint256",
          "name": "b",
          "type": "uint256"
        }
      ],
      "name": "hash",
      "outputs": [
        {
          "internalType": "uint256",
          "name": "",
          "type": "uint256"
        }
      ],
      "stateMutability": "view",
      "type": "function"
    },
    {
      "inputs": [
        {
          "components": [
            {
              "internalType": "enum NodeType",
              "name": "nodeType",
              "type": "uint8"
            },
            {
              "components": [
                {
                  "internalType": "uint256",
                  "name": "leftHash",
                  "type": "uint256"
                },
                {
                  "internalType": "uint256",
                  "name": "rightHash",
                  "type": "uint256"
                }
              ],
              "internalType": "struct BinaryProof",
              "name": "binaryProof",
              "type": "tuple"
            },
            {
              "components": [
                {
                  "internalType": "uint256",
                  "name": "childHash",
                  "type": "uint256"
                },
                {
                  "internalType": "uint256",
                  "name": "path",
                  "type": "uint256"
                },
                {
                  "internalType": "uint256",
                  "name": "length",
                  "type": "uint256"
                }
              ],
              "internalType": "struct EdgeProof",
              "name": "edgeProof",
              "type": "tuple"
            }
          ],
          "internalType": "struct StarknetProof",
          "name": "proof",
          "type": "tuple"
        }
      ],
      "name": "hashForSingleProofNode",
      "outputs": [
        {
          "internalType": "uint256",
          "name": "",
          "type": "uint256"
        }
      ],
      "stateMutability": "view",
      "type": "function"
    },
    {
      "inputs": [
        {
          "internalType": "address",
          "name": "pedersenAddress",
          "type": "address"
        },
        {
          "internalType": "address",
          "name": "_starknetCoreContractAddress",
          "type": "address"
        },
        {
          "internalType": "string[]",
          "name": "_gateways",
          "type": "string[]"
        },
        {
          "internalType": "uint256",
          "name": "_l2resolver",
          "type": "uint256"
        }
      ],
      "name": "initialize",
      "outputs": [],
      "stateMutability": "nonpayable",
      "type": "function"
    },
    {
      "inputs": [],
      "name": "l2resolver",
      "outputs": [
        {
          "internalType": "uint256",
          "name": "",
          "type": "uint256"
        }
      ],
      "stateMutability": "view",
      "type": "function"
    },
    {
      "inputs": [],
      "name": "owner",
      "outputs": [
        {
          "internalType": "address",
          "name": "",
          "type": "address"
        }
      ],
      "stateMutability": "view",
      "type": "function"
    },
    {
      "inputs": [],
      "name": "pedersen",
      "outputs": [
        {
          "internalType": "contract PedersenHash",
          "name": "",
          "type": "address"
        }
      ],
      "stateMutability": "view",
      "type": "function"
    },
    {
      "inputs": [],
      "name": "proxiableUUID",
      "outputs": [
        {
          "internalType": "bytes32",
          "name": "",
          "type": "bytes32"
        }
      ],
      "stateMutability": "view",
      "type": "function"
    },
    {
      "inputs": [],
      "name": "renounceOwnership",
      "outputs": [],
      "stateMutability": "nonpayable",
      "type": "function"
    },
    {
      "inputs": [],
      "name": "starknetCoreContract",
      "outputs": [
        {
          "internalType": "contract StarknetCoreContract",
          "name": "",
          "type": "address"
        }
      ],
      "stateMutability": "view",
      "type": "function"
    },
    {
      "inputs": [
        {
          "internalType": "uint256",
          "name": "classHash",
          "type": "uint256"
        },
        {
          "internalType": "uint256",
          "name": "contractStateRoot",
          "type": "uint256"
        },
        {
          "internalType": "uint256",
          "name": "nonce",
          "type": "uint256"
        },
        {
          "internalType": "uint256",
          "name": "hashVersion",
          "type": "uint256"
        }
      ],
      "name": "stateHash",
      "outputs": [
        {
          "internalType": "uint256",
          "name": "",
          "type": "uint256"
        }
      ],
      "stateMutability": "view",
      "type": "function"
    },
    {
      "inputs": [
        {
          "internalType": "bytes4",
          "name": "interfaceID",
          "type": "bytes4"
        }
      ],
      "name": "supportsInterface",
      "outputs": [
        {
          "internalType": "bool",
          "name": "",
          "type": "bool"
        }
      ],
      "stateMutability": "pure",
      "type": "function"
    },
    {
      "inputs": [
        {
          "internalType": "address",
          "name": "newOwner",
          "type": "address"
        }
      ],
      "name": "transferOwnership",
      "outputs": [],
      "stateMutability": "nonpayable",
      "type": "function"
    },
    {
      "inputs": [
        {
          "internalType": "address",
          "name": "newImplementation",
          "type": "address"
        }
      ],
      "name": "upgradeTo",
      "outputs": [],
      "stateMutability": "nonpayable",
      "type": "function"
    },
    {
      "inputs": [
        {
          "internalType": "address",
          "name": "newImplementation",
          "type": "address"
        },
        {
          "internalType": "bytes",
          "name": "data",
          "type": "bytes"
        }
      ],
      "name": "upgradeToAndCall",
      "outputs": [],
      "stateMutability": "payable",
      "type": "function"
    },
    {
      "inputs": [
        {
          "internalType": "int256",
          "name": "blockNumber",
          "type": "int256"
        },
        {
          "components": [
            {
              "internalType": "uint256",
              "name": "contractStateRoot",
              "type": "uint256"
            },
            {
              "internalType": "uint256",
              "name": "contractAddress",
              "type": "uint256"
            },
            {
              "internalType": "uint256",
              "name": "storageVarAddress",
              "type": "uint256"
            },
            {
              "internalType": "uint256",
              "name": "classHash",
              "type": "uint256"
            },
            {
              "internalType": "uint256",
              "name": "hashVersion",
              "type": "uint256"
            },
            {
              "internalType": "uint256",
              "name": "nonce",
              "type": "uint256"
            }
          ],
          "internalType": "struct ContractData",
          "name": "contractData",
          "type": "tuple"
        },
        {
          "components": [
            {
              "internalType": "enum NodeType",
              "name": "nodeType",
              "type": "uint8"
            },
            {
              "components": [
                {
                  "internalType": "uint256",
                  "name": "leftHash",
                  "type": "uint256"
                },
                {
                  "internalType": "uint256",
                  "name": "rightHash",
                  "type": "uint256"
                }
              ],
              "internalType": "struct BinaryProof",
              "name": "binaryProof",
              "type": "tuple"
            },
            {
              "components": [
                {
                  "internalType": "uint256",
                  "name": "childHash",
                  "type": "uint256"
                },
                {
                  "internalType": "uint256",
                  "name": "path",
                  "type": "uint256"
                },
                {
                  "internalType": "uint256",
                  "name": "length",
                  "type": "uint256"
                }
              ],
              "internalType": "struct EdgeProof",
              "name": "edgeProof",
              "type": "tuple"
            }
          ],
          "internalType": "struct StarknetProof[]",
          "name": "contractProofArray",
          "type": "tuple[]"
        },
        {
          "components": [
            {
              "internalType": "enum NodeType",
              "name": "nodeType",
              "type": "uint8"
            },
            {
              "components": [
                {
                  "internalType": "uint256",
                  "name": "leftHash",
                  "type": "uint256"
                },
                {
                  "internalType": "uint256",
                  "name": "rightHash",
                  "type": "uint256"
                }
              ],
              "internalType": "struct BinaryProof",
              "name": "binaryProof",
              "type": "tuple"
            },
            {
              "components": [
                {
                  "internalType": "uint256",
                  "name": "childHash",
                  "type": "uint256"
                },
                {
                  "internalType": "uint256",
                  "name": "path",
                  "type": "uint256"
                },
                {
                  "internalType": "uint256",
                  "name": "length",
                  "type": "uint256"
                }
              ],
              "internalType": "struct EdgeProof",
              "name": "edgeProof",
              "type": "tuple"
            }
          ],
          "internalType": "struct StarknetProof[]",
          "name": "storageProofArray",
          "type": "tuple[]"
        }
      ],
      "name": "verifiedStorageValue",
      "outputs": [
        {
          "internalType": "uint256",
          "name": "value",
          "type": "uint256"
        }
      ],
      "stateMutability": "view",
      "type": "function"
    },
    {
      "inputs": [
        {
          "internalType": "uint256",
          "name": "rootHash",
          "type": "uint256"
        },
        {
          "internalType": "uint256",
          "name": "path",
          "type": "uint256"
        },
        {
          "components": [
            {
              "internalType": "enum NodeType",
              "name": "nodeType",
              "type": "uint8"
            },
            {
              "components": [
                {
                  "internalType": "uint256",
                  "name": "leftHash",
                  "type": "uint256"
                },
                {
                  "internalType": "uint256",
                  "name": "rightHash",
                  "type": "uint256"
                }
              ],
              "internalType": "struct BinaryProof",
              "name": "binaryProof",
              "type": "tuple"
            },
            {
              "components": [
                {
                  "internalType": "uint256",
                  "name": "childHash",
                  "type": "uint256"
                },
                {
                  "internalType": "uint256",
                  "name": "path",
                  "type": "uint256"
                },
                {
                  "internalType": "uint256",
                  "name": "length",
                  "type": "uint256"
                }
              ],
              "internalType": "struct EdgeProof",
              "name": "edgeProof",
              "type": "tuple"
            }
          ],
          "internalType": "struct StarknetProof[]",
          "name": "proofArray",
          "type": "tuple[]"
        }
      ],
      "name": "verifyProof",
      "outputs": [
        {
          "internalType": "uint256",
          "name": "value",
          "type": "uint256"
        }
      ],
      "stateMutability": "view",
      "type": "function"
    }
  ],
  "bytecode": "0x60a06040523073ffffffffffffffffffffffffffffffffffffffff1660809073ffffffffffffffffffffffffffffffffffffffff1660601b8152503480156200004757600080fd5b50620000586200005e60201b60201c565b62000209565b600060019054906101000a900460ff1615620000b1576040517f08c379a0000000000000000000000000000000000000000000000000000000008152600401620000a8906200015d565b60405180910390fd5b60ff801660008054906101000a900460ff1660ff161015620001235760ff6000806101000a81548160ff021916908360ff1602179055507f7f26b83ff96e1f2b6a682f133852f6798a09c465da95921460cefb384740249860ff6040516200011a91906200017f565b60405180910390a15b565b6000620001346027836200019c565b91506200014182620001ba565b604082019050919050565b6200015781620001ad565b82525050565b60006020820190508181036000830152620001788162000125565b9050919050565b60006020820190506200019660008301846200014c565b92915050565b600082825260208201905092915050565b600060ff82169050919050565b7f496e697469616c697a61626c653a20636f6e747261637420697320696e69746960008201527f616c697a696e6700000000000000000000000000000000000000000000000000602082015250565b60805160601c614ad362000244600039600081816107c2015281816108510152818161098b01528181610a1a0152610aca0152614ad36000f3fe6080604052600436106101405760003560e01c80637a1dc070116100b6578063c57601db1161006f578063c57601db1461049d578063c95e47b8146104c8578063c96dbc8714610505578063d071771f14610542578063f1cb7e061461056b578063f2fde38b146105a857610140565b80637a1dc0701461036557806388083d50146103905780638da5cb5b146103bb5780639072a1b3146103e6578063a78dac0d14610423578063a8d7679f1461046057610140565b80633b3b57de116101085780633b3b57de146102505780634f1ef2861461028d57806352d1902d146102a957806364c17056146102d45780636b01b54214610311578063715018a61461034e57610140565b806301ffc9a7146101455780630bd7bb26146101825780630cfe46e6146101bf5780633276d9ff146101fc5780633659cfe614610227575b600080fd5b34801561015157600080fd5b5061016c60048036038101906101679190612dae565b6105d1565b6040516101799190613869565b60405180910390f35b34801561018e57600080fd5b506101a960048036038101906101a49190612f53565b610671565b6040516101b69190613c79565b60405180910390f35b3480156101cb57600080fd5b506101e660048036038101906101e19190612dd7565b61077a565b6040516101f3919061389f565b60405180910390f35b34801561020857600080fd5b5061021161079a565b60405161021e91906138c1565b60405180910390f35b34801561023357600080fd5b5061024e60048036038101906102499190612be7565b6107c0565b005b34801561025c57600080fd5b5061027760048036038101906102729190612d20565b61096f565b60405161028491906137e6565b60405180910390f35b6102a760048036038101906102a29190612c8b565b610989565b005b3480156102b557600080fd5b506102be610ac6565b6040516102cb9190613884565b60405180910390f35b3480156102e057600080fd5b506102fb60048036038101906102f69190612f7c565b610b7f565b6040516103089190613967565b60405180910390f35b34801561031d57600080fd5b5061033860048036038101906103339190613076565b610c2b565b6040516103459190613c79565b60405180910390f35b34801561035a57600080fd5b50610363610c58565b005b34801561037157600080fd5b5061037a610c6c565b6040516103879190613c79565b60405180910390f35b34801561039c57600080fd5b506103a5610c72565b6040516103b29190613c79565b60405180910390f35b3480156103c757600080fd5b506103d0610c7c565b6040516103dd91906137e6565b60405180910390f35b3480156103f257600080fd5b5061040d6004803603810190610408919061300a565b610ca6565b60405161041a9190613c79565b60405180910390f35b34801561042f57600080fd5b5061044a60048036038101906104459190612fce565b610fd1565b6040516104579190613c79565b60405180910390f35b34801561046c57600080fd5b5061048760048036038101906104829190612e75565b61111e565b6040516104949190613c79565b60405180910390f35b3480156104a957600080fd5b506104b261153b565b6040516104bf91906138dc565b60405180910390f35b3480156104d457600080fd5b506104ef60048036038101906104ea9190613076565b611561565b6040516104fc9190613869565b60405180910390f35b34801561051157600080fd5b5061052c60048036038101906105279190612fce565b6115a7565b604051610539919061389f565b60405180910390f35b34801561054e57600080fd5b5061056960048036038101906105649190612c10565b611637565b005b34801561057757600080fd5b50610592600480360381019061058d9190612d72565b611821565b60405161059f919061389f565b60405180910390f35b3480156105b457600080fd5b506105cf60048036038101906105ca9190612be7565b611889565b005b6000633b3b57de60e01b7bffffffffffffffffffffffffffffffffffffffffffffffffffffffff1916827bffffffffffffffffffffffffffffffffffffffffffffffffffffffff1916148061066a575063f1cb7e0660e01b7bffffffffffffffffffffffffffffffffffffffffffffffffffffffff1916827bffffffffffffffffffffffffffffffffffffffffffffffffffffffff1916145b9050919050565b60008060009050600060018111156106b2577f4e487b7100000000000000000000000000000000000000000000000000000000600052602160045260246000fd5b836000015160018111156106ef577f4e487b7100000000000000000000000000000000000000000000000000000000600052602160045260246000fd5b14156107165761070f836020015160000151846020015160200151610fd1565b9050610771565b7f080000000000001100000000000000000000000000000000000000000000000183604001516040015161075a856040015160000151866040015160200151610fd1565b6107649190613e7f565b61076e91906141e8565b90505b80915050919050565b606061079061078b8686868661190d565b611a14565b9050949350505050565b60cb60009054906101000a900473ffffffffffffffffffffffffffffffffffffffff1681565b7f000000000000000000000000000000000000000000000000000000000000000073ffffffffffffffffffffffffffffffffffffffff163073ffffffffffffffffffffffffffffffffffffffff16141561084f576040517f08c379a000000000000000000000000000000000000000000000000000000000815260040161084690613a59565b60405180910390fd5b7f000000000000000000000000000000000000000000000000000000000000000073ffffffffffffffffffffffffffffffffffffffff1661088e611a97565b73ffffffffffffffffffffffffffffffffffffffff16146108e4576040517f08c379a00000000000000000000000000000000000000000000000000000000081526004016108db90613a79565b60405180910390fd5b6108ed81611aee565b61096c81600067ffffffffffffffff811115610932577f4e487b7100000000000000000000000000000000000000000000000000000000600052604160045260246000fd5b6040519080825280601f01601f1916602001820160405280156109645781602001600182028036833780820191505090505b506000611af9565b50565b600061098282630cfe46e660e01b611c76565b9050919050565b7f000000000000000000000000000000000000000000000000000000000000000073ffffffffffffffffffffffffffffffffffffffff163073ffffffffffffffffffffffffffffffffffffffff161415610a18576040517f08c379a0000000000000000000000000000000000000000000000000000000008152600401610a0f90613a59565b60405180910390fd5b7f000000000000000000000000000000000000000000000000000000000000000073ffffffffffffffffffffffffffffffffffffffff16610a57611a97565b73ffffffffffffffffffffffffffffffffffffffff1614610aad576040517f08c379a0000000000000000000000000000000000000000000000000000000008152600401610aa490613a79565b60405180910390fd5b610ab682611aee565b610ac282826001611af9565b5050565b60007f000000000000000000000000000000000000000000000000000000000000000073ffffffffffffffffffffffffffffffffffffffff163073ffffffffffffffffffffffffffffffffffffffff1614610b56576040517f08c379a0000000000000000000000000000000000000000000000000000000008152600401610b4d90613a99565b60405180910390fd5b7f360894a13ba1a3210667c828492db98dca3e2076cc3735a920a3ca505d382bbc60001b905090565b60c98181548110610b8f57600080fd5b906000526020600020016000915090508054610baa9061413c565b80601f0160208091040260200160405190810160405280929190818152602001828054610bd69061413c565b8015610c235780601f10610bf857610100808354040283529160200191610c23565b820191906000526020600020905b815481529060010190602001808311610c0657829003601f168201915b505050505081565b600080610c4a610c44610c3e8888610fd1565b86610fd1565b84610fd1565b905080915050949350505050565b610c60611d80565b610c6a6000611dfe565b565b60ca5481565b600060ca54905090565b6000603360009054906101000a900473ffffffffffffffffffffffffffffffffffffffff16905090565b600080859050600060fa905060008585905011610cf8576040517f08c379a0000000000000000000000000000000000000000000000000000000008152600401610cef90613c19565b60405180910390fd5b60006001905060005b86869050811015610f5a5760008312610f47576000878783818110610d4f577f4e487b7100000000000000000000000000000000000000000000000000000000600052603260045260246000fd5b905060c00201803603810190610d659190612f53565b9050610d7081610671565b8514610db1576040517f08c379a0000000000000000000000000000000000000000000000000000000008152600401610da890613c39565b60405180910390fd5b60006001811115610deb577f4e487b7100000000000000000000000000000000000000000000000000000000600052602160045260246000fd5b81600001516001811115610e28577f4e487b7100000000000000000000000000000000000000000000000000000000600052602160045260246000fd5b1415610e7557600180858b901c16149250600115158315151415610e56578060200151602001519450610e62565b80602001516000015194505b8380610e6d906140f3565b945050610f45565b6000610e938a83604001516020015187856040015160400151611561565b9050600015158115151415610edd576040517f08c379a0000000000000000000000000000000000000000000000000000000008152600401610ed490613ad9565b60405180910390fd5b8160400151600001519550600082604001516040015190508086610f019190613ed5565b9550610f426040518060400160405280600c81526020017f70617468426974496e646578000000000000000000000000000000000000000081525087611ec4565b50505b505b8080610f529061419f565b915050610d01565b507fffffffffffffffffffffffffffffffffffffffffffffffffffffffffffffffff821415610f8e57829350505050610fc9565b6040517f08c379a0000000000000000000000000000000000000000000000000000000008152600401610fc090613b59565b60405180910390fd5b949350505050565b60008060cb60009054906101000a900473ffffffffffffffffffffffffffffffffffffffff1673ffffffffffffffffffffffffffffffffffffffff1663aa1e84de61101c86866115a7565b6040518263ffffffff1660e01b8152600401611038919061389f565b60006040518083038186803b15801561105057600080fd5b505afa158015611064573d6000803e3d6000fd5b505050506040513d6000823e3d601f19601f8201168201806040525081019061108d9190612cdf565b905060008151116110d3576040517f08c379a00000000000000000000000000000000000000000000000000000000081526004016110ca90613a39565b60405180910390fd5b8060008151811061110d577f4e487b7100000000000000000000000000000000000000000000000000000000600052603260045260246000fd5b602002602001015191505092915050565b60006111fe6040518060400160405280600981526020017f7374617465526f6f74000000000000000000000000000000000000000000000081525060cc60009054906101000a900473ffffffffffffffffffffffffffffffffffffffff1673ffffffffffffffffffffffffffffffffffffffff16639588eca26040518163ffffffff1660e01b815260040160206040518083038186803b1580156111c157600080fd5b505afa1580156111d5573d6000803e3d6000fd5b505050506040513d601f19601f820116820180604052508101906111f99190612fa5565b611ec4565b600060cc60009054906101000a900473ffffffffffffffffffffffffffffffffffffffff1673ffffffffffffffffffffffffffffffffffffffff166335befa5d6040518163ffffffff1660e01b815260040160206040518083038186803b15801561126857600080fd5b505afa15801561127c573d6000803e3d6000fd5b505050506040513d601f19601f820116820180604052508101906112a09190612e4c565b9050600086869050116112e8576040517f08c379a00000000000000000000000000000000000000000000000000000000081526004016112df90613bb9565b60405180910390fd5b6000848490501161132e576040517f08c379a0000000000000000000000000000000000000000000000000000000008152600401611325906139b9565b60405180910390fd5b60008113611371576040517f08c379a000000000000000000000000000000000000000000000000000000000815260040161136890613c59565b60405180910390fd5b8088146113b3576040517f08c379a00000000000000000000000000000000000000000000000000000000081526004016113aa906139f9565b60405180910390fd5b60006113d1886060013589600001358a60a001358b60800135610c2b565b905060006113e989600001358a604001358888610ca6565b9050600060cc60009054906101000a900473ffffffffffffffffffffffffffffffffffffffff1673ffffffffffffffffffffffffffffffffffffffff16639588eca26040518163ffffffff1660e01b815260040160206040518083038186803b15801561145557600080fd5b505afa158015611469573d6000803e3d6000fd5b505050506040513d601f19601f8201168201806040525081019061148d9190612fa5565b905060008314156114d3576040517f08c379a00000000000000000000000000000000000000000000000000000000081526004016114ca906139d9565b60405180910390fd5b60006114e5828c602001358c8c610ca6565b9050808414611529576040517f08c379a000000000000000000000000000000000000000000000000000000000815260040161152090613b19565b60405180910390fd5b82955050505050509695505050505050565b60cc60009054906101000a900473ffffffffffffffffffffffffffffffffffffffff1681565b6000808360ff6115719190613f69565b905060006001846115829190613f69565b8561158d9190613f69565b828389901b901c901c905085811492505050949350505050565b60606000604067ffffffffffffffff8111156115ec577f4e487b7100000000000000000000000000000000000000000000000000000000600052604160045260246000fd5b6040519080825280601f01601f19166020018201604052801561161e5781602001600182028036833780820191505090505b5090508360208201528260408201528091505092915050565b60008060019054906101000a900460ff161590508080156116685750600160008054906101000a900460ff1660ff16105b80611695575061167730611f60565b1580156116945750600160008054906101000a900460ff1660ff16145b5b6116d4576040517f08c379a00000000000000000000000000000000000000000000000000000000081526004016116cb90613af9565b60405180910390fd5b60016000806101000a81548160ff021916908360ff1602179055508015611711576001600060016101000a81548160ff0219169083151502179055505b8460cb60006101000a81548173ffffffffffffffffffffffffffffffffffffffff021916908373ffffffffffffffffffffffffffffffffffffffff1602179055508360cc60006101000a81548173ffffffffffffffffffffffffffffffffffffffff021916908373ffffffffffffffffffffffffffffffffffffffff1602179055508260c990805190602001906117a992919061241a565b508160ca819055506117b9611f83565b6117c1611fdc565b801561181a5760008060016101000a81548160ff0219169083151502179055507f7f26b83ff96e1f2b6a682f133852f6798a09c465da95921460cefb38474024986001604051611811919061394c565b60405180910390a15b5050505050565b6060603c82141561184c5761184561184084630cfe46e660e01b611c76565b611a14565b9050611883565b61232c8214156118765761186f61186a84630cfe46e660e01b611c76565b611a14565b9050611883565b611880600061202d565b90505b92915050565b611891611d80565b600073ffffffffffffffffffffffffffffffffffffffff168173ffffffffffffffffffffffffffffffffffffffff161415611901576040517f08c379a00000000000000000000000000000000000000000000000000000000081526004016118f890613a19565b60405180910390fd5b61190a81611dfe565b50565b600080858581019061191f9190612f12565b9050600084848101906119329190612d20565b905060006119428260001c6120b7565b905060ca5483602001516020018181525050808360200151604001818152505060003073ffffffffffffffffffffffffffffffffffffffff1663a8d7679f85600001518660200151876040015188606001516040518563ffffffff1660e01b81526004016119b394939291906138f7565b60206040518083038186803b1580156119cb57600080fd5b505afa1580156119df573d6000803e3d6000fd5b505050506040513d601f19601f82011682018060405250810190611a039190612fa5565b905080945050505050949350505050565b6060602067ffffffffffffffff811115611a57577f4e487b7100000000000000000000000000000000000000000000000000000000600052604160045260246000fd5b6040519080825280601f01601f191660200182016040528015611a895781602001600182028036833780820191505090505b509050816020820152919050565b6000611ac57f360894a13ba1a3210667c828492db98dca3e2076cc3735a920a3ca505d382bbc60001b6120ea565b60000160009054906101000a900473ffffffffffffffffffffffffffffffffffffffff16905090565b611af6611d80565b50565b611b257f4910fdfa16fed3260ed0e7147f7cc6da11a60208b5b9406d12a635614ffd914360001b6120f4565b60000160009054906101000a900460ff1615611b4957611b44836120fe565b611c71565b8273ffffffffffffffffffffffffffffffffffffffff166352d1902d6040518163ffffffff1660e01b815260040160206040518083038186803b158015611b8f57600080fd5b505afa925050508015611bc057506040513d601f19601f82011682018060405250810190611bbd9190612d49565b60015b611bff576040517f08c379a0000000000000000000000000000000000000000000000000000000008152600401611bf690613b39565b60405180910390fd5b7f360894a13ba1a3210667c828492db98dca3e2076cc3735a920a3ca505d382bbc60001b8114611c64576040517f08c379a0000000000000000000000000000000000000000000000000000000008152600401611c5b90613ab9565b60405180910390fd5b50611c708383836121b7565b5b505050565b6000807f03ffffffffffffffffffffffffffffffffffffffffffffffffffffffffffffff8460001c1690506000633b3b57de60e01b82604051602401611cbc9190613c79565b604051602081830303815290604052907bffffffffffffffffffffffffffffffffffffffffffffffffffffffff19166020820180517bffffffffffffffffffffffffffffffffffffffffffffffffffffffff838183161783525050505090503060c9828685604051602001611d319190613c79565b6040516020818303038152906040526040517f556f1830000000000000000000000000000000000000000000000000000000008152600401611d77959493929190613801565b60405180910390fd5b611d886121e3565b73ffffffffffffffffffffffffffffffffffffffff16611da6610c7c565b73ffffffffffffffffffffffffffffffffffffffff1614611dfc576040517f08c379a0000000000000000000000000000000000000000000000000000000008152600401611df390613b99565b60405180910390fd5b565b6000603360009054906101000a900473ffffffffffffffffffffffffffffffffffffffff16905081603360006101000a81548173ffffffffffffffffffffffffffffffffffffffff021916908373ffffffffffffffffffffffffffffffffffffffff1602179055508173ffffffffffffffffffffffffffffffffffffffff168173ffffffffffffffffffffffffffffffffffffffff167f8be0079c531659141344cd1fd0a4f28419497f9722a3daafe3b4186f6b6457e060405160405180910390a35050565b611f5c8282604051602401611eda929190613989565b6040516020818303038152906040527fb60e72cc000000000000000000000000000000000000000000000000000000007bffffffffffffffffffffffffffffffffffffffffffffffffffffffff19166020820180517bffffffffffffffffffffffffffffffffffffffffffffffffffffffff83818316178352505050506121eb565b5050565b6000808273ffffffffffffffffffffffffffffffffffffffff163b119050919050565b600060019054906101000a900460ff16611fd2576040517f08c379a0000000000000000000000000000000000000000000000000000000008152600401611fc990613bf9565b60405180910390fd5b611fda612214565b565b600060019054906101000a900460ff1661202b576040517f08c379a000000000000000000000000000000000000000000000000000000000815260040161202290613bf9565b60405180910390fd5b565b6060601467ffffffffffffffff811115612070577f4e487b7100000000000000000000000000000000000000000000000000000000600052604160045260246000fd5b6040519080825280601f01601f1916602001820160405280156120a25781602001600182028036833780820191505090505b509050600c6101000a82026020820152919050565b60006120e37f029539a1d23af1810c48a07fe7fc66a3b34fbc8b37e9b3cdb97bb88ceab7e4bf83610fd1565b9050919050565b6000819050919050565b6000819050919050565b61210781611f60565b612146576040517f08c379a000000000000000000000000000000000000000000000000000000000815260040161213d90613b79565b60405180910390fd5b806121737f360894a13ba1a3210667c828492db98dca3e2076cc3735a920a3ca505d382bbc60001b6120ea565b60000160006101000a81548173ffffffffffffffffffffffffffffffffffffffff021916908373ffffffffffffffffffffffffffffffffffffffff16021790555050565b6121c083612275565b6000825111806121cd5750805b156121de576121dc83836122c4565b505b505050565b600033905090565b60008151905060006a636f6e736f6c652e6c6f679050602083016000808483855afa5050505050565b600060019054906101000a900460ff16612263576040517f08c379a000000000000000000000000000000000000000000000000000000000815260040161225a90613bf9565b60405180910390fd5b61227361226e6121e3565b611dfe565b565b61227e816120fe565b8073ffffffffffffffffffffffffffffffffffffffff167fbc7cd75a20ee27fd9adebab32041f755214dbc6bffa90cc0225b39da2e5c2d3b60405160405180910390a250565b60606122cf83611f60565b61230e576040517f08c379a000000000000000000000000000000000000000000000000000000000815260040161230590613bd9565b60405180910390fd5b6000808473ffffffffffffffffffffffffffffffffffffffff168460405161233691906137cf565b600060405180830381855af49150503d8060008114612371576040519150601f19603f3d011682016040523d82523d6000602084013e612376565b606091505b509150915061239e8282604051806060016040528060278152602001614a77602791396123a8565b9250505092915050565b606083156123b8578290506123c3565b6123c283836123ca565b5b9392505050565b6000825111156123dd5781518083602001fd5b806040517f08c379a00000000000000000000000000000000000000000000000000000000081526004016124119190613967565b60405180910390fd5b828054828255906000526020600020908101928215612469579160200282015b8281111561246857825182908051906020019061245892919061247a565b509160200191906001019061243a565b5b5090506124769190612500565b5090565b8280546124869061413c565b90600052602060002090601f0160209004810192826124a857600085556124ef565b82601f106124c157805160ff19168380011785556124ef565b828001600101855582156124ef579182015b828111156124ee5782518255916020019190600101906124d3565b5b5090506124fc9190612524565b5090565b5b8082111561252057600081816125179190612541565b50600101612501565b5090565b5b8082111561253d576000816000905550600101612525565b5090565b50805461254d9061413c565b6000825580601f1061255f575061257e565b601f01602090049060005260206000209081019061257d9190612524565b5b50565b600061259461258f84613cb9565b613c94565b905080838252602082019050828560208602820111156125b357600080fd5b60005b858110156125fd57813567ffffffffffffffff8111156125d557600080fd5b8086016125e2898261292a565b855260208501945060208401935050506001810190506125b6565b5050509392505050565b600061261a61261584613ce5565b613c94565b905080838252602082019050828560c086028201111561263957600080fd5b60005b85811015612669578161264f8882612b5d565b845260208401935060c0830192505060018101905061263c565b5050509392505050565b600061268661268184613d11565b613c94565b905080838252602082019050828560208602820111156126a557600080fd5b60005b858110156126d557816126bb8882612bd2565b8452602084019350602083019250506001810190506126a8565b5050509392505050565b60006126f26126ed84613d3d565b613c94565b90508281526020810184848401111561270a57600080fd5b6127158482856140b1565b509392505050565b600061273061272b84613d6e565b613c94565b90508281526020810184848401111561274857600080fd5b6127538482856140b1565b509392505050565b60008135905061276a816149f3565b92915050565b600082601f83011261278157600080fd5b8135612791848260208601612581565b91505092915050565b60008083601f8401126127ac57600080fd5b8235905067ffffffffffffffff8111156127c557600080fd5b6020830191508360c08202830111156127dd57600080fd5b9250929050565b600082601f8301126127f557600080fd5b8135612805848260208601612607565b91505092915050565b600082601f83011261281f57600080fd5b815161282f848260208601612673565b91505092915050565b60008135905061284781614a0a565b92915050565b60008151905061285c81614a0a565b92915050565b60008135905061287181614a21565b92915050565b60008083601f84011261288957600080fd5b8235905067ffffffffffffffff8111156128a257600080fd5b6020830191508360018202830111156128ba57600080fd5b9250929050565b600082601f8301126128d257600080fd5b81356128e28482602086016126df565b91505092915050565b6000813590506128fa81614a38565b92915050565b60008135905061290f81614a48565b92915050565b60008151905061292481614a48565b92915050565b600082601f83011261293b57600080fd5b813561294b84826020860161271d565b91505092915050565b60006040828403121561296657600080fd5b6129706040613c94565b9050600061298084828501612bbd565b600083015250602061299484828501612bbd565b60208301525092915050565b600060c082840312156129b257600080fd5b81905092915050565b600060c082840312156129cd57600080fd5b6129d760c0613c94565b905060006129e784828501612bbd565b60008301525060206129fb84828501612bbd565b6020830152506040612a0f84828501612bbd565b6040830152506060612a2384828501612bbd565b6060830152506080612a3784828501612bbd565b60808301525060a0612a4b84828501612bbd565b60a08301525092915050565b600060608284031215612a6957600080fd5b612a736060613c94565b90506000612a8384828501612bbd565b6000830152506020612a9784828501612bbd565b6020830152506040612aab84828501612bbd565b60408301525092915050565b60006101208284031215612aca57600080fd5b612ad46080613c94565b90506000612ae484828501612900565b6000830152506020612af8848285016129bb565b60208301525060e082013567ffffffffffffffff811115612b1857600080fd5b612b24848285016127e4565b60408301525061010082013567ffffffffffffffff811115612b4557600080fd5b612b51848285016127e4565b60608301525092915050565b600060c08284031215612b6f57600080fd5b612b796060613c94565b90506000612b89848285016128eb565b6000830152506020612b9d84828501612954565b6020830152506060612bb184828501612a57565b60408301525092915050565b600081359050612bcc81614a5f565b92915050565b600081519050612be181614a5f565b92915050565b600060208284031215612bf957600080fd5b6000612c078482850161275b565b91505092915050565b60008060008060808587031215612c2657600080fd5b6000612c348782880161275b565b9450506020612c458782880161275b565b935050604085013567ffffffffffffffff811115612c6257600080fd5b612c6e87828801612770565b9250506060612c7f87828801612bbd565b91505092959194509250565b60008060408385031215612c9e57600080fd5b6000612cac8582860161275b565b925050602083013567ffffffffffffffff811115612cc957600080fd5b612cd5858286016128c1565b9150509250929050565b600060208284031215612cf157600080fd5b600082015167ffffffffffffffff811115612d0b57600080fd5b612d178482850161280e565b91505092915050565b600060208284031215612d3257600080fd5b6000612d4084828501612838565b91505092915050565b600060208284031215612d5b57600080fd5b6000612d698482850161284d565b91505092915050565b60008060408385031215612d8557600080fd5b6000612d9385828601612838565b9250506020612da485828601612bbd565b9150509250929050565b600060208284031215612dc057600080fd5b6000612dce84828501612862565b91505092915050565b60008060008060408587031215612ded57600080fd5b600085013567ffffffffffffffff811115612e0757600080fd5b612e1387828801612877565b9450945050602085013567ffffffffffffffff811115612e3257600080fd5b612e3e87828801612877565b925092505092959194509250565b600060208284031215612e5e57600080fd5b6000612e6c84828501612915565b91505092915050565b6000806000806000806101208789031215612e8f57600080fd5b6000612e9d89828a01612900565b9650506020612eae89828a016129a0565b95505060e087013567ffffffffffffffff811115612ecb57600080fd5b612ed789828a0161279a565b945094505061010087013567ffffffffffffffff811115612ef757600080fd5b612f0389828a0161279a565b92509250509295509295509295565b600060208284031215612f2457600080fd5b600082013567ffffffffffffffff811115612f3e57600080fd5b612f4a84828501612ab7565b91505092915050565b600060c08284031215612f6557600080fd5b6000612f7384828501612b5d565b91505092915050565b600060208284031215612f8e57600080fd5b6000612f9c84828501612bbd565b91505092915050565b600060208284031215612fb757600080fd5b6000612fc584828501612bd2565b91505092915050565b60008060408385031215612fe157600080fd5b6000612fef85828601612bbd565b925050602061300085828601612bbd565b9150509250929050565b6000806000806060858703121561302057600080fd5b600061302e87828801612bbd565b945050602061303f87828801612bbd565b935050604085013567ffffffffffffffff81111561305c57600080fd5b6130688782880161279a565b925092505092959194509250565b6000806000806080858703121561308c57600080fd5b600061309a87828801612bbd565b94505060206130ab87828801612bbd565b93505060406130bc87828801612bbd565b92505060606130cd87828801612bbd565b91505092959194509250565b60006130e58383613301565b905092915050565b60006130f9838361376f565b60c08301905092915050565b61310e81613f9d565b82525050565b600061311f82613dd9565b6131298185613e1f565b93508360208202850161313b85613d9f565b8060005b858110156131765784840389528161315785826130d9565b945061316283613e05565b925060208a0199505060018101905061313f565b50829750879550505050505092915050565b600061319382613de4565b61319d8185613e30565b93506131a883613db4565b8060005b838110156131d95781516131c088826130ed565b97506131cb83613e12565b9250506001810190506131ac565b5085935050505092915050565b6131ef81613faf565b82525050565b6131fe81613fbb565b82525050565b61320d81613fc5565b82525050565b600061321e82613def565b6132288185613e41565b93506132388185602086016140c0565b61324181614304565b840191505092915050565b600061325782613def565b6132618185613e52565b93506132718185602086016140c0565b80840191505092915050565b61328681614045565b82525050565b61329581614069565b82525050565b6132a48161408d565b82525050565b6132b381614004565b82525050565b6132c28161409f565b82525050565b60006132d382613dfa565b6132dd8185613e6e565b93506132ed8185602086016140c0565b6132f681614304565b840191505092915050565b6000815461330e8161413c565b6133188186613e5d565b94506001821660008114613333576001811461334557613378565b60ff1983168652602086019350613378565b61334e85613dc4565b60005b8381101561337057815481890152600182019150602081019050613351565b808801955050505b50505092915050565b600061338e602d83613e6e565b915061339982614315565b604082019050919050565b60006133b1602e83613e6e565b91506133bc82614364565b604082019050919050565b60006133d4603783613e6e565b91506133df826143b3565b604082019050919050565b60006133f7602683613e6e565b915061340282614402565b604082019050919050565b600061341a602983613e6e565b915061342582614451565b604082019050919050565b600061343d602c83613e6e565b9150613448826144a0565b604082019050919050565b6000613460602c83613e6e565b915061346b826144ef565b604082019050919050565b6000613483603883613e6e565b915061348e8261453e565b604082019050919050565b60006134a6602983613e6e565b91506134b18261458d565b604082019050919050565b60006134c9604d83613e6e565b91506134d4826145dc565b606082019050919050565b60006134ec602e83613e6e565b91506134f782614651565b604082019050919050565b600061350f602383613e6e565b915061351a826146a0565b604082019050919050565b6000613532602e83613e6e565b915061353d826146ef565b604082019050919050565b6000613555603083613e6e565b91506135608261473e565b604082019050919050565b6000613578602d83613e6e565b91506135838261478d565b604082019050919050565b600061359b602083613e6e565b91506135a6826147dc565b602082019050919050565b60006135be602e83613e6e565b91506135c982614805565b604082019050919050565b60006135e1602683613e6e565b91506135ec82614854565b604082019050919050565b6000613604602b83613e6e565b915061360f826148a3565b604082019050919050565b6000613627602a83613e6e565b9150613632826148f2565b604082019050919050565b600061364a603383613e6e565b915061365582614941565b604082019050919050565b600061366d603383613e6e565b915061367882614990565b604082019050919050565b60408201600082015161369960008501826137b1565b5060208201516136ac60208501826137b1565b50505050565b60c0820160008201516136c860008501826137b1565b5060208201516136db60208501826137b1565b5060408201516136ee60408501826137b1565b50606082015161370160608501826137b1565b50608082015161371460808501826137b1565b5060a082015161372760a08501826137b1565b50505050565b60608201600082015161374360008501826137b1565b50602082015161375660208501826137b1565b50604082015161376960408501826137b1565b50505050565b60c082016000820151613785600085018261329b565b5060208201516137986020850182613683565b5060408201516137ab606085018261372d565b50505050565b6137ba8161402e565b82525050565b6137c98161402e565b82525050565b60006137db828461324c565b915081905092915050565b60006020820190506137fb6000830184613105565b92915050565b600060a0820190506138166000830188613105565b81810360208301526138288187613114565b9050818103604083015261383c8186613213565b905061384b6060830185613204565b818103608083015261385d8184613213565b90509695505050505050565b600060208201905061387e60008301846131e6565b92915050565b600060208201905061389960008301846131f5565b92915050565b600060208201905081810360008301526138b98184613213565b905092915050565b60006020820190506138d6600083018461327d565b92915050565b60006020820190506138f1600083018461328c565b92915050565b60006101208201905061390d60008301876132aa565b61391a60208301866136b2565b81810360e083015261392c8185613188565b90508181036101008301526139418184613188565b905095945050505050565b600060208201905061396160008301846132b9565b92915050565b6000602082019050818103600083015261398181846132c8565b905092915050565b600060408201905081810360008301526139a381856132c8565b90506139b260208301846137c0565b9392505050565b600060208201905081810360008301526139d281613381565b9050919050565b600060208201905081810360008301526139f2816133a4565b9050919050565b60006020820190508181036000830152613a12816133c7565b9050919050565b60006020820190508181036000830152613a32816133ea565b9050919050565b60006020820190508181036000830152613a528161340d565b9050919050565b60006020820190508181036000830152613a7281613430565b9050919050565b60006020820190508181036000830152613a9281613453565b9050919050565b60006020820190508181036000830152613ab281613476565b9050919050565b60006020820190508181036000830152613ad281613499565b9050919050565b60006020820190508181036000830152613af2816134bc565b9050919050565b60006020820190508181036000830152613b12816134df565b9050919050565b60006020820190508181036000830152613b3281613502565b9050919050565b60006020820190508181036000830152613b5281613525565b9050919050565b60006020820190508181036000830152613b7281613548565b9050919050565b60006020820190508181036000830152613b928161356b565b9050919050565b60006020820190508181036000830152613bb28161358e565b9050919050565b60006020820190508181036000830152613bd2816135b1565b9050919050565b60006020820190508181036000830152613bf2816135d4565b9050919050565b60006020820190508181036000830152613c12816135f7565b9050919050565b60006020820190508181036000830152613c328161361a565b9050919050565b60006020820190508181036000830152613c528161363d565b9050919050565b60006020820190508181036000830152613c7281613660565b9050919050565b6000602082019050613c8e60008301846137c0565b92915050565b6000613c9e613caf565b9050613caa828261416e565b919050565b6000604051905090565b600067ffffffffffffffff821115613cd457613cd36142d5565b5b602082029050602081019050919050565b600067ffffffffffffffff821115613d0057613cff6142d5565b5b602082029050602081019050919050565b600067ffffffffffffffff821115613d2c57613d2b6142d5565b5b602082029050602081019050919050565b600067ffffffffffffffff821115613d5857613d576142d5565b5b613d6182614304565b9050602081019050919050565b600067ffffffffffffffff821115613d8957613d886142d5565b5b613d9282614304565b9050602081019050919050565b60008190508160005260206000209050919050565b6000819050602082019050919050565b60008190508160005260206000209050919050565b600081549050919050565b600081519050919050565b600081519050919050565b600081519050919050565b6000600182019050919050565b6000602082019050919050565b600082825260208201905092915050565b600082825260208201905092915050565b600082825260208201905092915050565b600081905092915050565b600082825260208201905092915050565b600082825260208201905092915050565b6000613e8a8261402e565b9150613e958361402e565b9250827fffffffffffffffffffffffffffffffffffffffffffffffffffffffffffffffff03821115613eca57613ec9614219565b5b828201905092915050565b6000613ee082614004565b9150613eeb83614004565b9250827f800000000000000000000000000000000000000000000000000000000000000001821260008412151615613f2657613f25614219565b5b827f7fffffffffffffffffffffffffffffffffffffffffffffffffffffffffffffff018213600084121615613f5e57613f5d614219565b5b828203905092915050565b6000613f748261402e565b9150613f7f8361402e565b925082821015613f9257613f91614219565b5b828203905092915050565b6000613fa88261400e565b9050919050565b60008115159050919050565b6000819050919050565b60007fffffffff0000000000000000000000000000000000000000000000000000000082169050919050565b6000819050613fff826149df565b919050565b6000819050919050565b600073ffffffffffffffffffffffffffffffffffffffff82169050919050565b6000819050919050565b600060ff82169050919050565b600061405082614057565b9050919050565b60006140628261400e565b9050919050565b60006140748261407b565b9050919050565b60006140868261400e565b9050919050565b600061409882613ff1565b9050919050565b60006140aa82614038565b9050919050565b82818337600083830152505050565b60005b838110156140de5780820151818401526020810190506140c3565b838111156140ed576000848401525b50505050565b60006140fe82614004565b91507f800000000000000000000000000000000000000000000000000000000000000082141561413157614130614219565b5b600182039050919050565b6000600282049050600182168061415457607f821691505b60208210811415614168576141676142a6565b5b50919050565b61417782614304565b810181811067ffffffffffffffff82111715614196576141956142d5565b5b80604052505050565b60006141aa8261402e565b91507fffffffffffffffffffffffffffffffffffffffffffffffffffffffffffffffff8214156141dd576141dc614219565b5b600182019050919050565b60006141f38261402e565b91506141fe8361402e565b92508261420e5761420d614248565b5b828206905092915050565b7f4e487b7100000000000000000000000000000000000000000000000000000000600052601160045260246000fd5b7f4e487b7100000000000000000000000000000000000000000000000000000000600052601260045260246000fd5b7f4e487b7100000000000000000000000000000000000000000000000000000000600052602160045260246000fd5b7f4e487b7100000000000000000000000000000000000000000000000000000000600052602260045260246000fd5b7f4e487b7100000000000000000000000000000000000000000000000000000000600052604160045260246000fd5b6000601f19601f8301169050919050565b7f73746f726167652070726f6f6673206d75737420686176652061746c6561737460008201527f206f6e6520656c656d656e742100000000000000000000000000000000000000602082015250565b7f7374617465726f6f742068617368206973206e6f74206665746368656420707260008201527f6f7065726c792120726576657274000000000000000000000000000000000000602082015250565b7f626c6f636b206e756d62657220646f65736e2774206d6174636820776974682060008201527f737461726b6e657420636f726520636f6e747261637421000000000000000000602082015250565b7f4f776e61626c653a206e6577206f776e657220697320746865207a65726f206160008201527f6464726573730000000000000000000000000000000000000000000000000000602082015250565b7f6861736865732072657475726e6564206c656e677468206973206c657373207460008201527f68616e207a65726f210000000000000000000000000000000000000000000000602082015250565b7f46756e6374696f6e206d7573742062652063616c6c6564207468726f7567682060008201527f64656c656761746563616c6c0000000000000000000000000000000000000000602082015250565b7f46756e6374696f6e206d7573742062652063616c6c6564207468726f7567682060008201527f6163746976652070726f78790000000000000000000000000000000000000000602082015250565b7f555550535570677261646561626c653a206d757374206e6f742062652063616c60008201527f6c6564207468726f7567682064656c656761746563616c6c0000000000000000602082015250565b7f45524331393637557067726164653a20756e737570706f727465642070726f7860008201527f6961626c65555549440000000000000000000000000000000000000000000000602082015250565b7f496e76616c69642070726f6f662c20706f74656e7469616c6c7920612070726f60008201527f6f6620666f72206120646966666572656e742073746f72616765207661722f2060208201527f6e6f6e20696e636c7573696f6e00000000000000000000000000000000000000604082015250565b7f496e697469616c697a61626c653a20636f6e747261637420697320616c72656160008201527f647920696e697469616c697a6564000000000000000000000000000000000000602082015250565b7f68617368657320646f6e2774206d617463682e20696e76616c6964207374617460008201527f6573210000000000000000000000000000000000000000000000000000000000602082015250565b7f45524331393637557067726164653a206e657720696d706c656d656e7461746960008201527f6f6e206973206e6f742055555053000000000000000000000000000000000000602082015250565b7f6c656e677468206f662070726f6f66206d69736d6174636865642c20696e766160008201527f6c69642070726f6f662073697a65212100000000000000000000000000000000602082015250565b7f455243313936373a206e657720696d706c656d656e746174696f6e206973206e60008201527f6f74206120636f6e747261637400000000000000000000000000000000000000602082015250565b7f4f776e61626c653a2063616c6c6572206973206e6f7420746865206f776e6572600082015250565b7f636f6e74726163742070726f6f6673206d75737420686176652061746c65617360008201527f74206f6e6520656c656d656e7421000000000000000000000000000000000000602082015250565b7f416464726573733a2064656c65676174652063616c6c20746f206e6f6e2d636f60008201527f6e74726163740000000000000000000000000000000000000000000000000000602082015250565b7f496e697469616c697a61626c653a20636f6e7472616374206973206e6f74206960008201527f6e697469616c697a696e67000000000000000000000000000000000000000000602082015250565b7f70726f6f66206172726179206d75737420686176652061746c65617374206f6e60008201527f6520656c656d656e742e00000000000000000000000000000000000000000000602082015250565b7f68617368206d69736d6174636820666f756e64212120696e76616c696420707260008201527f6f6f66207061746820726576657274696e672e00000000000000000000000000602082015250565b7f6661696c656420746f20666574636820737461726b6e657420636f726520636f60008201527f6e747261637420737461746520626c6f636b2100000000000000000000000000602082015250565b600281106149f0576149ef614277565b5b50565b6149fc81613f9d565b8114614a0757600080fd5b50565b614a1381613fbb565b8114614a1e57600080fd5b50565b614a2a81613fc5565b8114614a3557600080fd5b50565b60028110614a4557600080fd5b50565b614a5181614004565b8114614a5c57600080fd5b50565b614a688161402e565b8114614a7357600080fd5b5056fe416464726573733a206c6f772d6c6576656c2064656c65676174652063616c6c206661696c6564a264697066735822122058a75b8633caafb2816d15cd21928a1bdc81de72ee98c051c4cce7f09209881564736f6c63430008040033",
  "linkReferences": {},
  "deployedLinkReferences": {}
}