{
  "_format": "hh-sol-artifact-1",
  "contractName": "StarknetVerifier",
  "sourceName": "contracts/StarknetVerifier.sol",
  "abi": [
    {
      "inputs": [
        {
          "internalType": "address",
          "name": "pedersenAddress",
          "type": "address"
        },
        {
          "internalType": "address",
          "name": "_starknetCoreContractAddress",
          "type": "address"
        },
        {
          "internalType": "string[]",
          "name": "_gateways",
          "type": "string[]"
        },
        {
          "internalType": "uint256",
          "name": "_l2resolver",
          "type": "uint256"
        }
      ],
      "stateMutability": "nonpayable",
      "type": "constructor"
    },
    {
      "inputs": [
        {
          "internalType": "address",
          "name": "sender",
          "type": "address"
        },
        {
          "internalType": "string[]",
          "name": "urls",
          "type": "string[]"
        },
        {
          "internalType": "bytes",
          "name": "callData",
          "type": "bytes"
        },
        {
          "internalType": "bytes4",
          "name": "callbackFunction",
          "type": "bytes4"
        },
        {
          "internalType": "bytes",
          "name": "extraData",
          "type": "bytes"
        }
      ],
      "name": "OffchainLookup",
      "type": "error"
    },
    {
      "inputs": [
        {
          "internalType": "bytes32",
          "name": "node",
          "type": "bytes32"
        },
        {
          "internalType": "uint256",
          "name": "coinType",
          "type": "uint256"
        }
      ],
      "name": "addr",
      "outputs": [
        {
          "internalType": "bytes",
          "name": "",
          "type": "bytes"
        }
      ],
      "stateMutability": "view",
      "type": "function"
    },
    {
      "inputs": [
        {
          "internalType": "bytes",
          "name": "response",
          "type": "bytes"
        },
        {
          "internalType": "bytes",
          "name": "extraData",
          "type": "bytes"
        }
      ],
      "name": "bytesAddrWithProof",
      "outputs": [
        {
          "internalType": "bytes",
          "name": "",
          "type": "bytes"
        }
      ],
      "stateMutability": "view",
      "type": "function"
    },
    {
      "inputs": [
        {
          "internalType": "uint256",
          "name": "a",
          "type": "uint256"
        },
        {
          "internalType": "uint256",
          "name": "b",
          "type": "uint256"
        },
        {
          "internalType": "uint256",
          "name": "startIndex",
          "type": "uint256"
        },
        {
          "internalType": "uint256",
          "name": "length",
          "type": "uint256"
        }
      ],
      "name": "compareBitsWithStartIndexAndLength",
      "outputs": [
        {
          "internalType": "bool",
          "name": "",
          "type": "bool"
        }
      ],
      "stateMutability": "pure",
      "type": "function"
    },
    {
      "inputs": [
        {
          "internalType": "uint256",
          "name": "x",
          "type": "uint256"
        },
        {
          "internalType": "uint256",
          "name": "y",
          "type": "uint256"
        }
      ],
      "name": "convertToBytes",
      "outputs": [
        {
          "internalType": "bytes",
          "name": "",
          "type": "bytes"
        }
      ],
      "stateMutability": "view",
      "type": "function"
    },
    {
      "inputs": [
        {
          "internalType": "uint256",
          "name": "",
          "type": "uint256"
        }
      ],
      "name": "gateways",
      "outputs": [
        {
          "internalType": "string",
          "name": "",
          "type": "string"
        }
      ],
      "stateMutability": "view",
      "type": "function"
    },
    {
      "inputs": [],
      "name": "getl2Resolver",
      "outputs": [
        {
          "internalType": "uint256",
          "name": "",
          "type": "uint256"
        }
      ],
      "stateMutability": "view",
      "type": "function"
    },
    {
      "inputs": [
        {
          "internalType": "uint256",
          "name": "a",
          "type": "uint256"
        },
        {
          "internalType": "uint256",
          "name": "b",
          "type": "uint256"
        }
      ],
      "name": "hash",
      "outputs": [
        {
          "internalType": "uint256",
          "name": "",
          "type": "uint256"
        }
      ],
      "stateMutability": "view",
      "type": "function"
    },
    {
      "inputs": [
        {
          "components": [
            {
              "internalType": "enum NodeType",
              "name": "nodeType",
              "type": "uint8"
            },
            {
              "components": [
                {
                  "internalType": "uint256",
                  "name": "leftHash",
                  "type": "uint256"
                },
                {
                  "internalType": "uint256",
                  "name": "rightHash",
                  "type": "uint256"
                }
              ],
              "internalType": "struct BinaryProof",
              "name": "binaryProof",
              "type": "tuple"
            },
            {
              "components": [
                {
                  "internalType": "uint256",
                  "name": "childHash",
                  "type": "uint256"
                },
                {
                  "internalType": "uint256",
                  "name": "path",
                  "type": "uint256"
                },
                {
                  "internalType": "uint256",
                  "name": "length",
                  "type": "uint256"
                }
              ],
              "internalType": "struct EdgeProof",
              "name": "edgeProof",
              "type": "tuple"
            }
          ],
          "internalType": "struct StarknetProof",
          "name": "proof",
          "type": "tuple"
        }
      ],
      "name": "hashForSingleProofNode",
      "outputs": [
        {
          "internalType": "uint256",
          "name": "",
          "type": "uint256"
        }
      ],
      "stateMutability": "view",
      "type": "function"
    },
    {
      "inputs": [],
      "name": "l2resolver",
      "outputs": [
        {
          "internalType": "uint256",
          "name": "",
          "type": "uint256"
        }
      ],
      "stateMutability": "view",
      "type": "function"
    },
    {
      "inputs": [
        {
          "internalType": "uint256",
          "name": "classHash",
          "type": "uint256"
        },
        {
          "internalType": "uint256",
          "name": "contractStateRoot",
          "type": "uint256"
        },
        {
          "internalType": "uint256",
          "name": "nonce",
          "type": "uint256"
        },
        {
          "internalType": "uint256",
          "name": "hashVersion",
          "type": "uint256"
        }
      ],
      "name": "stateHash",
      "outputs": [
        {
          "internalType": "uint256",
          "name": "",
          "type": "uint256"
        }
      ],
      "stateMutability": "view",
      "type": "function"
    },
    {
      "inputs": [
        {
          "internalType": "int256",
          "name": "blockNumber",
          "type": "int256"
        },
        {
          "components": [
            {
              "internalType": "uint256",
              "name": "contractStateRoot",
              "type": "uint256"
            },
            {
              "internalType": "uint256",
              "name": "contractAddress",
              "type": "uint256"
            },
            {
              "internalType": "uint256",
              "name": "storageVarAddress",
              "type": "uint256"
            },
            {
              "internalType": "uint256",
              "name": "classHash",
              "type": "uint256"
            },
            {
              "internalType": "uint256",
              "name": "hashVersion",
              "type": "uint256"
            },
            {
              "internalType": "uint256",
              "name": "nonce",
              "type": "uint256"
            }
          ],
          "internalType": "struct ContractData",
          "name": "contractData",
          "type": "tuple"
        },
        {
          "components": [
            {
              "internalType": "enum NodeType",
              "name": "nodeType",
              "type": "uint8"
            },
            {
              "components": [
                {
                  "internalType": "uint256",
                  "name": "leftHash",
                  "type": "uint256"
                },
                {
                  "internalType": "uint256",
                  "name": "rightHash",
                  "type": "uint256"
                }
              ],
              "internalType": "struct BinaryProof",
              "name": "binaryProof",
              "type": "tuple"
            },
            {
              "components": [
                {
                  "internalType": "uint256",
                  "name": "childHash",
                  "type": "uint256"
                },
                {
                  "internalType": "uint256",
                  "name": "path",
                  "type": "uint256"
                },
                {
                  "internalType": "uint256",
                  "name": "length",
                  "type": "uint256"
                }
              ],
              "internalType": "struct EdgeProof",
              "name": "edgeProof",
              "type": "tuple"
            }
          ],
          "internalType": "struct StarknetProof[]",
          "name": "contractProofArray",
          "type": "tuple[]"
        },
        {
          "components": [
            {
              "internalType": "enum NodeType",
              "name": "nodeType",
              "type": "uint8"
            },
            {
              "components": [
                {
                  "internalType": "uint256",
                  "name": "leftHash",
                  "type": "uint256"
                },
                {
                  "internalType": "uint256",
                  "name": "rightHash",
                  "type": "uint256"
                }
              ],
              "internalType": "struct BinaryProof",
              "name": "binaryProof",
              "type": "tuple"
            },
            {
              "components": [
                {
                  "internalType": "uint256",
                  "name": "childHash",
                  "type": "uint256"
                },
                {
                  "internalType": "uint256",
                  "name": "path",
                  "type": "uint256"
                },
                {
                  "internalType": "uint256",
                  "name": "length",
                  "type": "uint256"
                }
              ],
              "internalType": "struct EdgeProof",
              "name": "edgeProof",
              "type": "tuple"
            }
          ],
          "internalType": "struct StarknetProof[]",
          "name": "storageProofArray",
          "type": "tuple[]"
        }
      ],
      "name": "verifiedStorageValue",
      "outputs": [
        {
          "internalType": "uint256",
          "name": "value",
          "type": "uint256"
        }
      ],
      "stateMutability": "view",
      "type": "function"
    },
    {
      "inputs": [
        {
          "internalType": "uint256",
          "name": "rootHash",
          "type": "uint256"
        },
        {
          "internalType": "uint256",
          "name": "path",
          "type": "uint256"
        },
        {
          "components": [
            {
              "internalType": "enum NodeType",
              "name": "nodeType",
              "type": "uint8"
            },
            {
              "components": [
                {
                  "internalType": "uint256",
                  "name": "leftHash",
                  "type": "uint256"
                },
                {
                  "internalType": "uint256",
                  "name": "rightHash",
                  "type": "uint256"
                }
              ],
              "internalType": "struct BinaryProof",
              "name": "binaryProof",
              "type": "tuple"
            },
            {
              "components": [
                {
                  "internalType": "uint256",
                  "name": "childHash",
                  "type": "uint256"
                },
                {
                  "internalType": "uint256",
                  "name": "path",
                  "type": "uint256"
                },
                {
                  "internalType": "uint256",
                  "name": "length",
                  "type": "uint256"
                }
              ],
              "internalType": "struct EdgeProof",
              "name": "edgeProof",
              "type": "tuple"
            }
          ],
          "internalType": "struct StarknetProof[]",
          "name": "proofArray",
          "type": "tuple[]"
        }
      ],
      "name": "verifyProof",
      "outputs": [
        {
          "internalType": "uint256",
          "name": "value",
          "type": "uint256"
        }
      ],
      "stateMutability": "view",
      "type": "function"
    }
  ],
  "bytecode": "0x60806040527f03ffffffffffffffffffffffffffffffffffffffffffffffffffffffffffffff6004557f029539a1d23af1810c48a07fe7fc66a3b34fbc8b37e9b3cdb97bb88ceab7e4bf6005553480156200005957600080fd5b5060405162002af738038062002af783398181016040528101906200007f91906200040d565b83600260006101000a81548173ffffffffffffffffffffffffffffffffffffffff021916908373ffffffffffffffffffffffffffffffffffffffff16021790555082600360006101000a81548173ffffffffffffffffffffffffffffffffffffffff021916908373ffffffffffffffffffffffffffffffffffffffff1602179055508160009080519060200190620001199291906200012b565b508060018190555050505050620006a3565b8280548282559060005260206000209081019282156200017f579160200282015b828111156200017e5782518290805190602001906200016d92919062000192565b50916020019190600101906200014c565b5b5090506200018e919062000223565b5090565b828054620001a09062000594565b90600052602060002090601f016020900481019282620001c4576000855562000210565b82601f10620001df57805160ff191683800117855562000210565b8280016001018555821562000210579182015b828111156200020f578251825591602001919060010190620001f2565b5b5090506200021f91906200024b565b5090565b5b808211156200024757600081816200023d91906200026a565b5060010162000224565b5090565b5b80821115620002665760008160009055506001016200024c565b5090565b508054620002789062000594565b6000825580601f106200028c5750620002ad565b601f016020900490600052602060002090810190620002ac91906200024b565b5b50565b6000620002c7620002c184620004bb565b62000492565b90508083825260208201905082856020860282011115620002e757600080fd5b60005b858110156200033657815167ffffffffffffffff8111156200030b57600080fd5b8086016200031a8982620003c9565b85526020850194506020840193505050600181019050620002ea565b5050509392505050565b6000620003576200035184620004ea565b62000492565b9050828152602081018484840111156200037057600080fd5b6200037d8482856200055e565b509392505050565b60008151905062000396816200066f565b92915050565b600082601f830112620003ae57600080fd5b8151620003c0848260208601620002b0565b91505092915050565b600082601f830112620003db57600080fd5b8151620003ed84826020860162000340565b91505092915050565b600081519050620004078162000689565b92915050565b600080600080608085870312156200042457600080fd5b6000620004348782880162000385565b9450506020620004478782880162000385565b935050604085015167ffffffffffffffff8111156200046557600080fd5b62000473878288016200039c565b92505060606200048687828801620003f6565b91505092959194509250565b60006200049e620004b1565b9050620004ac8282620005ca565b919050565b6000604051905090565b600067ffffffffffffffff821115620004d957620004d86200062f565b5b602082029050602081019050919050565b600067ffffffffffffffff8211156200050857620005076200062f565b5b62000513826200065e565b9050602081019050919050565b60006200052d8262000534565b9050919050565b600073ffffffffffffffffffffffffffffffffffffffff82169050919050565b6000819050919050565b60005b838110156200057e57808201518184015260208101905062000561565b838111156200058e576000848401525b50505050565b60006002820490506001821680620005ad57607f821691505b60208210811415620005c457620005c362000600565b5b50919050565b620005d5826200065e565b810181811067ffffffffffffffff82111715620005f757620005f66200062f565b5b80604052505050565b7f4e487b7100000000000000000000000000000000000000000000000000000000600052602260045260246000fd5b7f4e487b7100000000000000000000000000000000000000000000000000000000600052604160045260246000fd5b6000601f19601f8301169050919050565b6200067a8162000520565b81146200068657600080fd5b50565b620006948162000554565b8114620006a057600080fd5b50565b61244480620006b36000396000f3fe608060405234801561001057600080fd5b50600436106100b45760003560e01c80639072a1b3116100715780639072a1b3146101b5578063a78dac0d146101e5578063a8d7679f14610215578063c95e47b814610245578063c96dbc8714610275578063f1cb7e06146102a5576100b4565b80630bd7bb26146100b95780630cfe46e6146100e957806364c17056146101195780636b01b542146101495780637a1dc0701461017957806388083d5014610197575b600080fd5b6100d360048036038101906100ce919061167b565b6102d5565b6040516100e09190611d9d565b60405180910390f35b61010360048036038101906100fe91906114ff565b6103de565b6040516101109190611c74565b60405180910390f35b610133600480360381019061012e91906116a4565b6103fe565b6040516101409190611ceb565b60405180910390f35b610163600480360381019061015e919061179e565b6104aa565b6040516101709190611d9d565b60405180910390f35b6101816104d7565b60405161018e9190611d9d565b60405180910390f35b61019f6104dd565b6040516101ac9190611d9d565b60405180910390f35b6101cf60048036038101906101ca9190611732565b6104e7565b6040516101dc9190611d9d565b60405180910390f35b6101ff60048036038101906101fa91906116f6565b610763565b60405161020c9190611d9d565b60405180910390f35b61022f600480360381019061022a919061159d565b610867565b60405161023c9190611d9d565b60405180910390f35b61025f600480360381019061025a919061179e565b610b65565b60405161026c9190611c59565b60405180910390f35b61028f600480360381019061028a91906116f6565b610b93565b60405161029c9190611c74565b60405180910390f35b6102bf60048036038101906102ba91906114c3565b610c23565b6040516102cc9190611c74565b60405180910390f35b6000806000905060006001811115610316577f4e487b7100000000000000000000000000000000000000000000000000000000600052602160045260246000fd5b83600001516001811115610353577f4e487b7100000000000000000000000000000000000000000000000000000000600052602160045260246000fd5b141561037a57610373836020015160000151846020015160200151610763565b90506103d5565b7f08000000000000110000000000000000000000000000000000000000000000018360400151604001516103be856040015160000151866040015160200151610763565b6103c89190611f0a565b6103d291906121fd565b90505b80915050919050565b60606103f46103ef86868686610c62565b610d69565b9050949350505050565b6000818154811061040e57600080fd5b90600052602060002001600091509050805461042990612151565b80601f016020809104026020016040519081016040528092919081815260200182805461045590612151565b80156104a25780601f10610477576101008083540402835291602001916104a2565b820191906000526020600020905b81548152906001019060200180831161048557829003601f168201915b505050505081565b6000806104c96104c36104bd8888610763565b86610763565b84610763565b905080915050949350505050565b60015481565b6000600154905090565b600080859050600060fa905060006001905060005b868690508110156106ec57600083126106d957600087878381811061054a577f4e487b7100000000000000000000000000000000000000000000000000000000600052603260045260246000fd5b905060c00201803603810190610560919061167b565b905061056b816102d5565b85146105ac576040517f08c379a00000000000000000000000000000000000000000000000000000000081526004016105a390611d5d565b60405180910390fd5b600060018111156105e6577f4e487b7100000000000000000000000000000000000000000000000000000000600052602160045260246000fd5b81600001516001811115610623577f4e487b7100000000000000000000000000000000000000000000000000000000600052602160045260246000fd5b141561067057600180858b901c1614925060011515831515141561065157806020015160200151945061065d565b80602001516000015194505b838061066890612108565b9450506106d7565b80604001516000015194506000816040015160400151905080856106949190611f60565b94506106d56040518060400160405280600c81526020017f70617468426974496e646578000000000000000000000000000000000000000081525086610dec565b505b505b80806106e4906121b4565b9150506104fc565b507fffffffffffffffffffffffffffffffffffffffffffffffffffffffffffffffff8214156107205782935050505061075b565b6040517f08c379a000000000000000000000000000000000000000000000000000000000815260040161075290611d5d565b60405180910390fd5b949350505050565b6000600260009054906101000a900473ffffffffffffffffffffffffffffffffffffffff1673ffffffffffffffffffffffffffffffffffffffff1663aa1e84de6107ad8585610b93565b6040518263ffffffff1660e01b81526004016107c99190611c74565b60006040518083038186803b1580156107e157600080fd5b505afa1580156107f5573d6000803e3d6000fd5b505050506040513d6000823e3d601f19601f8201168201806040525081019061081e9190611459565b600081518110610857577f4e487b7100000000000000000000000000000000000000000000000000000000600052603260045260246000fd5b6020026020010151905092915050565b60006109476040518060400160405280600981526020017f7374617465526f6f740000000000000000000000000000000000000000000000815250600360009054906101000a900473ffffffffffffffffffffffffffffffffffffffff1673ffffffffffffffffffffffffffffffffffffffff16639588eca26040518163ffffffff1660e01b815260040160206040518083038186803b15801561090a57600080fd5b505afa15801561091e573d6000803e3d6000fd5b505050506040513d601f19601f8201168201806040525081019061094291906116cd565b610dec565b600360009054906101000a900473ffffffffffffffffffffffffffffffffffffffff1673ffffffffffffffffffffffffffffffffffffffff166335befa5d6040518163ffffffff1660e01b815260040160206040518083038186803b1580156109af57600080fd5b505afa1580156109c3573d6000803e3d6000fd5b505050506040513d601f19601f820116820180604052508101906109e79190611574565b8714610a28576040517f08c379a0000000000000000000000000000000000000000000000000000000008152600401610a1f90611d3d565b60405180910390fd5b6000610a46876060013588600001358960a001358a608001356104aa565b90506000610a5e8860000135896040013587876104e7565b90506000610b11600360009054906101000a900473ffffffffffffffffffffffffffffffffffffffff1673ffffffffffffffffffffffffffffffffffffffff16639588eca26040518163ffffffff1660e01b815260040160206040518083038186803b158015610acd57600080fd5b505afa158015610ae1573d6000803e3d6000fd5b505050506040513d601f19601f82011682018060405250810190610b0591906116cd565b8a602001358a8a6104e7565b9050808314610b55576040517f08c379a0000000000000000000000000000000000000000000000000000000008152600401610b4c90611d7d565b60405180910390fd5b8193505050509695505050505050565b6000806001836001901b610b799190611ff4565b9050808486901c16818588901c1614915050949350505050565b60606000604067ffffffffffffffff811115610bd8577f4e487b7100000000000000000000000000000000000000000000000000000000600052604160045260246000fd5b6040519080825280601f01601f191660200182016040528015610c0a5781602001600182028036833780820191505090505b5090508360208201528260408201528091505092915050565b606061232c821415610c4f57610c48610c4384630cfe46e660e01b610e88565b610d69565b9050610c5c565b610c596000610d69565b90505b92915050565b6000808585810190610c74919061163a565b905060008484810190610c87919061149a565b90506000610c978260001c610f74565b905060015483602001516020018181525050808360200151604001818152505060003073ffffffffffffffffffffffffffffffffffffffff1663a8d7679f85600001518660200151876040015188606001516040518563ffffffff1660e01b8152600401610d089493929190611c96565b60206040518083038186803b158015610d2057600080fd5b505afa158015610d34573d6000803e3d6000fd5b505050506040513d601f19601f82011682018060405250810190610d5891906116cd565b905080945050505050949350505050565b6060602067ffffffffffffffff811115610dac577f4e487b7100000000000000000000000000000000000000000000000000000000600052604160045260246000fd5b6040519080825280601f01601f191660200182016040528015610dde5781602001600182028036833780820191505090505b509050816020820152919050565b610e848282604051602401610e02929190611d0d565b6040516020818303038152906040527fb60e72cc000000000000000000000000000000000000000000000000000000007bffffffffffffffffffffffffffffffffffffffffffffffffffffffff19166020820180517bffffffffffffffffffffffffffffffffffffffffffffffffffffffff8381831617835250505050610f89565b5050565b6000806004548460001c1690506000633b3b57de60e01b82604051602401610eb09190611d9d565b604051602081830303815290604052907bffffffffffffffffffffffffffffffffffffffffffffffffffffffff19166020820180517bffffffffffffffffffffffffffffffffffffffffffffffffffffffff83818316178352505050509050306000828685604051602001610f259190611d9d565b6040516020818303038152906040526040517f556f1830000000000000000000000000000000000000000000000000000000008152600401610f6b959493929190611bf1565b60405180910390fd5b6000610f8260055483610763565b9050919050565b60008151905060006a636f6e736f6c652e6c6f679050602083016000808483855afa5050505050565b6000610fc5610fc084611ddd565b611db8565b905080838252602082019050828560c0860282011115610fe457600080fd5b60005b858110156110145781610ffa88826113cf565b845260208401935060c08301925050600181019050610fe7565b5050509392505050565b600061103161102c84611e09565b611db8565b9050808382526020820190508285602086028201111561105057600080fd5b60005b8581101561108057816110668882611444565b845260208401935060208301925050600181019050611053565b5050509392505050565b60008083601f84011261109c57600080fd5b8235905067ffffffffffffffff8111156110b557600080fd5b6020830191508360c08202830111156110cd57600080fd5b9250929050565b600082601f8301126110e557600080fd5b81356110f5848260208601610fb2565b91505092915050565b600082601f83011261110f57600080fd5b815161111f84826020860161101e565b91505092915050565b600081359050611137816123b9565b92915050565b60008083601f84011261114f57600080fd5b8235905067ffffffffffffffff81111561116857600080fd5b60208301915083600182028301111561118057600080fd5b9250929050565b600081359050611196816123d0565b92915050565b6000813590506111ab816123e0565b92915050565b6000815190506111c0816123e0565b92915050565b6000604082840312156111d857600080fd5b6111e26040611db8565b905060006111f28482850161142f565b60008301525060206112068482850161142f565b60208301525092915050565b600060c0828403121561122457600080fd5b81905092915050565b600060c0828403121561123f57600080fd5b61124960c0611db8565b905060006112598482850161142f565b600083015250602061126d8482850161142f565b60208301525060406112818482850161142f565b60408301525060606112958482850161142f565b60608301525060806112a98482850161142f565b60808301525060a06112bd8482850161142f565b60a08301525092915050565b6000606082840312156112db57600080fd5b6112e56060611db8565b905060006112f58482850161142f565b60008301525060206113098482850161142f565b602083015250604061131d8482850161142f565b60408301525092915050565b6000610120828403121561133c57600080fd5b6113466080611db8565b905060006113568482850161119c565b600083015250602061136a8482850161122d565b60208301525060e082013567ffffffffffffffff81111561138a57600080fd5b611396848285016110d4565b60408301525061010082013567ffffffffffffffff8111156113b757600080fd5b6113c3848285016110d4565b60608301525092915050565b600060c082840312156113e157600080fd5b6113eb6060611db8565b905060006113fb84828501611187565b600083015250602061140f848285016111c6565b6020830152506060611423848285016112c9565b60408301525092915050565b60008135905061143e816123f7565b92915050565b600081519050611453816123f7565b92915050565b60006020828403121561146b57600080fd5b600082015167ffffffffffffffff81111561148557600080fd5b611491848285016110fe565b91505092915050565b6000602082840312156114ac57600080fd5b60006114ba84828501611128565b91505092915050565b600080604083850312156114d657600080fd5b60006114e485828601611128565b92505060206114f58582860161142f565b9150509250929050565b6000806000806040858703121561151557600080fd5b600085013567ffffffffffffffff81111561152f57600080fd5b61153b8782880161113d565b9450945050602085013567ffffffffffffffff81111561155a57600080fd5b6115668782880161113d565b925092505092959194509250565b60006020828403121561158657600080fd5b6000611594848285016111b1565b91505092915050565b60008060008060008061012087890312156115b757600080fd5b60006115c589828a0161119c565b96505060206115d689828a01611212565b95505060e087013567ffffffffffffffff8111156115f357600080fd5b6115ff89828a0161108a565b945094505061010087013567ffffffffffffffff81111561161f57600080fd5b61162b89828a0161108a565b92509250509295509295509295565b60006020828403121561164c57600080fd5b600082013567ffffffffffffffff81111561166657600080fd5b61167284828501611329565b91505092915050565b600060c0828403121561168d57600080fd5b600061169b848285016113cf565b91505092915050565b6000602082840312156116b657600080fd5b60006116c48482850161142f565b91505092915050565b6000602082840312156116df57600080fd5b60006116ed84828501611444565b91505092915050565b6000806040838503121561170957600080fd5b60006117178582860161142f565b92505060206117288582860161142f565b9150509250929050565b6000806000806060858703121561174857600080fd5b60006117568782880161142f565b94505060206117678782880161142f565b935050604085013567ffffffffffffffff81111561178457600080fd5b6117908782880161108a565b925092505092959194509250565b600080600080608085870312156117b457600080fd5b60006117c28782880161142f565b94505060206117d38782880161142f565b93505060406117e48782880161142f565b92505060606117f58782880161142f565b91505092959194509250565b600061180d83836119bc565b905092915050565b60006118218383611b91565b60c08301905092915050565b61183681612028565b82525050565b600061184782611e6f565b6118518185611eb5565b93508360208202850161186385611e35565b8060005b8581101561189e5784840389528161187f8582611801565b945061188a83611e9b565b925060208a01995050600181019050611867565b50829750879550505050505092915050565b60006118bb82611e7a565b6118c58185611ec6565b93506118d083611e4a565b8060005b838110156119015781516118e88882611815565b97506118f383611ea8565b9250506001810190506118d4565b5085935050505092915050565b6119178161203a565b82525050565b61192681612050565b82525050565b600061193782611e85565b6119418185611ed7565b93506119518185602086016120d5565b61195a81612319565b840191505092915050565b61196e816120c3565b82525050565b61197d8161208f565b82525050565b600061198e82611e90565b6119988185611ef9565b93506119a88185602086016120d5565b6119b181612319565b840191505092915050565b600081546119c981612151565b6119d38186611ee8565b945060018216600081146119ee5760018114611a0057611a33565b60ff1983168652602086019350611a33565b611a0985611e5a565b60005b83811015611a2b57815481890152600182019150602081019050611a0c565b808801955050505b50505092915050565b6000611a49601783611ef9565b9150611a548261232a565b602082019050919050565b6000611a6c601083611ef9565b9150611a7782612353565b602082019050919050565b6000611a8f601583611ef9565b9150611a9a8261237c565b602082019050919050565b604082016000820151611abb6000850182611bd3565b506020820151611ace6020850182611bd3565b50505050565b60c082016000820151611aea6000850182611bd3565b506020820151611afd6020850182611bd3565b506040820151611b106040850182611bd3565b506060820151611b236060850182611bd3565b506080820151611b366080850182611bd3565b5060a0820151611b4960a0850182611bd3565b50505050565b606082016000820151611b656000850182611bd3565b506020820151611b786020850182611bd3565b506040820151611b8b6040850182611bd3565b50505050565b60c082016000820151611ba76000850182611965565b506020820151611bba6020850182611aa5565b506040820151611bcd6060850182611b4f565b50505050565b611bdc816120b9565b82525050565b611beb816120b9565b82525050565b600060a082019050611c06600083018861182d565b8181036020830152611c18818761183c565b90508181036040830152611c2c818661192c565b9050611c3b606083018561191d565b8181036080830152611c4d818461192c565b90509695505050505050565b6000602082019050611c6e600083018461190e565b92915050565b60006020820190508181036000830152611c8e818461192c565b905092915050565b600061012082019050611cac6000830187611974565b611cb96020830186611ad4565b81810360e0830152611ccb81856118b0565b9050818103610100830152611ce081846118b0565b905095945050505050565b60006020820190508181036000830152611d058184611983565b905092915050565b60006040820190508181036000830152611d278185611983565b9050611d366020830184611be2565b9392505050565b60006020820190508181036000830152611d5681611a3c565b9050919050565b60006020820190508181036000830152611d7681611a5f565b9050919050565b60006020820190508181036000830152611d9681611a82565b9050919050565b6000602082019050611db26000830184611be2565b92915050565b6000611dc2611dd3565b9050611dce8282612183565b919050565b6000604051905090565b600067ffffffffffffffff821115611df857611df76122ea565b5b602082029050602081019050919050565b600067ffffffffffffffff821115611e2457611e236122ea565b5b602082029050602081019050919050565b60008190508160005260206000209050919050565b6000819050602082019050919050565b60008190508160005260206000209050919050565b600081549050919050565b600081519050919050565b600081519050919050565b600081519050919050565b6000600182019050919050565b6000602082019050919050565b600082825260208201905092915050565b600082825260208201905092915050565b600082825260208201905092915050565b600082825260208201905092915050565b600082825260208201905092915050565b6000611f15826120b9565b9150611f20836120b9565b9250827fffffffffffffffffffffffffffffffffffffffffffffffffffffffffffffffff03821115611f5557611f5461222e565b5b828201905092915050565b6000611f6b8261208f565b9150611f768361208f565b9250827f800000000000000000000000000000000000000000000000000000000000000001821260008412151615611fb157611fb061222e565b5b827f7fffffffffffffffffffffffffffffffffffffffffffffffffffffffffffffff018213600084121615611fe957611fe861222e565b5b828203905092915050565b6000611fff826120b9565b915061200a836120b9565b92508282101561201d5761201c61222e565b5b828203905092915050565b600061203382612099565b9050919050565b60008115159050919050565b6000819050919050565b60007fffffffff0000000000000000000000000000000000000000000000000000000082169050919050565b600081905061208a826123a5565b919050565b6000819050919050565b600073ffffffffffffffffffffffffffffffffffffffff82169050919050565b6000819050919050565b60006120ce8261207c565b9050919050565b60005b838110156120f35780820151818401526020810190506120d8565b83811115612102576000848401525b50505050565b60006121138261208f565b91507f80000000000000000000000000000000000000000000000000000000000000008214156121465761214561222e565b5b600182039050919050565b6000600282049050600182168061216957607f821691505b6020821081141561217d5761217c6122bb565b5b50919050565b61218c82612319565b810181811067ffffffffffffffff821117156121ab576121aa6122ea565b5b80604052505050565b60006121bf826120b9565b91507fffffffffffffffffffffffffffffffffffffffffffffffffffffffffffffffff8214156121f2576121f161222e565b5b600182019050919050565b6000612208826120b9565b9150612213836120b9565b9250826122235761222261225d565b5b828206905092915050565b7f4e487b7100000000000000000000000000000000000000000000000000000000600052601160045260246000fd5b7f4e487b7100000000000000000000000000000000000000000000000000000000600052601260045260246000fd5b7f4e487b7100000000000000000000000000000000000000000000000000000000600052602160045260246000fd5b7f4e487b7100000000000000000000000000000000000000000000000000000000600052602260045260246000fd5b7f4e487b7100000000000000000000000000000000000000000000000000000000600052604160045260246000fd5b6000601f19601f8301169050919050565b7f426c6f636b206e756d62657220697320696e76616c6964000000000000000000600082015250565b7f50726f6f6620697320696e76616c696400000000000000000000000000000000600082015250565b7f5374617465206861736820697320696e76616c69640000000000000000000000600082015250565b600281106123b6576123b561228c565b5b50565b6123c281612046565b81146123cd57600080fd5b50565b600281106123dd57600080fd5b50565b6123e98161208f565b81146123f457600080fd5b50565b612400816120b9565b811461240b57600080fd5b5056fea26469706673582212207d09125eb93c39249d1abd2d508c813b41a19652f60f08d6d9b5f28328d925fd64736f6c63430008040033",
  "linkReferences": {},
  "deployedLinkReferences": {}
}