{
  "_format": "hh-sol-artifact-1",
  "contractName": "StarknetVerifier",
  "sourceName": "contracts/StarknetVerifier.sol",
  "abi": [
    {
      "inputs": [],
      "stateMutability": "nonpayable",
      "type": "constructor"
    },
    {
      "inputs": [
        {
          "internalType": "address",
          "name": "sender",
          "type": "address"
        },
        {
          "internalType": "string[]",
          "name": "urls",
          "type": "string[]"
        },
        {
          "internalType": "bytes",
          "name": "callData",
          "type": "bytes"
        },
        {
          "internalType": "bytes4",
          "name": "callbackFunction",
          "type": "bytes4"
        },
        {
          "internalType": "bytes",
          "name": "extraData",
          "type": "bytes"
        }
      ],
      "name": "OffchainLookup",
      "type": "error"
    },
    {
      "anonymous": false,
      "inputs": [
        {
          "indexed": false,
          "internalType": "address",
          "name": "previousAdmin",
          "type": "address"
        },
        {
          "indexed": false,
          "internalType": "address",
          "name": "newAdmin",
          "type": "address"
        }
      ],
      "name": "AdminChanged",
      "type": "event"
    },
    {
      "anonymous": false,
      "inputs": [
        {
          "indexed": true,
          "internalType": "address",
          "name": "beacon",
          "type": "address"
        }
      ],
      "name": "BeaconUpgraded",
      "type": "event"
    },
    {
      "anonymous": false,
      "inputs": [
        {
          "indexed": false,
          "internalType": "uint8",
          "name": "version",
          "type": "uint8"
        }
      ],
      "name": "Initialized",
      "type": "event"
    },
    {
      "anonymous": false,
      "inputs": [
        {
          "indexed": true,
          "internalType": "address",
          "name": "previousOwner",
          "type": "address"
        },
        {
          "indexed": true,
          "internalType": "address",
          "name": "newOwner",
          "type": "address"
        }
      ],
      "name": "OwnershipTransferred",
      "type": "event"
    },
    {
      "anonymous": false,
      "inputs": [
        {
          "indexed": true,
          "internalType": "address",
          "name": "implementation",
          "type": "address"
        }
      ],
      "name": "Upgraded",
      "type": "event"
    },
    {
      "inputs": [
        {
          "internalType": "bytes32",
          "name": "node",
          "type": "bytes32"
        },
        {
          "internalType": "uint256",
          "name": "coinType",
          "type": "uint256"
        }
      ],
      "name": "addr",
      "outputs": [
        {
          "internalType": "bytes",
          "name": "",
          "type": "bytes"
        }
      ],
      "stateMutability": "view",
      "type": "function"
    },
    {
      "inputs": [
        {
          "internalType": "bytes",
          "name": "response",
          "type": "bytes"
        },
        {
          "internalType": "bytes",
          "name": "extraData",
          "type": "bytes"
        }
      ],
      "name": "bytesAddrWithProof",
      "outputs": [
        {
          "internalType": "bytes",
          "name": "",
          "type": "bytes"
        }
      ],
      "stateMutability": "view",
      "type": "function"
    },
    {
      "inputs": [
        {
          "internalType": "uint256",
          "name": "a",
          "type": "uint256"
        },
        {
          "internalType": "uint256",
          "name": "b",
          "type": "uint256"
        },
        {
          "internalType": "uint256",
          "name": "startIndex",
          "type": "uint256"
        },
        {
          "internalType": "uint256",
          "name": "length",
          "type": "uint256"
        }
      ],
      "name": "compareBitsWithStartIndexAndLength",
      "outputs": [
        {
          "internalType": "bool",
          "name": "",
          "type": "bool"
        }
      ],
      "stateMutability": "pure",
      "type": "function"
    },
    {
      "inputs": [
        {
          "internalType": "uint256",
          "name": "x",
          "type": "uint256"
        },
        {
          "internalType": "uint256",
          "name": "y",
          "type": "uint256"
        }
      ],
      "name": "convertToBytes",
      "outputs": [
        {
          "internalType": "bytes",
          "name": "",
          "type": "bytes"
        }
      ],
      "stateMutability": "pure",
      "type": "function"
    },
    {
      "inputs": [
        {
          "internalType": "uint256",
          "name": "",
          "type": "uint256"
        }
      ],
      "name": "gateways",
      "outputs": [
        {
          "internalType": "string",
          "name": "",
          "type": "string"
        }
      ],
      "stateMutability": "view",
      "type": "function"
    },
    {
      "inputs": [],
      "name": "getl2Resolver",
      "outputs": [
        {
          "internalType": "uint256",
          "name": "",
          "type": "uint256"
        }
      ],
      "stateMutability": "view",
      "type": "function"
    },
    {
      "inputs": [
        {
          "internalType": "uint256",
          "name": "a",
          "type": "uint256"
        },
        {
          "internalType": "uint256",
          "name": "b",
          "type": "uint256"
        }
      ],
      "name": "hash",
      "outputs": [
        {
          "internalType": "uint256",
          "name": "",
          "type": "uint256"
        }
      ],
      "stateMutability": "view",
      "type": "function"
    },
    {
      "inputs": [
        {
          "components": [
            {
              "internalType": "enum NodeType",
              "name": "nodeType",
              "type": "uint8"
            },
            {
              "components": [
                {
                  "internalType": "uint256",
                  "name": "leftHash",
                  "type": "uint256"
                },
                {
                  "internalType": "uint256",
                  "name": "rightHash",
                  "type": "uint256"
                }
              ],
              "internalType": "struct BinaryProof",
              "name": "binaryProof",
              "type": "tuple"
            },
            {
              "components": [
                {
                  "internalType": "uint256",
                  "name": "childHash",
                  "type": "uint256"
                },
                {
                  "internalType": "uint256",
                  "name": "path",
                  "type": "uint256"
                },
                {
                  "internalType": "uint256",
                  "name": "length",
                  "type": "uint256"
                }
              ],
              "internalType": "struct EdgeProof",
              "name": "edgeProof",
              "type": "tuple"
            }
          ],
          "internalType": "struct StarknetProof",
          "name": "proof",
          "type": "tuple"
        }
      ],
      "name": "hashForSingleProofNode",
      "outputs": [
        {
          "internalType": "uint256",
          "name": "",
          "type": "uint256"
        }
      ],
      "stateMutability": "view",
      "type": "function"
    },
    {
      "inputs": [
        {
          "internalType": "address",
          "name": "pedersenAddress",
          "type": "address"
        },
        {
          "internalType": "address",
          "name": "_starknetCoreContractAddress",
          "type": "address"
        },
        {
          "internalType": "string[]",
          "name": "_gateways",
          "type": "string[]"
        },
        {
          "internalType": "uint256",
          "name": "_l2resolver",
          "type": "uint256"
        }
      ],
      "name": "initialize",
      "outputs": [],
      "stateMutability": "nonpayable",
      "type": "function"
    },
    {
      "inputs": [],
      "name": "l2resolver",
      "outputs": [
        {
          "internalType": "uint256",
          "name": "",
          "type": "uint256"
        }
      ],
      "stateMutability": "view",
      "type": "function"
    },
    {
      "inputs": [],
      "name": "owner",
      "outputs": [
        {
          "internalType": "address",
          "name": "",
          "type": "address"
        }
      ],
      "stateMutability": "view",
      "type": "function"
    },
    {
      "inputs": [],
      "name": "pedersen",
      "outputs": [
        {
          "internalType": "contract PedersenHash",
          "name": "",
          "type": "address"
        }
      ],
      "stateMutability": "view",
      "type": "function"
    },
    {
      "inputs": [],
      "name": "proxiableUUID",
      "outputs": [
        {
          "internalType": "bytes32",
          "name": "",
          "type": "bytes32"
        }
      ],
      "stateMutability": "view",
      "type": "function"
    },
    {
      "inputs": [],
      "name": "renounceOwnership",
      "outputs": [],
      "stateMutability": "nonpayable",
      "type": "function"
    },
    {
      "inputs": [],
      "name": "starknetCoreContract",
      "outputs": [
        {
          "internalType": "contract StarknetCoreContract",
          "name": "",
          "type": "address"
        }
      ],
      "stateMutability": "view",
      "type": "function"
    },
    {
      "inputs": [
        {
          "internalType": "uint256",
          "name": "classHash",
          "type": "uint256"
        },
        {
          "internalType": "uint256",
          "name": "contractStateRoot",
          "type": "uint256"
        },
        {
          "internalType": "uint256",
          "name": "nonce",
          "type": "uint256"
        },
        {
          "internalType": "uint256",
          "name": "hashVersion",
          "type": "uint256"
        }
      ],
      "name": "stateHash",
      "outputs": [
        {
          "internalType": "uint256",
          "name": "",
          "type": "uint256"
        }
      ],
      "stateMutability": "view",
      "type": "function"
    },
    {
      "inputs": [
        {
          "internalType": "address",
          "name": "newOwner",
          "type": "address"
        }
      ],
      "name": "transferOwnership",
      "outputs": [],
      "stateMutability": "nonpayable",
      "type": "function"
    },
    {
      "inputs": [
        {
          "internalType": "address",
          "name": "newImplementation",
          "type": "address"
        }
      ],
      "name": "upgradeTo",
      "outputs": [],
      "stateMutability": "nonpayable",
      "type": "function"
    },
    {
      "inputs": [
        {
          "internalType": "address",
          "name": "newImplementation",
          "type": "address"
        },
        {
          "internalType": "bytes",
          "name": "data",
          "type": "bytes"
        }
      ],
      "name": "upgradeToAndCall",
      "outputs": [],
      "stateMutability": "payable",
      "type": "function"
    },
    {
      "inputs": [
        {
          "internalType": "int256",
          "name": "blockNumber",
          "type": "int256"
        },
        {
          "components": [
            {
              "internalType": "uint256",
              "name": "contractStateRoot",
              "type": "uint256"
            },
            {
              "internalType": "uint256",
              "name": "contractAddress",
              "type": "uint256"
            },
            {
              "internalType": "uint256",
              "name": "storageVarAddress",
              "type": "uint256"
            },
            {
              "internalType": "uint256",
              "name": "classHash",
              "type": "uint256"
            },
            {
              "internalType": "uint256",
              "name": "hashVersion",
              "type": "uint256"
            },
            {
              "internalType": "uint256",
              "name": "nonce",
              "type": "uint256"
            }
          ],
          "internalType": "struct ContractData",
          "name": "contractData",
          "type": "tuple"
        },
        {
          "components": [
            {
              "internalType": "enum NodeType",
              "name": "nodeType",
              "type": "uint8"
            },
            {
              "components": [
                {
                  "internalType": "uint256",
                  "name": "leftHash",
                  "type": "uint256"
                },
                {
                  "internalType": "uint256",
                  "name": "rightHash",
                  "type": "uint256"
                }
              ],
              "internalType": "struct BinaryProof",
              "name": "binaryProof",
              "type": "tuple"
            },
            {
              "components": [
                {
                  "internalType": "uint256",
                  "name": "childHash",
                  "type": "uint256"
                },
                {
                  "internalType": "uint256",
                  "name": "path",
                  "type": "uint256"
                },
                {
                  "internalType": "uint256",
                  "name": "length",
                  "type": "uint256"
                }
              ],
              "internalType": "struct EdgeProof",
              "name": "edgeProof",
              "type": "tuple"
            }
          ],
          "internalType": "struct StarknetProof[]",
          "name": "contractProofArray",
          "type": "tuple[]"
        },
        {
          "components": [
            {
              "internalType": "enum NodeType",
              "name": "nodeType",
              "type": "uint8"
            },
            {
              "components": [
                {
                  "internalType": "uint256",
                  "name": "leftHash",
                  "type": "uint256"
                },
                {
                  "internalType": "uint256",
                  "name": "rightHash",
                  "type": "uint256"
                }
              ],
              "internalType": "struct BinaryProof",
              "name": "binaryProof",
              "type": "tuple"
            },
            {
              "components": [
                {
                  "internalType": "uint256",
                  "name": "childHash",
                  "type": "uint256"
                },
                {
                  "internalType": "uint256",
                  "name": "path",
                  "type": "uint256"
                },
                {
                  "internalType": "uint256",
                  "name": "length",
                  "type": "uint256"
                }
              ],
              "internalType": "struct EdgeProof",
              "name": "edgeProof",
              "type": "tuple"
            }
          ],
          "internalType": "struct StarknetProof[]",
          "name": "storageProofArray",
          "type": "tuple[]"
        }
      ],
      "name": "verifiedStorageValue",
      "outputs": [
        {
          "internalType": "uint256",
          "name": "value",
          "type": "uint256"
        }
      ],
      "stateMutability": "view",
      "type": "function"
    },
    {
      "inputs": [
        {
          "internalType": "uint256",
          "name": "rootHash",
          "type": "uint256"
        },
        {
          "internalType": "uint256",
          "name": "path",
          "type": "uint256"
        },
        {
          "components": [
            {
              "internalType": "enum NodeType",
              "name": "nodeType",
              "type": "uint8"
            },
            {
              "components": [
                {
                  "internalType": "uint256",
                  "name": "leftHash",
                  "type": "uint256"
                },
                {
                  "internalType": "uint256",
                  "name": "rightHash",
                  "type": "uint256"
                }
              ],
              "internalType": "struct BinaryProof",
              "name": "binaryProof",
              "type": "tuple"
            },
            {
              "components": [
                {
                  "internalType": "uint256",
                  "name": "childHash",
                  "type": "uint256"
                },
                {
                  "internalType": "uint256",
                  "name": "path",
                  "type": "uint256"
                },
                {
                  "internalType": "uint256",
                  "name": "length",
                  "type": "uint256"
                }
              ],
              "internalType": "struct EdgeProof",
              "name": "edgeProof",
              "type": "tuple"
            }
          ],
          "internalType": "struct StarknetProof[]",
          "name": "proofArray",
          "type": "tuple[]"
        }
      ],
      "name": "verifyProof",
      "outputs": [
        {
          "internalType": "uint256",
          "name": "value",
          "type": "uint256"
        }
      ],
      "stateMutability": "view",
      "type": "function"
    }
  ],
  "bytecode": "0x60a06040523073ffffffffffffffffffffffffffffffffffffffff1660809073ffffffffffffffffffffffffffffffffffffffff1660601b8152503480156200004757600080fd5b50620000586200005e60201b60201c565b62000209565b600060019054906101000a900460ff1615620000b1576040517f08c379a0000000000000000000000000000000000000000000000000000000008152600401620000a8906200015d565b60405180910390fd5b60ff801660008054906101000a900460ff1660ff161015620001235760ff6000806101000a81548160ff021916908360ff1602179055507f7f26b83ff96e1f2b6a682f133852f6798a09c465da95921460cefb384740249860ff6040516200011a91906200017f565b60405180910390a15b565b6000620001346027836200019c565b91506200014182620001ba565b604082019050919050565b6200015781620001ad565b82525050565b60006020820190508181036000830152620001788162000125565b9050919050565b60006020820190506200019660008301846200014c565b92915050565b600082825260208201905092915050565b600060ff82169050919050565b7f496e697469616c697a61626c653a20636f6e747261637420697320696e69746960008201527f616c697a696e6700000000000000000000000000000000000000000000000000602082015250565b60805160601c61474862000244600039600081816106920152818161072101528181610841015281816108d0015261098001526147486000f3fe60806040526004361061012a5760003560e01c806388083d50116100ab578063c57601db1161006f578063c57601db1461040d578063c95e47b814610438578063c96dbc8714610475578063d071771f146104b2578063f1cb7e06146104db578063f2fde38b146105185761012a565b806388083d50146103005780638da5cb5b1461032b5780639072a1b314610356578063a78dac0d14610393578063a8d7679f146103d05761012a565b806352d1902d116100f257806352d1902d1461021957806364c17056146102445780636b01b54214610281578063715018a6146102be5780637a1dc070146102d55761012a565b80630bd7bb261461012f5780630cfe46e61461016c5780633276d9ff146101a95780633659cfe6146101d45780634f1ef286146101fd575b600080fd5b34801561013b57600080fd5b5061015660048036038101906101519190612c97565b610541565b604051610163919061397a565b60405180910390f35b34801561017857600080fd5b50610193600480360381019061018e9190612b1b565b61064a565b6040516101a091906135c0565b60405180910390f35b3480156101b557600080fd5b506101be61066a565b6040516101cb91906135e2565b60405180910390f35b3480156101e057600080fd5b506101fb60048036038101906101f69190612954565b610690565b005b610217600480360381019061021291906129f8565b61083f565b005b34801561022557600080fd5b5061022e61097c565b60405161023b91906135a5565b60405180910390f35b34801561025057600080fd5b5061026b60048036038101906102669190612cc0565b610a35565b6040516102789190613688565b60405180910390f35b34801561028d57600080fd5b506102a860048036038101906102a39190612dba565b610ae1565b6040516102b5919061397a565b60405180910390f35b3480156102ca57600080fd5b506102d3610b0e565b005b3480156102e157600080fd5b506102ea610b22565b6040516102f7919061397a565b60405180910390f35b34801561030c57600080fd5b50610315610b28565b604051610322919061397a565b60405180910390f35b34801561033757600080fd5b50610340610b32565b60405161034d9190613507565b60405180910390f35b34801561036257600080fd5b5061037d60048036038101906103789190612d4e565b610b5c565b60405161038a919061397a565b60405180910390f35b34801561039f57600080fd5b506103ba60048036038101906103b59190612d12565b610e1e565b6040516103c7919061397a565b60405180910390f35b3480156103dc57600080fd5b506103f760048036038101906103f29190612bb9565b610f6b565b604051610404919061397a565b60405180910390f35b34801561041957600080fd5b50610422611388565b60405161042f91906135fd565b60405180910390f35b34801561044457600080fd5b5061045f600480360381019061045a9190612dba565b6113ae565b60405161046c919061358a565b60405180910390f35b34801561048157600080fd5b5061049c60048036038101906104979190612d12565b6113dc565b6040516104a991906135c0565b60405180910390f35b3480156104be57600080fd5b506104d960048036038101906104d4919061297d565b61146c565b005b3480156104e757600080fd5b5061050260048036038101906104fd9190612adf565b611656565b60405161050f91906135c0565b60405180910390f35b34801561052457600080fd5b5061053f600480360381019061053a9190612954565b611695565b005b6000806000905060006001811115610582577f4e487b7100000000000000000000000000000000000000000000000000000000600052602160045260246000fd5b836000015160018111156105bf577f4e487b7100000000000000000000000000000000000000000000000000000000600052602160045260246000fd5b14156105e6576105df836020015160000151846020015160200151610e1e565b9050610641565b7f080000000000001100000000000000000000000000000000000000000000000183604001516040015161062a856040015160000151866040015160200151610e1e565b6106349190613b80565b61063e9190613ee9565b90505b80915050919050565b606061066061065b86868686611719565b611820565b9050949350505050565b60cb60009054906101000a900473ffffffffffffffffffffffffffffffffffffffff1681565b7f000000000000000000000000000000000000000000000000000000000000000073ffffffffffffffffffffffffffffffffffffffff163073ffffffffffffffffffffffffffffffffffffffff16141561071f576040517f08c379a00000000000000000000000000000000000000000000000000000000081526004016107169061377a565b60405180910390fd5b7f000000000000000000000000000000000000000000000000000000000000000073ffffffffffffffffffffffffffffffffffffffff1661075e6118a3565b73ffffffffffffffffffffffffffffffffffffffff16146107b4576040517f08c379a00000000000000000000000000000000000000000000000000000000081526004016107ab9061379a565b60405180910390fd5b6107bd816118fa565b61083c81600067ffffffffffffffff811115610802577f4e487b7100000000000000000000000000000000000000000000000000000000600052604160045260246000fd5b6040519080825280601f01601f1916602001820160405280156108345781602001600182028036833780820191505090505b506000611905565b50565b7f000000000000000000000000000000000000000000000000000000000000000073ffffffffffffffffffffffffffffffffffffffff163073ffffffffffffffffffffffffffffffffffffffff1614156108ce576040517f08c379a00000000000000000000000000000000000000000000000000000000081526004016108c59061377a565b60405180910390fd5b7f000000000000000000000000000000000000000000000000000000000000000073ffffffffffffffffffffffffffffffffffffffff1661090d6118a3565b73ffffffffffffffffffffffffffffffffffffffff1614610963576040517f08c379a000000000000000000000000000000000000000000000000000000000815260040161095a9061379a565b60405180910390fd5b61096c826118fa565b61097882826001611905565b5050565b60007f000000000000000000000000000000000000000000000000000000000000000073ffffffffffffffffffffffffffffffffffffffff163073ffffffffffffffffffffffffffffffffffffffff1614610a0c576040517f08c379a0000000000000000000000000000000000000000000000000000000008152600401610a03906137ba565b60405180910390fd5b7f360894a13ba1a3210667c828492db98dca3e2076cc3735a920a3ca505d382bbc60001b905090565b60c98181548110610a4557600080fd5b906000526020600020016000915090508054610a6090613e3d565b80601f0160208091040260200160405190810160405280929190818152602001828054610a8c90613e3d565b8015610ad95780601f10610aae57610100808354040283529160200191610ad9565b820191906000526020600020905b815481529060010190602001808311610abc57829003601f168201915b505050505081565b600080610b00610afa610af48888610e1e565b86610e1e565b84610e1e565b905080915050949350505050565b610b16611a82565b610b206000611b00565b565b60ca5481565b600060ca54905090565b6000603360009054906101000a900473ffffffffffffffffffffffffffffffffffffffff16905090565b600080859050600060fa905060008585905011610bae576040517f08c379a0000000000000000000000000000000000000000000000000000000008152600401610ba59061391a565b60405180910390fd5b60006001905060005b86869050811015610da75760008312610d94576000878783818110610c05577f4e487b7100000000000000000000000000000000000000000000000000000000600052603260045260246000fd5b905060c00201803603810190610c1b9190612c97565b9050610c2681610541565b8514610c67576040517f08c379a0000000000000000000000000000000000000000000000000000000008152600401610c5e9061393a565b60405180910390fd5b60006001811115610ca1577f4e487b7100000000000000000000000000000000000000000000000000000000600052602160045260246000fd5b81600001516001811115610cde577f4e487b7100000000000000000000000000000000000000000000000000000000600052602160045260246000fd5b1415610d2b57600180858b901c16149250600115158315151415610d0c578060200151602001519450610d18565b80602001516000015194505b8380610d2390613df4565b945050610d92565b8060400151600001519450600081604001516040015190508085610d4f9190613bd6565b9450610d906040518060400160405280600c81526020017f70617468426974496e646578000000000000000000000000000000000000000081525086611bc6565b505b505b8080610d9f90613ea0565b915050610bb7565b507fffffffffffffffffffffffffffffffffffffffffffffffffffffffffffffffff821415610ddb57829350505050610e16565b6040517f08c379a0000000000000000000000000000000000000000000000000000000008152600401610e0d9061385a565b60405180910390fd5b949350505050565b60008060cb60009054906101000a900473ffffffffffffffffffffffffffffffffffffffff1673ffffffffffffffffffffffffffffffffffffffff1663aa1e84de610e6986866113dc565b6040518263ffffffff1660e01b8152600401610e8591906135c0565b60006040518083038186803b158015610e9d57600080fd5b505afa158015610eb1573d6000803e3d6000fd5b505050506040513d6000823e3d601f19601f82011682018060405250810190610eda9190612a4c565b90506000815111610f20576040517f08c379a0000000000000000000000000000000000000000000000000000000008152600401610f179061375a565b60405180910390fd5b80600081518110610f5a577f4e487b7100000000000000000000000000000000000000000000000000000000600052603260045260246000fd5b602002602001015191505092915050565b600061104b6040518060400160405280600981526020017f7374617465526f6f74000000000000000000000000000000000000000000000081525060cc60009054906101000a900473ffffffffffffffffffffffffffffffffffffffff1673ffffffffffffffffffffffffffffffffffffffff16639588eca26040518163ffffffff1660e01b815260040160206040518083038186803b15801561100e57600080fd5b505afa158015611022573d6000803e3d6000fd5b505050506040513d601f19601f820116820180604052508101906110469190612ce9565b611bc6565b600060cc60009054906101000a900473ffffffffffffffffffffffffffffffffffffffff1673ffffffffffffffffffffffffffffffffffffffff166335befa5d6040518163ffffffff1660e01b815260040160206040518083038186803b1580156110b557600080fd5b505afa1580156110c9573d6000803e3d6000fd5b505050506040513d601f19601f820116820180604052508101906110ed9190612b90565b905060008686905011611135576040517f08c379a000000000000000000000000000000000000000000000000000000000815260040161112c906138ba565b60405180910390fd5b6000848490501161117b576040517f08c379a0000000000000000000000000000000000000000000000000000000008152600401611172906136da565b60405180910390fd5b600081136111be576040517f08c379a00000000000000000000000000000000000000000000000000000000081526004016111b59061395a565b60405180910390fd5b808814611200576040517f08c379a00000000000000000000000000000000000000000000000000000000081526004016111f79061371a565b60405180910390fd5b600061121e886060013589600001358a60a001358b60800135610ae1565b9050600061123689600001358a604001358888610b5c565b9050600060cc60009054906101000a900473ffffffffffffffffffffffffffffffffffffffff1673ffffffffffffffffffffffffffffffffffffffff16639588eca26040518163ffffffff1660e01b815260040160206040518083038186803b1580156112a257600080fd5b505afa1580156112b6573d6000803e3d6000fd5b505050506040513d601f19601f820116820180604052508101906112da9190612ce9565b90506000831415611320576040517f08c379a0000000000000000000000000000000000000000000000000000000008152600401611317906136fa565b60405180910390fd5b6000611332828c602001358c8c610b5c565b9050808414611376576040517f08c379a000000000000000000000000000000000000000000000000000000000815260040161136d9061381a565b60405180910390fd5b82955050505050509695505050505050565b60cc60009054906101000a900473ffffffffffffffffffffffffffffffffffffffff1681565b6000806001836001901b6113c29190613c6a565b9050808486901c16818588901c1614915050949350505050565b60606000604067ffffffffffffffff811115611421577f4e487b7100000000000000000000000000000000000000000000000000000000600052604160045260246000fd5b6040519080825280601f01601f1916602001820160405280156114535781602001600182028036833780820191505090505b5090508360208201528260408201528091505092915050565b60008060019054906101000a900460ff1615905080801561149d5750600160008054906101000a900460ff1660ff16105b806114ca57506114ac30611c62565b1580156114c95750600160008054906101000a900460ff1660ff16145b5b611509576040517f08c379a0000000000000000000000000000000000000000000000000000000008152600401611500906137fa565b60405180910390fd5b60016000806101000a81548160ff021916908360ff1602179055508015611546576001600060016101000a81548160ff0219169083151502179055505b8460cb60006101000a81548173ffffffffffffffffffffffffffffffffffffffff021916908373ffffffffffffffffffffffffffffffffffffffff1602179055508360cc60006101000a81548173ffffffffffffffffffffffffffffffffffffffff021916908373ffffffffffffffffffffffffffffffffffffffff1602179055508260c990805190602001906115de92919061219c565b508160ca819055506115ee611c85565b6115f6611cde565b801561164f5760008060016101000a81548160ff0219169083151502179055507f7f26b83ff96e1f2b6a682f133852f6798a09c465da95921460cefb38474024986001604051611646919061366d565b60405180910390a15b5050505050565b606061232c8214156116825761167b61167684630cfe46e660e01b611d2f565b611820565b905061168f565b61168c6000611820565b90505b92915050565b61169d611a82565b600073ffffffffffffffffffffffffffffffffffffffff168173ffffffffffffffffffffffffffffffffffffffff16141561170d576040517f08c379a00000000000000000000000000000000000000000000000000000000081526004016117049061373a565b60405180910390fd5b61171681611b00565b50565b600080858581019061172b9190612c56565b90506000848481019061173e9190612a8d565b9050600061174e8260001c611e39565b905060ca5483602001516020018181525050808360200151604001818152505060003073ffffffffffffffffffffffffffffffffffffffff1663a8d7679f85600001518660200151876040015188606001516040518563ffffffff1660e01b81526004016117bf9493929190613618565b60206040518083038186803b1580156117d757600080fd5b505afa1580156117eb573d6000803e3d6000fd5b505050506040513d601f19601f8201168201806040525081019061180f9190612ce9565b905080945050505050949350505050565b6060602067ffffffffffffffff811115611863577f4e487b7100000000000000000000000000000000000000000000000000000000600052604160045260246000fd5b6040519080825280601f01601f1916602001820160405280156118955781602001600182028036833780820191505090505b509050816020820152919050565b60006118d17f360894a13ba1a3210667c828492db98dca3e2076cc3735a920a3ca505d382bbc60001b611e6c565b60000160009054906101000a900473ffffffffffffffffffffffffffffffffffffffff16905090565b611902611a82565b50565b6119317f4910fdfa16fed3260ed0e7147f7cc6da11a60208b5b9406d12a635614ffd914360001b611e76565b60000160009054906101000a900460ff16156119555761195083611e80565b611a7d565b8273ffffffffffffffffffffffffffffffffffffffff166352d1902d6040518163ffffffff1660e01b815260040160206040518083038186803b15801561199b57600080fd5b505afa9250505080156119cc57506040513d601f19601f820116820180604052508101906119c99190612ab6565b60015b611a0b576040517f08c379a0000000000000000000000000000000000000000000000000000000008152600401611a029061383a565b60405180910390fd5b7f360894a13ba1a3210667c828492db98dca3e2076cc3735a920a3ca505d382bbc60001b8114611a70576040517f08c379a0000000000000000000000000000000000000000000000000000000008152600401611a67906137da565b60405180910390fd5b50611a7c838383611f39565b5b505050565b611a8a611f65565b73ffffffffffffffffffffffffffffffffffffffff16611aa8610b32565b73ffffffffffffffffffffffffffffffffffffffff1614611afe576040517f08c379a0000000000000000000000000000000000000000000000000000000008152600401611af59061389a565b60405180910390fd5b565b6000603360009054906101000a900473ffffffffffffffffffffffffffffffffffffffff16905081603360006101000a81548173ffffffffffffffffffffffffffffffffffffffff021916908373ffffffffffffffffffffffffffffffffffffffff1602179055508173ffffffffffffffffffffffffffffffffffffffff168173ffffffffffffffffffffffffffffffffffffffff167f8be0079c531659141344cd1fd0a4f28419497f9722a3daafe3b4186f6b6457e060405160405180910390a35050565b611c5e8282604051602401611bdc9291906136aa565b6040516020818303038152906040527fb60e72cc000000000000000000000000000000000000000000000000000000007bffffffffffffffffffffffffffffffffffffffffffffffffffffffff19166020820180517bffffffffffffffffffffffffffffffffffffffffffffffffffffffff8381831617835250505050611f6d565b5050565b6000808273ffffffffffffffffffffffffffffffffffffffff163b119050919050565b600060019054906101000a900460ff16611cd4576040517f08c379a0000000000000000000000000000000000000000000000000000000008152600401611ccb906138fa565b60405180910390fd5b611cdc611f96565b565b600060019054906101000a900460ff16611d2d576040517f08c379a0000000000000000000000000000000000000000000000000000000008152600401611d24906138fa565b60405180910390fd5b565b6000807f03ffffffffffffffffffffffffffffffffffffffffffffffffffffffffffffff8460001c1690506000633b3b57de60e01b82604051602401611d75919061397a565b604051602081830303815290604052907bffffffffffffffffffffffffffffffffffffffffffffffffffffffff19166020820180517bffffffffffffffffffffffffffffffffffffffffffffffffffffffff838183161783525050505090503060c9828685604051602001611dea919061397a565b6040516020818303038152906040526040517f556f1830000000000000000000000000000000000000000000000000000000008152600401611e30959493929190613522565b60405180910390fd5b6000611e657f029539a1d23af1810c48a07fe7fc66a3b34fbc8b37e9b3cdb97bb88ceab7e4bf83610e1e565b9050919050565b6000819050919050565b6000819050919050565b611e8981611c62565b611ec8576040517f08c379a0000000000000000000000000000000000000000000000000000000008152600401611ebf9061387a565b60405180910390fd5b80611ef57f360894a13ba1a3210667c828492db98dca3e2076cc3735a920a3ca505d382bbc60001b611e6c565b60000160006101000a81548173ffffffffffffffffffffffffffffffffffffffff021916908373ffffffffffffffffffffffffffffffffffffffff16021790555050565b611f4283611ff7565b600082511180611f4f5750805b15611f6057611f5e8383612046565b505b505050565b600033905090565b60008151905060006a636f6e736f6c652e6c6f679050602083016000808483855afa5050505050565b600060019054906101000a900460ff16611fe5576040517f08c379a0000000000000000000000000000000000000000000000000000000008152600401611fdc906138fa565b60405180910390fd5b611ff5611ff0611f65565b611b00565b565b61200081611e80565b8073ffffffffffffffffffffffffffffffffffffffff167fbc7cd75a20ee27fd9adebab32041f755214dbc6bffa90cc0225b39da2e5c2d3b60405160405180910390a250565b606061205183611c62565b612090576040517f08c379a0000000000000000000000000000000000000000000000000000000008152600401612087906138da565b60405180910390fd5b6000808473ffffffffffffffffffffffffffffffffffffffff16846040516120b891906134f0565b600060405180830381855af49150503d80600081146120f3576040519150601f19603f3d011682016040523d82523d6000602084013e6120f8565b606091505b509150915061212082826040518060600160405280602781526020016146ec6027913961212a565b9250505092915050565b6060831561213a57829050612145565b612144838361214c565b5b9392505050565b60008251111561215f5781518083602001fd5b806040517f08c379a00000000000000000000000000000000000000000000000000000000081526004016121939190613688565b60405180910390fd5b8280548282559060005260206000209081019282156121eb579160200282015b828111156121ea5782518290805190602001906121da9291906121fc565b50916020019190600101906121bc565b5b5090506121f89190612282565b5090565b82805461220890613e3d565b90600052602060002090601f01602090048101928261222a5760008555612271565b82601f1061224357805160ff1916838001178555612271565b82800160010185558215612271579182015b82811115612270578251825591602001919060010190612255565b5b50905061227e91906122a6565b5090565b5b808211156122a2576000818161229991906122c3565b50600101612283565b5090565b5b808211156122bf5760008160009055506001016122a7565b5090565b5080546122cf90613e3d565b6000825580601f106122e15750612300565b601f0160209004906000526020600020908101906122ff91906122a6565b5b50565b6000612316612311846139ba565b613995565b9050808382526020820190508285602086028201111561233557600080fd5b60005b8581101561237f57813567ffffffffffffffff81111561235757600080fd5b8086016123648982612697565b85526020850194506020840193505050600181019050612338565b5050509392505050565b600061239c612397846139e6565b613995565b905080838252602082019050828560c08602820111156123bb57600080fd5b60005b858110156123eb57816123d188826128ca565b845260208401935060c083019250506001810190506123be565b5050509392505050565b600061240861240384613a12565b613995565b9050808382526020820190508285602086028201111561242757600080fd5b60005b85811015612457578161243d888261293f565b84526020840193506020830192505060018101905061242a565b5050509392505050565b600061247461246f84613a3e565b613995565b90508281526020810184848401111561248c57600080fd5b612497848285613db2565b509392505050565b60006124b26124ad84613a6f565b613995565b9050828152602081018484840111156124ca57600080fd5b6124d5848285613db2565b509392505050565b6000813590506124ec8161467f565b92915050565b600082601f83011261250357600080fd5b8135612513848260208601612303565b91505092915050565b60008083601f84011261252e57600080fd5b8235905067ffffffffffffffff81111561254757600080fd5b6020830191508360c082028301111561255f57600080fd5b9250929050565b600082601f83011261257757600080fd5b8135612587848260208601612389565b91505092915050565b600082601f8301126125a157600080fd5b81516125b18482602086016123f5565b91505092915050565b6000813590506125c981614696565b92915050565b6000815190506125de81614696565b92915050565b60008083601f8401126125f657600080fd5b8235905067ffffffffffffffff81111561260f57600080fd5b60208301915083600182028301111561262757600080fd5b9250929050565b600082601f83011261263f57600080fd5b813561264f848260208601612461565b91505092915050565b600081359050612667816146ad565b92915050565b60008135905061267c816146bd565b92915050565b600081519050612691816146bd565b92915050565b600082601f8301126126a857600080fd5b81356126b884826020860161249f565b91505092915050565b6000604082840312156126d357600080fd5b6126dd6040613995565b905060006126ed8482850161292a565b60008301525060206127018482850161292a565b60208301525092915050565b600060c0828403121561271f57600080fd5b81905092915050565b600060c0828403121561273a57600080fd5b61274460c0613995565b905060006127548482850161292a565b60008301525060206127688482850161292a565b602083015250604061277c8482850161292a565b60408301525060606127908482850161292a565b60608301525060806127a48482850161292a565b60808301525060a06127b88482850161292a565b60a08301525092915050565b6000606082840312156127d657600080fd5b6127e06060613995565b905060006127f08482850161292a565b60008301525060206128048482850161292a565b60208301525060406128188482850161292a565b60408301525092915050565b6000610120828403121561283757600080fd5b6128416080613995565b905060006128518482850161266d565b600083015250602061286584828501612728565b60208301525060e082013567ffffffffffffffff81111561288557600080fd5b61289184828501612566565b60408301525061010082013567ffffffffffffffff8111156128b257600080fd5b6128be84828501612566565b60608301525092915050565b600060c082840312156128dc57600080fd5b6128e66060613995565b905060006128f684828501612658565b600083015250602061290a848285016126c1565b602083015250606061291e848285016127c4565b60408301525092915050565b600081359050612939816146d4565b92915050565b60008151905061294e816146d4565b92915050565b60006020828403121561296657600080fd5b6000612974848285016124dd565b91505092915050565b6000806000806080858703121561299357600080fd5b60006129a1878288016124dd565b94505060206129b2878288016124dd565b935050604085013567ffffffffffffffff8111156129cf57600080fd5b6129db878288016124f2565b92505060606129ec8782880161292a565b91505092959194509250565b60008060408385031215612a0b57600080fd5b6000612a19858286016124dd565b925050602083013567ffffffffffffffff811115612a3657600080fd5b612a428582860161262e565b9150509250929050565b600060208284031215612a5e57600080fd5b600082015167ffffffffffffffff811115612a7857600080fd5b612a8484828501612590565b91505092915050565b600060208284031215612a9f57600080fd5b6000612aad848285016125ba565b91505092915050565b600060208284031215612ac857600080fd5b6000612ad6848285016125cf565b91505092915050565b60008060408385031215612af257600080fd5b6000612b00858286016125ba565b9250506020612b118582860161292a565b9150509250929050565b60008060008060408587031215612b3157600080fd5b600085013567ffffffffffffffff811115612b4b57600080fd5b612b57878288016125e4565b9450945050602085013567ffffffffffffffff811115612b7657600080fd5b612b82878288016125e4565b925092505092959194509250565b600060208284031215612ba257600080fd5b6000612bb084828501612682565b91505092915050565b6000806000806000806101208789031215612bd357600080fd5b6000612be189828a0161266d565b9650506020612bf289828a0161270d565b95505060e087013567ffffffffffffffff811115612c0f57600080fd5b612c1b89828a0161251c565b945094505061010087013567ffffffffffffffff811115612c3b57600080fd5b612c4789828a0161251c565b92509250509295509295509295565b600060208284031215612c6857600080fd5b600082013567ffffffffffffffff811115612c8257600080fd5b612c8e84828501612824565b91505092915050565b600060c08284031215612ca957600080fd5b6000612cb7848285016128ca565b91505092915050565b600060208284031215612cd257600080fd5b6000612ce08482850161292a565b91505092915050565b600060208284031215612cfb57600080fd5b6000612d098482850161293f565b91505092915050565b60008060408385031215612d2557600080fd5b6000612d338582860161292a565b9250506020612d448582860161292a565b9150509250929050565b60008060008060608587031215612d6457600080fd5b6000612d728782880161292a565b9450506020612d838782880161292a565b935050604085013567ffffffffffffffff811115612da057600080fd5b612dac8782880161251c565b925092505092959194509250565b60008060008060808587031215612dd057600080fd5b6000612dde8782880161292a565b9450506020612def8782880161292a565b9350506040612e008782880161292a565b9250506060612e118782880161292a565b91505092959194509250565b6000612e298383613045565b905092915050565b6000612e3d8383613490565b60c08301905092915050565b612e5281613c9e565b82525050565b6000612e6382613ada565b612e6d8185613b20565b935083602082028501612e7f85613aa0565b8060005b85811015612eba57848403895281612e9b8582612e1d565b9450612ea683613b06565b925060208a01995050600181019050612e83565b50829750879550505050505092915050565b6000612ed782613ae5565b612ee18185613b31565b9350612eec83613ab5565b8060005b83811015612f1d578151612f048882612e31565b9750612f0f83613b13565b925050600181019050612ef0565b5085935050505092915050565b612f3381613cb0565b82525050565b612f4281613cbc565b82525050565b612f5181613cc6565b82525050565b6000612f6282613af0565b612f6c8185613b42565b9350612f7c818560208601613dc1565b612f8581614005565b840191505092915050565b6000612f9b82613af0565b612fa58185613b53565b9350612fb5818560208601613dc1565b80840191505092915050565b612fca81613d46565b82525050565b612fd981613d6a565b82525050565b612fe881613d8e565b82525050565b612ff781613d05565b82525050565b61300681613da0565b82525050565b600061301782613afb565b6130218185613b6f565b9350613031818560208601613dc1565b61303a81614005565b840191505092915050565b6000815461305281613e3d565b61305c8186613b5e565b945060018216600081146130775760018114613089576130bc565b60ff19831686526020860193506130bc565b61309285613ac5565b60005b838110156130b457815481890152600182019150602081019050613095565b808801955050505b50505092915050565b60006130d2602d83613b6f565b91506130dd82614016565b604082019050919050565b60006130f5602e83613b6f565b915061310082614065565b604082019050919050565b6000613118603783613b6f565b9150613123826140b4565b604082019050919050565b600061313b602683613b6f565b915061314682614103565b604082019050919050565b600061315e602983613b6f565b915061316982614152565b604082019050919050565b6000613181602c83613b6f565b915061318c826141a1565b604082019050919050565b60006131a4602c83613b6f565b91506131af826141f0565b604082019050919050565b60006131c7603883613b6f565b91506131d28261423f565b604082019050919050565b60006131ea602983613b6f565b91506131f58261428e565b604082019050919050565b600061320d602e83613b6f565b9150613218826142dd565b604082019050919050565b6000613230602383613b6f565b915061323b8261432c565b604082019050919050565b6000613253602e83613b6f565b915061325e8261437b565b604082019050919050565b6000613276603083613b6f565b9150613281826143ca565b604082019050919050565b6000613299602d83613b6f565b91506132a482614419565b604082019050919050565b60006132bc602083613b6f565b91506132c782614468565b602082019050919050565b60006132df602e83613b6f565b91506132ea82614491565b604082019050919050565b6000613302602683613b6f565b915061330d826144e0565b604082019050919050565b6000613325602b83613b6f565b91506133308261452f565b604082019050919050565b6000613348602a83613b6f565b91506133538261457e565b604082019050919050565b600061336b603383613b6f565b9150613376826145cd565b604082019050919050565b600061338e603383613b6f565b91506133998261461c565b604082019050919050565b6040820160008201516133ba60008501826134d2565b5060208201516133cd60208501826134d2565b50505050565b60c0820160008201516133e960008501826134d2565b5060208201516133fc60208501826134d2565b50604082015161340f60408501826134d2565b50606082015161342260608501826134d2565b50608082015161343560808501826134d2565b5060a082015161344860a08501826134d2565b50505050565b60608201600082015161346460008501826134d2565b50602082015161347760208501826134d2565b50604082015161348a60408501826134d2565b50505050565b60c0820160008201516134a66000850182612fdf565b5060208201516134b960208501826133a4565b5060408201516134cc606085018261344e565b50505050565b6134db81613d2f565b82525050565b6134ea81613d2f565b82525050565b60006134fc8284612f90565b915081905092915050565b600060208201905061351c6000830184612e49565b92915050565b600060a0820190506135376000830188612e49565b81810360208301526135498187612e58565b9050818103604083015261355d8186612f57565b905061356c6060830185612f48565b818103608083015261357e8184612f57565b90509695505050505050565b600060208201905061359f6000830184612f2a565b92915050565b60006020820190506135ba6000830184612f39565b92915050565b600060208201905081810360008301526135da8184612f57565b905092915050565b60006020820190506135f76000830184612fc1565b92915050565b60006020820190506136126000830184612fd0565b92915050565b60006101208201905061362e6000830187612fee565b61363b60208301866133d3565b81810360e083015261364d8185612ecc565b90508181036101008301526136628184612ecc565b905095945050505050565b60006020820190506136826000830184612ffd565b92915050565b600060208201905081810360008301526136a2818461300c565b905092915050565b600060408201905081810360008301526136c4818561300c565b90506136d360208301846134e1565b9392505050565b600060208201905081810360008301526136f3816130c5565b9050919050565b60006020820190508181036000830152613713816130e8565b9050919050565b600060208201905081810360008301526137338161310b565b9050919050565b600060208201905081810360008301526137538161312e565b9050919050565b6000602082019050818103600083015261377381613151565b9050919050565b6000602082019050818103600083015261379381613174565b9050919050565b600060208201905081810360008301526137b381613197565b9050919050565b600060208201905081810360008301526137d3816131ba565b9050919050565b600060208201905081810360008301526137f3816131dd565b9050919050565b6000602082019050818103600083015261381381613200565b9050919050565b6000602082019050818103600083015261383381613223565b9050919050565b6000602082019050818103600083015261385381613246565b9050919050565b6000602082019050818103600083015261387381613269565b9050919050565b600060208201905081810360008301526138938161328c565b9050919050565b600060208201905081810360008301526138b3816132af565b9050919050565b600060208201905081810360008301526138d3816132d2565b9050919050565b600060208201905081810360008301526138f3816132f5565b9050919050565b6000602082019050818103600083015261391381613318565b9050919050565b600060208201905081810360008301526139338161333b565b9050919050565b600060208201905081810360008301526139538161335e565b9050919050565b6000602082019050818103600083015261397381613381565b9050919050565b600060208201905061398f60008301846134e1565b92915050565b600061399f6139b0565b90506139ab8282613e6f565b919050565b6000604051905090565b600067ffffffffffffffff8211156139d5576139d4613fd6565b5b602082029050602081019050919050565b600067ffffffffffffffff821115613a0157613a00613fd6565b5b602082029050602081019050919050565b600067ffffffffffffffff821115613a2d57613a2c613fd6565b5b602082029050602081019050919050565b600067ffffffffffffffff821115613a5957613a58613fd6565b5b613a6282614005565b9050602081019050919050565b600067ffffffffffffffff821115613a8a57613a89613fd6565b5b613a9382614005565b9050602081019050919050565b60008190508160005260206000209050919050565b6000819050602082019050919050565b60008190508160005260206000209050919050565b600081549050919050565b600081519050919050565b600081519050919050565b600081519050919050565b6000600182019050919050565b6000602082019050919050565b600082825260208201905092915050565b600082825260208201905092915050565b600082825260208201905092915050565b600081905092915050565b600082825260208201905092915050565b600082825260208201905092915050565b6000613b8b82613d2f565b9150613b9683613d2f565b9250827fffffffffffffffffffffffffffffffffffffffffffffffffffffffffffffffff03821115613bcb57613bca613f1a565b5b828201905092915050565b6000613be182613d05565b9150613bec83613d05565b9250827f800000000000000000000000000000000000000000000000000000000000000001821260008412151615613c2757613c26613f1a565b5b827f7fffffffffffffffffffffffffffffffffffffffffffffffffffffffffffffff018213600084121615613c5f57613c5e613f1a565b5b828203905092915050565b6000613c7582613d2f565b9150613c8083613d2f565b925082821015613c9357613c92613f1a565b5b828203905092915050565b6000613ca982613d0f565b9050919050565b60008115159050919050565b6000819050919050565b60007fffffffff0000000000000000000000000000000000000000000000000000000082169050919050565b6000819050613d008261466b565b919050565b6000819050919050565b600073ffffffffffffffffffffffffffffffffffffffff82169050919050565b6000819050919050565b600060ff82169050919050565b6000613d5182613d58565b9050919050565b6000613d6382613d0f565b9050919050565b6000613d7582613d7c565b9050919050565b6000613d8782613d0f565b9050919050565b6000613d9982613cf2565b9050919050565b6000613dab82613d39565b9050919050565b82818337600083830152505050565b60005b83811015613ddf578082015181840152602081019050613dc4565b83811115613dee576000848401525b50505050565b6000613dff82613d05565b91507f8000000000000000000000000000000000000000000000000000000000000000821415613e3257613e31613f1a565b5b600182039050919050565b60006002820490506001821680613e5557607f821691505b60208210811415613e6957613e68613fa7565b5b50919050565b613e7882614005565b810181811067ffffffffffffffff82111715613e9757613e96613fd6565b5b80604052505050565b6000613eab82613d2f565b91507fffffffffffffffffffffffffffffffffffffffffffffffffffffffffffffffff821415613ede57613edd613f1a565b5b600182019050919050565b6000613ef482613d2f565b9150613eff83613d2f565b925082613f0f57613f0e613f49565b5b828206905092915050565b7f4e487b7100000000000000000000000000000000000000000000000000000000600052601160045260246000fd5b7f4e487b7100000000000000000000000000000000000000000000000000000000600052601260045260246000fd5b7f4e487b7100000000000000000000000000000000000000000000000000000000600052602160045260246000fd5b7f4e487b7100000000000000000000000000000000000000000000000000000000600052602260045260246000fd5b7f4e487b7100000000000000000000000000000000000000000000000000000000600052604160045260246000fd5b6000601f19601f8301169050919050565b7f73746f726167652070726f6f6673206d75737420686176652061746c6561737460008201527f206f6e6520656c656d656e742100000000000000000000000000000000000000602082015250565b7f7374617465726f6f742068617368206973206e6f74206665746368656420707260008201527f6f7065726c792120726576657274000000000000000000000000000000000000602082015250565b7f626c6f636b206e756d62657220646f65736e2774206d6174636820776974682060008201527f737461726b6e657420636f726520636f6e747261637421000000000000000000602082015250565b7f4f776e61626c653a206e6577206f776e657220697320746865207a65726f206160008201527f6464726573730000000000000000000000000000000000000000000000000000602082015250565b7f6861736865732072657475726e6564206c656e677468206973206c657373207460008201527f68616e207a65726f210000000000000000000000000000000000000000000000602082015250565b7f46756e6374696f6e206d7573742062652063616c6c6564207468726f7567682060008201527f64656c656761746563616c6c0000000000000000000000000000000000000000602082015250565b7f46756e6374696f6e206d7573742062652063616c6c6564207468726f7567682060008201527f6163746976652070726f78790000000000000000000000000000000000000000602082015250565b7f555550535570677261646561626c653a206d757374206e6f742062652063616c60008201527f6c6564207468726f7567682064656c656761746563616c6c0000000000000000602082015250565b7f45524331393637557067726164653a20756e737570706f727465642070726f7860008201527f6961626c65555549440000000000000000000000000000000000000000000000602082015250565b7f496e697469616c697a61626c653a20636f6e747261637420697320616c72656160008201527f647920696e697469616c697a6564000000000000000000000000000000000000602082015250565b7f68617368657320646f6e2774206d617463682e20696e76616c6964207374617460008201527f6573210000000000000000000000000000000000000000000000000000000000602082015250565b7f45524331393637557067726164653a206e657720696d706c656d656e7461746960008201527f6f6e206973206e6f742055555053000000000000000000000000000000000000602082015250565b7f6c656e677468206f662070726f6f66206d69736d6174636865642c20696e766160008201527f6c69642070726f6f662073697a65212100000000000000000000000000000000602082015250565b7f455243313936373a206e657720696d706c656d656e746174696f6e206973206e60008201527f6f74206120636f6e747261637400000000000000000000000000000000000000602082015250565b7f4f776e61626c653a2063616c6c6572206973206e6f7420746865206f776e6572600082015250565b7f636f6e74726163742070726f6f6673206d75737420686176652061746c65617360008201527f74206f6e6520656c656d656e7421000000000000000000000000000000000000602082015250565b7f416464726573733a2064656c65676174652063616c6c20746f206e6f6e2d636f60008201527f6e74726163740000000000000000000000000000000000000000000000000000602082015250565b7f496e697469616c697a61626c653a20636f6e7472616374206973206e6f74206960008201527f6e697469616c697a696e67000000000000000000000000000000000000000000602082015250565b7f70726f6f66206172726179206d75737420686176652061746c65617374206f6e60008201527f6520656c656d656e742e00000000000000000000000000000000000000000000602082015250565b7f68617368206d69736d6174636820666f756e64212120696e76616c696420707260008201527f6f6f66207061746820726576657274696e672e00000000000000000000000000602082015250565b7f6661696c656420746f20666574636820737461726b6e657420636f726520636f60008201527f6e747261637420737461746520626c6f636b2100000000000000000000000000602082015250565b6002811061467c5761467b613f78565b5b50565b61468881613c9e565b811461469357600080fd5b50565b61469f81613cbc565b81146146aa57600080fd5b50565b600281106146ba57600080fd5b50565b6146c681613d05565b81146146d157600080fd5b50565b6146dd81613d2f565b81146146e857600080fd5b5056fe416464726573733a206c6f772d6c6576656c2064656c65676174652063616c6c206661696c6564a264697066735822122037970936f60daf4f335edcb255e28f1a5b35b4983a034212a70945834db04b0464736f6c63430008040033",
  "linkReferences": {},
  "deployedLinkReferences": {}
}