{
  "_format": "hh-sol-artifact-1",
  "contractName": "StarknetVerifier",
  "sourceName": "contracts/StarknetVerifier.sol",
  "abi": [
    {
      "inputs": [
        {
          "internalType": "address",
          "name": "pedersenAddress",
          "type": "address"
        },
        {
          "internalType": "address",
          "name": "_starknetCoreContractAddress",
          "type": "address"
        }
      ],
      "stateMutability": "nonpayable",
      "type": "constructor"
    },
    {
      "inputs": [
        {
          "internalType": "uint256",
          "name": "x",
          "type": "uint256"
        },
        {
          "internalType": "uint256",
          "name": "y",
          "type": "uint256"
        }
      ],
      "name": "convertToBytes",
      "outputs": [
        {
          "internalType": "bytes",
          "name": "",
          "type": "bytes"
        }
      ],
      "stateMutability": "view",
      "type": "function"
    },
    {
      "inputs": [
        {
          "internalType": "uint256",
          "name": "a",
          "type": "uint256"
        },
        {
          "internalType": "uint256",
          "name": "b",
          "type": "uint256"
        }
      ],
      "name": "hash",
      "outputs": [
        {
          "internalType": "uint256",
          "name": "",
          "type": "uint256"
        }
      ],
      "stateMutability": "view",
      "type": "function"
    },
    {
      "inputs": [
        {
          "components": [
            {
              "internalType": "enum StarknetVerifier.NodeType",
              "name": "nodeType",
              "type": "uint8"
            },
            {
              "components": [
                {
                  "internalType": "uint256",
                  "name": "leftHash",
                  "type": "uint256"
                },
                {
                  "internalType": "uint256",
                  "name": "rightHash",
                  "type": "uint256"
                }
              ],
              "internalType": "struct StarknetVerifier.BinaryProof",
              "name": "binaryProof",
              "type": "tuple"
            },
            {
              "components": [
                {
                  "internalType": "uint256",
                  "name": "childHash",
                  "type": "uint256"
                },
                {
                  "internalType": "uint256",
                  "name": "path",
                  "type": "uint256"
                },
                {
                  "internalType": "uint256",
                  "name": "length",
                  "type": "uint256"
                }
              ],
              "internalType": "struct StarknetVerifier.EdgeProof",
              "name": "edgeProof",
              "type": "tuple"
            }
          ],
          "internalType": "struct StarknetVerifier.StarknetProof",
          "name": "proof",
          "type": "tuple"
        }
      ],
      "name": "hashForSingleProofNode",
      "outputs": [
        {
          "internalType": "uint256",
          "name": "",
          "type": "uint256"
        }
      ],
      "stateMutability": "view",
      "type": "function"
    },
    {
      "inputs": [
        {
          "internalType": "uint256",
          "name": "classHash",
          "type": "uint256"
        },
        {
          "internalType": "uint256",
          "name": "contractStateRoot",
          "type": "uint256"
        },
        {
          "internalType": "uint256",
          "name": "nonce",
          "type": "uint256"
        },
        {
          "internalType": "uint256",
          "name": "hashVersion",
          "type": "uint256"
        }
      ],
      "name": "stateHash",
      "outputs": [
        {
          "internalType": "uint256",
          "name": "",
          "type": "uint256"
        }
      ],
      "stateMutability": "view",
      "type": "function"
    },
    {
      "inputs": [
        {
          "internalType": "int256",
          "name": "blockNumber",
          "type": "int256"
        },
        {
          "components": [
            {
              "internalType": "uint256",
              "name": "contractStateRoot",
              "type": "uint256"
            },
            {
              "internalType": "uint256",
              "name": "contractAddress",
              "type": "uint256"
            },
            {
              "internalType": "uint256",
              "name": "storageVarAddress",
              "type": "uint256"
            },
            {
              "internalType": "uint256",
              "name": "classHash",
              "type": "uint256"
            },
            {
              "internalType": "uint256",
              "name": "hashVersion",
              "type": "uint256"
            },
            {
              "internalType": "uint256",
              "name": "nonce",
              "type": "uint256"
            }
          ],
          "internalType": "struct StarknetVerifier.ContractData",
          "name": "contractData",
          "type": "tuple"
        },
        {
          "components": [
            {
              "internalType": "enum StarknetVerifier.NodeType",
              "name": "nodeType",
              "type": "uint8"
            },
            {
              "components": [
                {
                  "internalType": "uint256",
                  "name": "leftHash",
                  "type": "uint256"
                },
                {
                  "internalType": "uint256",
                  "name": "rightHash",
                  "type": "uint256"
                }
              ],
              "internalType": "struct StarknetVerifier.BinaryProof",
              "name": "binaryProof",
              "type": "tuple"
            },
            {
              "components": [
                {
                  "internalType": "uint256",
                  "name": "childHash",
                  "type": "uint256"
                },
                {
                  "internalType": "uint256",
                  "name": "path",
                  "type": "uint256"
                },
                {
                  "internalType": "uint256",
                  "name": "length",
                  "type": "uint256"
                }
              ],
              "internalType": "struct StarknetVerifier.EdgeProof",
              "name": "edgeProof",
              "type": "tuple"
            }
          ],
          "internalType": "struct StarknetVerifier.StarknetProof[]",
          "name": "contractProofArray",
          "type": "tuple[]"
        },
        {
          "components": [
            {
              "internalType": "enum StarknetVerifier.NodeType",
              "name": "nodeType",
              "type": "uint8"
            },
            {
              "components": [
                {
                  "internalType": "uint256",
                  "name": "leftHash",
                  "type": "uint256"
                },
                {
                  "internalType": "uint256",
                  "name": "rightHash",
                  "type": "uint256"
                }
              ],
              "internalType": "struct StarknetVerifier.BinaryProof",
              "name": "binaryProof",
              "type": "tuple"
            },
            {
              "components": [
                {
                  "internalType": "uint256",
                  "name": "childHash",
                  "type": "uint256"
                },
                {
                  "internalType": "uint256",
                  "name": "path",
                  "type": "uint256"
                },
                {
                  "internalType": "uint256",
                  "name": "length",
                  "type": "uint256"
                }
              ],
              "internalType": "struct StarknetVerifier.EdgeProof",
              "name": "edgeProof",
              "type": "tuple"
            }
          ],
          "internalType": "struct StarknetVerifier.StarknetProof[]",
          "name": "storageProofArray",
          "type": "tuple[]"
        }
      ],
      "name": "verifiedStorageValue",
      "outputs": [
        {
          "internalType": "uint256",
          "name": "value",
          "type": "uint256"
        }
      ],
      "stateMutability": "view",
      "type": "function"
    },
    {
      "inputs": [
        {
          "internalType": "uint256",
          "name": "rootHash",
          "type": "uint256"
        },
        {
          "internalType": "uint256",
          "name": "path",
          "type": "uint256"
        },
        {
          "components": [
            {
              "internalType": "enum StarknetVerifier.NodeType",
              "name": "nodeType",
              "type": "uint8"
            },
            {
              "components": [
                {
                  "internalType": "uint256",
                  "name": "leftHash",
                  "type": "uint256"
                },
                {
                  "internalType": "uint256",
                  "name": "rightHash",
                  "type": "uint256"
                }
              ],
              "internalType": "struct StarknetVerifier.BinaryProof",
              "name": "binaryProof",
              "type": "tuple"
            },
            {
              "components": [
                {
                  "internalType": "uint256",
                  "name": "childHash",
                  "type": "uint256"
                },
                {
                  "internalType": "uint256",
                  "name": "path",
                  "type": "uint256"
                },
                {
                  "internalType": "uint256",
                  "name": "length",
                  "type": "uint256"
                }
              ],
              "internalType": "struct StarknetVerifier.EdgeProof",
              "name": "edgeProof",
              "type": "tuple"
            }
          ],
          "internalType": "struct StarknetVerifier.StarknetProof[]",
          "name": "proofArray",
          "type": "tuple[]"
        }
      ],
      "name": "verifyProof",
      "outputs": [
        {
          "internalType": "uint256",
          "name": "value",
          "type": "uint256"
        }
      ],
      "stateMutability": "view",
      "type": "function"
    }
  ],
  "bytecode": "0x60806040523480156200001157600080fd5b50604051620016cb380380620016cb8339818101604052810190620000379190620000d7565b816000806101000a81548173ffffffffffffffffffffffffffffffffffffffff021916908373ffffffffffffffffffffffffffffffffffffffff16021790555080600160006101000a81548173ffffffffffffffffffffffffffffffffffffffff021916908373ffffffffffffffffffffffffffffffffffffffff160217905550505062000166565b600081519050620000d1816200014c565b92915050565b60008060408385031215620000eb57600080fd5b6000620000fb85828601620000c0565b92505060206200010e85828601620000c0565b9150509250929050565b600062000125826200012c565b9050919050565b600073ffffffffffffffffffffffffffffffffffffffff82169050919050565b620001578162000118565b81146200016357600080fd5b50565b61155580620001766000396000f3fe608060405234801561001057600080fd5b50600436106100625760003560e01c80630bd7bb26146100675780636b01b542146100975780639072a1b3146100c7578063a78dac0d146100f7578063a8d7679f14610127578063c96dbc8714610157575b600080fd5b610081600480360381019061007c9190610e06565b610187565b60405161008e91906110ff565b60405180910390f35b6100b160048036038101906100ac9190610f00565b610290565b6040516100be91906110ff565b60405180910390f35b6100e160048036038101906100dc9190610e94565b6102bd565b6040516100ee91906110ff565b60405180910390f35b610111600480360381019061010c9190610e58565b610539565b60405161011e91906110ff565b60405180910390f35b610141600480360381019061013c9190610d69565b61063c565b60405161014e91906110ff565b60405180910390f35b610171600480360381019061016c9190610e58565b61093a565b60405161017e919061104d565b60405180910390f35b60008060009050600060018111156101c8577f4e487b7100000000000000000000000000000000000000000000000000000000600052602160045260246000fd5b83600001516001811115610205577f4e487b7100000000000000000000000000000000000000000000000000000000600052602160045260246000fd5b141561022c57610225836020015160000151846020015160200151610539565b9050610287565b7f0800000000000011000000000000000000000000000000000000000000000001836040015160400151610270856040015160000151866040015160200151610539565b61027a91906111a3565b6102849190611397565b90505b80915050919050565b6000806102af6102a96102a38888610539565b86610539565b84610539565b905080915050949350505050565b600080859050600060fa905060006001905060005b868690508110156104c257600083126104af576000878783818110610320577f4e487b7100000000000000000000000000000000000000000000000000000000600052603260045260246000fd5b905060c002018036038101906103369190610e06565b905061034181610187565b8514610382576040517f08c379a0000000000000000000000000000000000000000000000000000000008152600401610379906110bf565b60405180910390fd5b600060018111156103bc577f4e487b7100000000000000000000000000000000000000000000000000000000600052602160045260246000fd5b816000015160018111156103f9577f4e487b7100000000000000000000000000000000000000000000000000000000600052602160045260246000fd5b141561044657600180858b901c16149250600115158315151415610427578060200151602001519450610433565b80602001516000015194505b838061043e906112d4565b9450506104ad565b806040015160000151945060008160400151604001519050808561046a91906111f9565b94506104ab6040518060400160405280600c81526020017f70617468426974496e6465780000000000000000000000000000000000000000815250866109ca565b505b505b80806104ba9061134e565b9150506102d2565b507fffffffffffffffffffffffffffffffffffffffffffffffffffffffffffffffff8214156104f657829350505050610531565b6040517f08c379a0000000000000000000000000000000000000000000000000000000008152600401610528906110bf565b60405180910390fd5b949350505050565b60008060009054906101000a900473ffffffffffffffffffffffffffffffffffffffff1673ffffffffffffffffffffffffffffffffffffffff1663aa1e84de610582858561093a565b6040518263ffffffff1660e01b815260040161059e919061104d565b60006040518083038186803b1580156105b657600080fd5b505afa1580156105ca573d6000803e3d6000fd5b505050506040513d6000823e3d601f19601f820116820180604052508101906105f39190610cff565b60008151811061062c577f4e487b7100000000000000000000000000000000000000000000000000000000600052603260045260246000fd5b6020026020010151905092915050565b600061071c6040518060400160405280600981526020017f7374617465526f6f740000000000000000000000000000000000000000000000815250600160009054906101000a900473ffffffffffffffffffffffffffffffffffffffff1673ffffffffffffffffffffffffffffffffffffffff16639588eca26040518163ffffffff1660e01b815260040160206040518083038186803b1580156106df57600080fd5b505afa1580156106f3573d6000803e3d6000fd5b505050506040513d601f19601f820116820180604052508101906107179190610e2f565b6109ca565b600160009054906101000a900473ffffffffffffffffffffffffffffffffffffffff1673ffffffffffffffffffffffffffffffffffffffff166335befa5d6040518163ffffffff1660e01b815260040160206040518083038186803b15801561078457600080fd5b505afa158015610798573d6000803e3d6000fd5b505050506040513d601f19601f820116820180604052508101906107bc9190610d40565b87146107fd576040517f08c379a00000000000000000000000000000000000000000000000000000000081526004016107f49061109f565b60405180910390fd5b600061081b876060013588600001358960a001358a60800135610290565b905060006108338860000135896040013587876102bd565b905060006108e6600160009054906101000a900473ffffffffffffffffffffffffffffffffffffffff1673ffffffffffffffffffffffffffffffffffffffff16639588eca26040518163ffffffff1660e01b815260040160206040518083038186803b1580156108a257600080fd5b505afa1580156108b6573d6000803e3d6000fd5b505050506040513d601f19601f820116820180604052508101906108da9190610e2f565b8a602001358a8a6102bd565b905080831461092a576040517f08c379a0000000000000000000000000000000000000000000000000000000008152600401610921906110df565b60405180910390fd5b8193505050509695505050505050565b60606000604067ffffffffffffffff81111561097f577f4e487b7100000000000000000000000000000000000000000000000000000000600052604160045260246000fd5b6040519080825280601f01601f1916602001820160405280156109b15781602001600182028036833780820191505090505b5090508360208201528260408201528091505092915050565b610a6282826040516024016109e092919061106f565b6040516020818303038152906040527fb60e72cc000000000000000000000000000000000000000000000000000000007bffffffffffffffffffffffffffffffffffffffffffffffffffffffff19166020820180517bffffffffffffffffffffffffffffffffffffffffffffffffffffffff8381831617835250505050610a66565b5050565b60008151905060006a636f6e736f6c652e6c6f679050602083016000808483855afa5050505050565b6000610aa2610a9d8461113f565b61111a565b90508083825260208201905082856020860282011115610ac157600080fd5b60005b85811015610af15781610ad78882610cea565b845260208401935060208301925050600181019050610ac4565b5050509392505050565b60008083601f840112610b0d57600080fd5b8235905067ffffffffffffffff811115610b2657600080fd5b6020830191508360c0820283011115610b3e57600080fd5b9250929050565b600082601f830112610b5657600080fd5b8151610b66848260208601610a8f565b91505092915050565b600081359050610b7e816114e1565b92915050565b600081359050610b93816114f1565b92915050565b600081519050610ba8816114f1565b92915050565b600060408284031215610bc057600080fd5b610bca604061111a565b90506000610bda84828501610cd5565b6000830152506020610bee84828501610cd5565b60208301525092915050565b600060c08284031215610c0c57600080fd5b81905092915050565b600060608284031215610c2757600080fd5b610c31606061111a565b90506000610c4184828501610cd5565b6000830152506020610c5584828501610cd5565b6020830152506040610c6984828501610cd5565b60408301525092915050565b600060c08284031215610c8757600080fd5b610c91606061111a565b90506000610ca184828501610b6f565b6000830152506020610cb584828501610bae565b6020830152506060610cc984828501610c15565b60408301525092915050565b600081359050610ce481611508565b92915050565b600081519050610cf981611508565b92915050565b600060208284031215610d1157600080fd5b600082015167ffffffffffffffff811115610d2b57600080fd5b610d3784828501610b45565b91505092915050565b600060208284031215610d5257600080fd5b6000610d6084828501610b99565b91505092915050565b6000806000806000806101208789031215610d8357600080fd5b6000610d9189828a01610b84565b9650506020610da289828a01610bfa565b95505060e087013567ffffffffffffffff811115610dbf57600080fd5b610dcb89828a01610afb565b945094505061010087013567ffffffffffffffff811115610deb57600080fd5b610df789828a01610afb565b92509250509295509295509295565b600060c08284031215610e1857600080fd5b6000610e2684828501610c75565b91505092915050565b600060208284031215610e4157600080fd5b6000610e4f84828501610cea565b91505092915050565b60008060408385031215610e6b57600080fd5b6000610e7985828601610cd5565b9250506020610e8a85828601610cd5565b9150509250929050565b60008060008060608587031215610eaa57600080fd5b6000610eb887828801610cd5565b9450506020610ec987828801610cd5565b935050604085013567ffffffffffffffff811115610ee657600080fd5b610ef287828801610afb565b925092505092959194509250565b60008060008060808587031215610f1657600080fd5b6000610f2487828801610cd5565b9450506020610f3587828801610cd5565b9350506040610f4687828801610cd5565b9250506060610f5787828801610cd5565b91505092959194509250565b6000610f6e8261116b565b610f788185611181565b9350610f888185602086016112a1565b610f9181611455565b840191505092915050565b6000610fa782611176565b610fb18185611192565b9350610fc18185602086016112a1565b610fca81611455565b840191505092915050565b6000610fe2601783611192565b9150610fed82611466565b602082019050919050565b6000611005601083611192565b91506110108261148f565b602082019050919050565b6000611028601583611192565b9150611033826114b8565b602082019050919050565b61104781611297565b82525050565b600060208201905081810360008301526110678184610f63565b905092915050565b600060408201905081810360008301526110898185610f9c565b9050611098602083018461103e565b9392505050565b600060208201905081810360008301526110b881610fd5565b9050919050565b600060208201905081810360008301526110d881610ff8565b9050919050565b600060208201905081810360008301526110f88161101b565b9050919050565b6000602082019050611114600083018461103e565b92915050565b6000611124611135565b9050611130828261131d565b919050565b6000604051905090565b600067ffffffffffffffff82111561115a57611159611426565b5b602082029050602081019050919050565b600081519050919050565b600081519050919050565b600082825260208201905092915050565b600082825260208201905092915050565b60006111ae82611297565b91506111b983611297565b9250827fffffffffffffffffffffffffffffffffffffffffffffffffffffffffffffffff038211156111ee576111ed6113c8565b5b828201905092915050565b60006112048261128d565b915061120f8361128d565b9250827f80000000000000000000000000000000000000000000000000000000000000000182126000841215161561124a576112496113c8565b5b827f7fffffffffffffffffffffffffffffffffffffffffffffffffffffffffffffff018213600084121615611282576112816113c8565b5b828203905092915050565b6000819050919050565b6000819050919050565b60005b838110156112bf5780820151818401526020810190506112a4565b838111156112ce576000848401525b50505050565b60006112df8261128d565b91507f8000000000000000000000000000000000000000000000000000000000000000821415611312576113116113c8565b5b600182039050919050565b61132682611455565b810181811067ffffffffffffffff8211171561134557611344611426565b5b80604052505050565b600061135982611297565b91507fffffffffffffffffffffffffffffffffffffffffffffffffffffffffffffffff82141561138c5761138b6113c8565b5b600182019050919050565b60006113a282611297565b91506113ad83611297565b9250826113bd576113bc6113f7565b5b828206905092915050565b7f4e487b7100000000000000000000000000000000000000000000000000000000600052601160045260246000fd5b7f4e487b7100000000000000000000000000000000000000000000000000000000600052601260045260246000fd5b7f4e487b7100000000000000000000000000000000000000000000000000000000600052604160045260246000fd5b6000601f19601f8301169050919050565b7f426c6f636b206e756d62657220697320696e76616c6964000000000000000000600082015250565b7f50726f6f6620697320696e76616c696400000000000000000000000000000000600082015250565b7f5374617465206861736820697320696e76616c69640000000000000000000000600082015250565b600281106114ee57600080fd5b50565b6114fa8161128d565b811461150557600080fd5b50565b61151181611297565b811461151c57600080fd5b5056fea2646970667358221220b5b42c3b313860eb904c18f0ec41d576a829033dfe909259227738b83209086a64736f6c63430008040033",
  "linkReferences": {},
  "deployedLinkReferences": {}
}